:020000040000FA
:10000000880120206D0100007101000073010000D3
:1000100000000000000000000000000000000000E0
:10002000000000000000000000000000750100005A
:1000300000000000000000007701000079010000CE
:100040007B0100007B0100007B0100007B010000C0
:100050007B0100007B0100007B0100007B010000B0
:10006000000000007B0100007B0100000000000098
:10007000000000007B0100007B010000210800005F
:100080007B0100007B0100007B0100007B01000080
:100090007B0100007B010000000000000000000068
:1000A0007B0100007B010000000000000000000058
:1000B0007B010000000000007B0100007B010000CC
:1000C00000F002F800F042F80CA030C808382418FC
:1000D0002D18671EA246AB4654465D46AC4201D180
:1000E00000F034F87E460F3EB6460FCC0126334270
:1000F00000D0FB1A3343A246AB46184784100000D9
:10010000A410000000000000103A02D378C878C1A3
:10011000FAD8520701D330C830C101D504680C6049
:100120007047000000000000002300240025002686
:10013000103A01D378C1FBD8520700D330C100D5A3
:100140000B6070471FB51FBD10B510BD00F027F83C
:100150001146FFF7F7FF00F0A7FB00F03FF803B4EC
:10016000FFF7F2FF03BC00F045F800000648004727
:10017000FEE7FEE7FEE7FEE7FEE7FEE70348044989
:10018000024A044B70470000C10000008800202094
:1001900088012020880020207047704770477546EE
:1001A00000F024F8AE46050069465346C008C0007A
:1001B000854618B020B5FFF7E1FF60BCB6460026C3
:1001C0000027C0C5C0C5C0C5C0C5C0C5C0C5C0C565
:1001D000C0C5403D490849008D46704710B50446EA
:1001E000C046C0462046FFF7BAFF10BD0048704722
:1001F0002000202001491820ABBEFEE726000200A7
:100200007047811E091F00BFFCD27047B0B5112294
:10021000120283580124A34383500B888C781C431B
:100220008B882343094C1C408358094D1D4063199A
:1002300083508B79CC791C43097A21437E23194062
:10024000801842689A4351184160B0BD1867000099
:10025000E798FDFF10B50122120383180C789C600B
:100260004978815010BD0000F0B587B0A648A74975
:100270000160A74D01262E61A0242046FFF7C1FF93
:100280002E602046FFF7BDFFA24908680F46069082
:100290002046FFF7B6FF2E612046FFF7B2FF2E6023
:1002A0002046FFF7AEFF386805902046FFF7A9FF0C
:1002B0002E612046FFF7A5FF2E602046FFF7A1FF25
:1002C000386804902046FFF79CFF2E612046FFF718
:1002D00098FF2E602046FFF794FF38680390204671
:1002E000FFF78FFF2E612046FFF78BFF2E60204621
:1002F000FFF787FF386802902046FFF782FF2E61E4
:100300002046FFF77EFF2E602046FFF77AFF386811
:1003100001902046FFF775FF2E612046FFF771FF21
:100320002E602046FFF76DFF7A4807682046FFF7EA
:1003300068FF2E612046FFF764FF2E602046FFF71E
:1003400060FF744805682046FFF75BFF069842008F
:1003500004210A400220059B03409A189200049B46
:100360005B000B40D218039B03409A189200029B3B
:100370005B000B40D118019A024051184900074018
:100380007818A907C90F0818C0B207B0F0BDC04659
:10039000F0B581B00446BB4881210160C84D0226FA
:1003A0002E602E6401272F612E61A020FFF729FF08
:1003B000002C01D02E6000E02E612F60A020FFF7FE
:1003C00020FF2F612E6001B0F0BDC046F0B581B0B6
:1003D000AC4881210160BA4D02262E602E640127AF
:1003E0002F612E602F60A0242046FFF70AFF2E61A8
:1003F0002046FFF706FF2F612046FFF702FF01B0FE
:10040000F0BDC04670B59F4881210160AC4D022609
:100410002E602E64012028612E612860A0242046D1
:10042000FFF7EFFE2E602046FFF7EBFE70BDC046E3
:10043000F0B581B0934935480860A14E0227376076
:10044000A0252846FFF7DDFE012434602846FFF78B
:10045000D8FE304D2868800735D5A020FFF7D1FEA3
:10046000286880072FD5A020FFF7CBFE28688007DB
:1004700029D5A020FFF7C5FE2868800723D5A02036
:10048000FFF7BFFE286880071DD5A020FFF7B9FE43
:100490002868800717D5A020FFF7B3FE28688007DB
:1004A00011D5A020FFF7ADFE286880070BD5A0204E
:1004B000FFF7A7FE2868800705D5A020FFF7A1FE5B
:1004C000286880070AD40120306181206D490860C6
:1004D000376037640024204601B0F0BDA0200090B2
:1004E000FFF78FFE2868812066490860376037640F
:1004F000346137613460009D2846FFF782FE376023
:100500002846FFF77EFEE6E70880424081000400AF
:1005100090120A4080130A40F0B581B0594A8121F7
:100520001160674E02243460346401273761009003
:1005300040B2002801D4346100E034604020FFF76D
:1005400060FEC020FFF75DFE376080252846FFF77C
:1005500058FE37612846FFF754FE0098400601D444
:10056000346100E034604020FFF74BFEC020FFF70D
:1005700048FE376080252846FFF743FE376128464E
:10058000FFF73FFE0098800601D4346100E034603C
:100590004020FFF736FEC020FFF733FE376080258E
:1005A0002846FFF72EFE37612846FFF72AFE0098FF
:1005B000C00601D4346100E034604020FFF721FE22
:1005C000C020FFF71EFE376080252846FFF719FE82
:1005D00037612846FFF715FE0098000701D4346103
:1005E00000E034604020FFF70CFEC020FFF709FE5A
:1005F000376080252846FFF704FE37612846FFF75D
:1006000000FE0098400701D4346100E034604020CF
:10061000FFF7F7FDC020FFF7F4FD3760802528467F
:10062000FFF7EFFD37612846FFF7EBFD00988007E5
:1006300001D4346100E034604020FFF7E2FDC020C7
:10064000FFF7DFFD376080252846FFF7DAFD3761C9
:100650002846FFF7D6FD0098C00701D1346100E0BD
:1006600034604020FFF7CDFDC020FFF7CAFD3760A2
:1006700080242046FFF7C5FD37612046FFF7C1FD06
:1006800001B0F0BD088042400A48822101650A4A53
:1006900042658165C265094981220A600260426043
:1006A000012080050649086103220A60C01C086415
:1006B0007047C0460480424082000400BC80424033
:1006C00090120A400C48002101600320C1430B48EE
:1006D0000246083A13680B401360016801229143F7
:1006E0000160110203688B4303601103001F02685D
:1006F0000A4302607047C04608030B4008010B40E4
:1007000010B5124C12492046FFF7A4FD11492046AE
:10071000FFF77CFD0321CA030F480368934303607E
:100720000269274B13401A33036142690A433C2193
:100730008A4342614168012211404368934359183A
:10074000416001681143016010BDC04600001040C7
:10075000F4100000F61000000011104010B5144C09
:1007600014492046FFF776FD13492046FFF74EFD5A
:100770000321CA0311480368934303600269104BC5
:1007800013401A33036142690A433C218A434261A0
:100790004168012211404368934359184160910216
:1007A000084B1C680C431C6001681143016010BDBC
:1007B00000801040E8100000EA1000000091104096
:1007C0000000FFFF2890104080B500F009F8FFF707
:1007D0005BFFFFF777FFFFF7C1FFFFF791FF80BDDA
:1007E00010B5094809494160094A5160094B5960EF
:1007F000094C616009490160116019602160102095
:10080000FFF7FFFC10BDC04600080A40030000B11E
:1008100000280A400088104000081040010000260F
:100820000B480068C0B20B2811D10A48C1690A4AB6
:10083000117011780268D20708D00268D20705D07B
:100840000268D20702D00268D207F3D181617047F3
:1008500020901040089110408000202010B5FFF734
:10086000B5FD6820FFF758FEFFF7E2FD00240128E0
:1008700017D06420FFF750FEFFF7DAFD012810D0F3
:10088000FFF7A4FD6920FFF747FEFFF7D1FD012820
:1008900007D0FFF7E9FC04460120FFF779FDFFF7D9
:1008A000B1FD204610BD000000B581B0FFF78CFF00
:1008B000F7484D22F74D034602E0AA610B1D0A7965
:1008C00019462B68DB0708D02B68DB0705D02B689F
:1008D000DB0702D02B68DB07F3D1D2B2AA61024654
:1008E00029324B1C934229D04A782B68DB0708D069
:1008F0002B68DB0705D02B68DB0702D02B68DB07F2
:10090000F3D1AA618A782B68DB0708D02B68DB0754
:1009100005D02B68DB0702D02B68DB07F3D1AA6177
:10092000CA782B68DB07C8D02B68DB07C5D02B68DB
:10093000DB07C2D02B68DB07F3D1BEE70020D64E21
:10094000D64F01E00978B161044601208005D44901
:100950000860D448FFF755FCFFF780FF0028F3D06C
:10096000A042F1D054223B4606E0AA614B1D4A79D1
:10097000394614318B4246D019462B68DB0708D024
:100980002B68DB0705D02B68DB0702D02B68DB0761
:10099000F3D1D2B2AA614A782B68DB0708D02B6862
:1009A000DB0705D02B68DB0702D02B68DB07F3D110
:1009B000AA618A782B68DB0708D02B68DB0705D093
:1009C0002B68DB0702D02B68DB07F3D1AA61CA785A
:1009D0002B68DB0708D02B68DB0705D02B68DB070B
:1009E00002D02B68DB07F3D1AA610A792B68DB07F9
:1009F000BBD02B68DB07B8D02B68DB07B5D02B68E2
:100A0000DB07F3D1B1E701090A4637322B68DB0770
:100A100008D02B68DB0705D02B68DB0702D02B68DA
:100A2000DB07F3D1A02801D3114600E030319E4C02
:100A3000A9610F2101400A4637322B68DB0708D035
:100A40002B68DB0705D02B68DB0702D02B68DB07A0
:100A5000F3D10A2901D3114600E03031A961296898
:100A6000C90708D02968C90705D02968C90702D075
:100A70002968C907F3D10D21A9612968C90708D0E0
:100A80002968C90705D02968C90702D02968C9079C
:100A9000F3D10A21A9612D22212800D1DCE11C28F3
:100AA00000D1F2E0092800D0AAE2804C234606E0FB
:100AB000AA618B1D8A79214612318B4254D0194686
:100AC0002B68DB0708D02B68DB0705D02B68DB071A
:100AD00002D02B68DB07F3D1D2B2AA614A782B6827
:100AE000DB0708D02B68DB0705D02B68DB0702D0BB
:100AF0002B68DB07F3D1AA618A782B68DB0708D063
:100B00002B68DB0705D02B68DB0702D02B68DB07DF
:100B1000F3D1AA61CA782B68DB0708D02B68DB0702
:100B200005D02B68DB0702D02B68DB07F3D1AA6165
:100B30000A792B68DB0708D02B68DB0705D02B6808
:100B4000DB0702D02B68DB07F3D1AA614A792B6857
:100B5000DB07ADD02B68DB07AAD02B68DB07A7D05B
:100B60002B68DB07F3D1A3E73168C90708D03168E8
:100B7000C90705D03168C90702D03168C907F3D168
:100B80004B4B1978B1613168C90708D03168C90782
:100B900005D03168C90702D03168C907F3D1597847
:100BA000B1613168C90708D03168C90705D031681B
:100BB000C90702D03168C907F3D19978B1613168AA
:100BC000C90708D03168C90705D03168C90702D004
:100BD0003168C907F3D1D978B1613168C90708D044
:100BE0003168C90705D03168C90702D03168C90723
:100BF000F3D11979B1613168C90708D03168C907E3
:100C000005D03168C90702D03168C907F3D15979D5
:100C1000B1613168C90708D03168C90705D03168AA
:100C2000C90702D03168C907F3D19979B161316838
:100C3000C90708D03168C90705D03168C90702D093
:100C40003168C907F3D1D979B1613168C90708D0D2
:100C50003168C90705D03168C90702D03168C907B2
:100C6000F3D1197AB161194609313268D20700D13E
:100C700068E63268D20700D164E63268D20700D154
:100C800060E63268D207EED15CE6234615E0C04646
:100C9000001100000891104008111040651100007B
:100CA000B0120A4000D4300053110000401100007F
:100CB00000002020AA610B1D0A7919462B68DB076A
:100CC00008D02B68DB0705D02B68DB0702D02B6828
:100CD000DB07F3D1D2B2AA61224611324B1C9342F8
:100CE00029D04A782B68DB0708D02B68DB0705D0B2
:100CF0002B68DB0702D02B68DB07F3D1AA618A7867
:100D00002B68DB0708D02B68DB0705D02B68DB07D7
:100D100002D02B68DB07F3D1AA61CA782B68DB0706
:100D2000C8D02B68DB07C5D02B68DB07C2D02B6887
:100D3000DB07F3D1BEE73168C90708D03168C907BE
:100D400005D03168C90702D03168C907F3D1E44B37
:100D50001978B1613168C90708D03168C90705D071
:100D60003168C90702D03168C907F3D15978B16138
:100D70003168C90708D03168C90705D03168C9078B
:100D800002D03168C907F3D19978B1613168C907D8
:100D900008D03168C90705D03168C90702D0316869
:100DA000C907F3D1D978B1613168C90708D0316872
:100DB000C90705D03168C90702D03168C907F3D126
:100DC0001979B1613168C90708D03168C90705D000
:100DD0003168C90702D03168C907F3D15979B161C7
:100DE0003168C90708D03168C90705D03168C9071B
:100DF00002D03168C907F3D19979B1613168C90767
:100E000008D03168C90705D03168C90702D03168F8
:100E1000C907F3D1D979B1613168C90708D0316800
:100E2000C90705D03168C90702D03168C907F3D1B5
:100E3000197AB161194609313268D20700D181E5CA
:100E40003268D20700D17DE53268D20700D179E55A
:100E50003268D207EED175E5234602E0AA610B1D88
:100E60000A7919462B68DB0708D02B68DB0705D009
:100E70002B68DB0702D02B68DB07F3D1D2B2AA6163
:100E8000224611324B1C934229D04A782B68DB074B
:100E900008D02B68DB0705D02B68DB0702D02B6856
:100EA000DB07F3D1AA618A782B68DB0708D02B68AF
:100EB000DB0705D02B68DB0702D02B68DB07F3D1FB
:100EC000AA61CA782B68DB07C8D02B68DB07C5D0BE
:100ED0002B68DB07C2D02B68DB07F3D1BEE7316894
:100EE000C90708D03168C90705D03168C90702D0E1
:100EF0003168C907F3D1794B1978B1613168C907F5
:100F000008D03168C90705D03168C90702D03168F7
:100F1000C907F3D15978B1613168C90708D0316880
:100F2000C90705D03168C90702D03168C907F3D1B4
:100F30009978B1613168C90708D03168C90705D00F
:100F40003168C90702D03168C907F3D1D978B161D6
:100F50003168C90708D03168C90705D03168C907A9
:100F600002D03168C907F3D11979B1613168C90775
:100F700008D03168C90705D03168C90702D0316887
:100F8000C907F3D15979B1613168C90708D031680F
:100F9000C90705D03168C90702D03168C907F3D144
:100FA0009979B1613168C90708D03168C90705D09E
:100FB0003168C90702D03168C907F3D1D979B16165
:100FC0003168C90708D03168C90705D03168C90739
:100FD00002D03168C907F3D1197AB16119460931D4
:100FE0003268D20700D1ADE43268D20700D1A9E45B
:100FF0003268D20700D1A5E43268D207EED1A1E46D
:10100000384C234607E0AA61CB1DCA792146153129
:101010008B4200D198E419462B68DB0708D02B6877
:10102000DB0705D02B68DB0702D02B68DB07F3D189
:10103000D2B2AA614A782B68DB0708D02B68DB079D
:1010400005D02B68DB0702D02B68DB07F3D1AA6140
:101050008A782B68DB0708D02B68DB0705D02B6864
:10106000DB0702D02B68DB07F3D1AA61CA782B68B3
:10107000DB0708D02B68DB0705D02B68DB0702D025
:101080002B68DB07F3D1AA610A792B68DB0708D04C
:101090002B68DB0705D02B68DB0702D02B68DB074A
:1010A000F3D1AA614A792B68DB0708D02B68DB07EC
:1010B00005D02B68DB0702D02B68DB07F3D1AA61D0
:1010C0008A792B68DB079ED02B68DB079BD02B68C7
:1010D000DB0798D02B68DB07F3D194E714002020BE
:1010E0000A0020202A11000004000000180000005F
:1010F0000030000004000000180000000030000074
:101100004D53504D3020566F69636520436F6E74A8
:10111000726F6C20506C61796572204D565020536F
:10112000746172742E2E2E0D0A002D3E20556E6BAA
:101130006E6F776E20566F6963652049440D0A0013
:101140002D3E20416374696F6E3A205041555345DE
:101150000D0A002D3E20416374696F6E3A20504C99
:1011600041590D0A005472756520486172647761B7
:1011700072652049443A20307800000000000000E9
:10118000A011000000002020200000000801000045
:10119000C01100002000202068010000280100008C
:1011A0007EFF060E000000FEEDEF7EFF060300004E
:1011B00001FEF7EF7EFF0603000002FEF6EF0000DF
:04000005000000C136
:00000001FF
