:020000040000FA
:10000000A80620204D01000051010000530100000E
:1000100000000000000000000000000000000000E0
:10002000000000000000000000000000550100007A
:10003000000000000000000057010000590100000E
:100040005B0100005B0100005B0100005B01000040
:100050005B0100005B0100005B0100005B01000030
:10006000000000005B0100005B01000000000000D8
:10007000000000005B0100005B0100005B0100006C
:100080005B0100005B0100005B0100005B01000000
:100090005B0100005B0100000000000000000000A8
:1000A0005B0100005B010000000000000000000098
:1000B0005B010000000000005B0100005B0100002C
:1000C00000F002F800F032F80CA030C8083824180C
:1000D0002D18671EA246AB4654465D46AC4201D180
:1000E00000F024F87E460F3EB6460FCC0126334280
:1000F00000D0FB1A3343A246AB4618477C420000AF
:100100008C4200000000000000230024002500268F
:10011000103A01D378C1FBD8520700D330C100D5C3
:100120000B6070471FB51FBD10B510BD00F027F85C
:100130001146FFF7F7FF02F08BFA00F03FF803B427
:10014000FFF7F2FF03BC00F045F800000648004747
:10015000FEE7FEE7FEE7FEE7FEE7FEE703480449A9
:10016000024A044B70470000C1000000A80520208F
:10017000A8062020A80520207047704770477546C4
:1001800000F024F8AE46050069465346C008C0009A
:10019000854618B020B5FFF7E1FF60BCB6460026E3
:1001A0000027C0C5C0C5C0C5C0C5C0C5C0C5C0C585
:1001B000C0C5403D490849008D46704710B504460A
:1001C000C046C0462046FFF7BAFF10BD0048704742
:1001D0000000202001491820ABBEFEE726000200E7
:1001E00070470000B0B50A78032313400B4A8458C7
:1001F0000B4D2540EB18A92424061B198350072218
:1002000012064B6813401124240205599543EA183D
:100210000251001949780161B0BDC04608080000CC
:10022000FCFFFF00811E091F00BFFCD270470000C9
:10023000F0B53C4A82183C4BC31808794E793B4DC7
:100240003B4C002E23D0202804D00526F6010028A0
:1002500003D003E0374E002800D18826576F2F4087
:1002600037435767976F2F4037439767566B264042
:100270005663966B264096630026566596658F26D4
:10028000F6435F6837405F609F6837409F608E79B4
:10029000096820280BD0002819D1491E5160D76E5B
:1002A0002F4088210F43D7661746703719E0491E43
:1002B0005160D16E29401F4F3943D166116F2940DB
:1002C00039431167012149071B4D174609E04908C9
:1002D0005160D76E2F400521C9010F43D7661746DD
:1002E00070373C682C400C433C60D16A104C214074
:1002F000D162116B214011630021D16411658F21FE
:10030000C943D46F0C40D4671C680C401C60064382
:10031000BD2030401168094B0B40C018801C106094
:10032000F0BDC046041800008418000024493E00B7
:100330008888FDFF01040000FFFFFFCF4000FFCFD2
:1003400010B507239B04194092008018024A845874
:100350009C436118815010BD3018000010B5029CFC
:10036000A400001911431943014A815010BDC04631
:100370005018000092008018014A81507047C04612
:100380001018000010B50122120383180C789C602D
:100390004B7883508978014A815010BD0C110000C0
:1003A000B0B51122120283580124A34383500B8855
:1003B0008C781C438B882343094C1C408358094D7F
:1003C0001D40631983508B79CC791C43097A2143F2
:1003D0007E231940801842689A4351184160B0BD8D
:1003E00018670000E798FDFF10B50122120383187B
:1003F0000C789C604978815010BD0000F0B587B042
:10040000DB487E490160DB4D01262E61A024204699
:10041000FFF708FF2E602046FFF704FF78490868C1
:100420000F4606902046FFF7FDFE2E612046FFF79F
:10043000F9FE2E602046FFF7F5FE3868059020464D
:10044000FFF7F0FE2E612046FFF7ECFE2E602046FF
:10045000FFF7E8FE386804902046FFF7E3FE2E61C0
:100460002046FFF7DFFE2E602046FFF7DBFE3868F0
:1004700003902046FFF7D6FE2E612046FFF7D2FEFE
:100480002E602046FFF7CEFE386802902046FFF728
:10049000C9FE2E612046FFF7C5FE2E602046FFF7FD
:1004A000C1FE386801902046FFF7BCFE2E61204651
:1004B000FFF7B8FE2E602046FFF7B4FE50480768ED
:1004C0002046FFF7AFFE2E612046FFF7ABFE2E6001
:1004D0002046FFF7A7FE4A4805682046FFF7A2FE20
:1004E0000698420004210A400220059B03409A1806
:1004F0009200049B5B000B40D218039B03409A18A8
:100500009200029B5B000B40D118019A02405118E7
:10051000490007407818A907C90F0818C0B207B0EA
:10052000F0BDC046F0B581B0914934480860914EA5
:1005300002273760A0252846FFF774FE01243460A7
:100540002846FFF76FFE2E4D2868800735D5A0207E
:10055000FFF768FE286880072FD5A020FFF762FE0E
:100560002868800729D5A020FFF75CFE286880074F
:1005700023D5A020FFF756FE286880071DD5A020B0
:10058000FFF750FE2868800717D5A020FFF74AFE26
:100590002868800711D5A020FFF744FE286880074F
:1005A0000BD5A020FFF73EFE2868800705D5A020C8
:1005B000FFF738FE286880070AD4012030618120C7
:1005C0006B490860376037640024204601B0F0BDF5
:1005D000A0200090FFF726FE28688120644908606B
:1005E00037603764346137613460009D2846FFF717
:1005F00019FE37602846FFF715FEE6E78100040084
:1006000080130A40F0B581B0594A81211160594EDA
:1006100002243460346401273761009040B200281E
:1006200001D4346100E034604020FFF7FBFDC020BE
:10063000FFF7F8FD376080252846FFF7F3FD3761A7
:100640002846FFF7EFFD0098400601D4346100E032
:1006500034604020FFF7E6FDC020FFF7E3FD376080
:1006600080252846FFF7DEFD37612846FFF7DAFDD3
:100670000098800601D4346100E034604020FFF728
:10068000D1FDC020FFF7CEFD376080252846FFF75B
:10069000C9FD37612846FFF7C5FD0098C00601D4A3
:1006A000346100E034604020FFF7BCFDC020FFF75C
:1006B000B9FD376080252846FFF7B4FD376128462D
:1006C000FFF7B0FD0098000701D4346100E034600A
:1006D0004020FFF7A7FDC020FFF7A4FD376080256D
:1006E0002846FFF79FFD37612846FFF79BFD0098DE
:1006F000400701D4346100E034604020FFF792FDF0
:10070000C020FFF78FFD376080252846FFF78AFD60
:1007100037612846FFF786FD0098800701D43461D1
:1007200000E034604020FFF77DFDC020FFF77AFD38
:10073000376080252846FFF775FD37612846FFF7AB
:1007400071FD0098C00701D1346100E034604020A1
:10075000FFF768FDC020FFF765FD37608024204665
:10076000FFF760FD37612046FFF75CFD01B0F0BD8B
:100770000880424090120A4001461039A12900D950
:10078000B6E001204900C0467944898849008F4479
:10079000B000B000B000AF00AF00AF00AF00AF00DE
:1007A000AF00AF00AF00AF00AF00AF00AF00AF00D1
:1007B000B100AF00AF00AF00AF00AF00AF00AF00BF
:1007C000AF00AF00AF00AF00AF00AF00AF00AF00B1
:1007D000A100A100A100A100AF00AF00AF00AF00D9
:1007E000AF00AF00AF00AF00AF00AF00AF00AF0091
:1007F000A700A700AF00AF00AF00AF00AF00AF0091
:10080000AF00AF00AF00AF00AF00AF00AF00AF0070
:10081000A900A900AF00AF00AF00AF00AF00AF006C
:10082000AF00AF00AF00AF00AF00AF00AF00AF0050
:10083000B300AF00AF00AF00AF00AF00AF00AF003C
:10084000AF00AF00AF00AF00AF00AF00AF00AF0030
:10085000A300A300A300A300AF00AF00AF00AF0050
:10086000AF00AF00AF00AF00AF00AF00AF00AF0010
:10087000A500A500A500A500AF00AF00AF00AF0028
:10088000AF00AF00AF00AF00AF00AF00AF00AF00F0
:10089000AF00AF00AF00AF00AF00AF00AF00AF00E0
:1008A000AF00AF00AF00AF00AF00AF00AF00AF00D0
:1008B000AB00AB00AF00AF00AF00AF00AF00AF00C8
:1008C000AF00AF00AF00AF00AF00AF00AF00AF00B0
:1008D000AD00AD0003207047072070470820704727
:1008E0000420704705207047092070470A20704790
:1008F000002070470220704706207047F0B58BB08B
:10090000024D28468030802402E0C046600020204E
:1009100078230022C25470210A914254682109911F
:100920004254602108914254582107914254502169
:100930000691425448210591425440210491425469
:100940003821039142543021029142542826825585
:100950002027C255027602740272027001460839DD
:100960000A70014610390A70014618390A700146AA
:1009700020390A70014628390A70014630390A7058
:10098000014638390A70014640390A700146483933
:100990000A70014650390A70014658390A700146FA
:1009A00060390A70014668390A70014670390A7068
:1009B000014678390A70014680390A70012109021E
:1009C0004018203CA4D101932B4681338020019C08
:1009D0001A550A9C1A55099C1A55089C1A55079CC9
:1009E0001A55069C1A55059C1A55049C1A55039CC9
:1009F0001A55029C1A559A55DA551A761A741A72B3
:100A00001A701C46083C22701C46103C22701C4682
:100A1000183C22701C46203C22701C46283C227048
:100A20001C46303C22701C46383C22701C46403C20
:100A300022701C46483C22701C46503C22701C46CA
:100A4000583C22701C46603C22701C46683C227058
:100A50001C46703C22701C46783C22705C18803B1F
:100A60001A7020382346B2D12C4682348020019B54
:100A7000E2540A9BE254099BE254089BE254079B10
:100A8000E254069BE254059BE254049BE254039B10
:100A9000E254029BE254A255E2552276227422725D
:100AA00022702346083B1A702346103B1A702346D7
:100AB000183B1A702346203B1A702346283B1A70B5
:100AC0002346303B1A702346383B1A702346403B7E
:100AD0001A702346483B1A702346503B1A7023462F
:100AE000583B1A702346603B1A702346683B1A70C5
:100AF0002346703B1A702346783B1A706318803C7B
:100B0000227020381C46B2D12C4683348020019BB1
:100B1000E2540A9BE254099BE254089BE254079B6F
:100B2000E254069BE254059BE254049BE254039B6F
:100B3000E254029BE254A255E255227622742272BC
:100B400022702346083B1A702346103B1A70234636
:100B5000183B1A702346203B1A702346283B1A7014
:100B60002346303B1A702346383B1A702346403BDD
:100B70001A702346483B1A702346503B1A7023468E
:100B8000583B1A702346603B1A702346683B1A7024
:100B90002346703B1A702346783B1A706318803CDA
:100BA000227020381C46B2D12C4684348020019B10
:100BB000E2540A9BE254099BE254089BE254079BCF
:100BC000E254069BE254059BE254049BE254039BCF
:100BD000E254029BE254A255E2552276227422721C
:100BE00022702346083B1A702346103B1A70234696
:100BF000183B1A702346203B1A702346283B1A7074
:100C00002346303B1A702346383B1A702346403B3C
:100C10001A702346483B1A702346503B1A702346ED
:100C2000583B1A702346603B1A702346683B1A7083
:100C30002346703B1A702346783B1A706318803C39
:100C4000227020381C46B2D12C4685348020019B6E
:100C5000E2540A9BE254099BE254089BE254079B2E
:100C6000E254069BE254059BE254049BE254039B2E
:100C7000E254029BE254A255E2552276227422727B
:100C800022702346083B1A702346103B1A702346F5
:100C9000183B1A702346203B1A702346283B1A70D3
:100CA0002346303B1A702346383B1A702346403B9C
:100CB0001A702346483B1A702346503B1A7023464D
:100CC000583B1A702346603B1A702346683B1A70E3
:100CD0002346703B1A702346783B1A706318803C99
:100CE000227020381C46B2D12C4686348020019BCD
:100CF000E2540A9BE254099BE254089BE254079B8E
:100D0000E254069BE254059BE254049BE254039B8D
:100D1000E254029BE254A255E255227622742272DA
:100D200022702346083B1A702346103B1A70234654
:100D3000183B1A702346203B1A702346283B1A7032
:100D40002346303B1A702346383B1A702346403BFB
:100D50001A702346483B1A702346503B1A702346AC
:100D6000583B1A702346603B1A702346683B1A7042
:100D70002346703B1A702346783B1A706318803CF8
:100D8000227020381C46B2D17F35802004462A5478
:100D9000019BEA540A9BEA54099BEA54089BEA54D3
:100DA000079BEA54069BEA54059BEA54049BEA54C9
:100DB000039BEA54029BEA54AA55EA552A762A7400
:100DC0002A722A702B46083B1A702B46103B1A7069
:100DD0002B46183B1A702B46203B1A702B46283B9B
:100DE0001A702B46303B1A702B46383B1A702B4634
:100DF000403B1A702B46483B1A702B46503B1A70EA
:100E00002B46583B1A702B46603B1A702B46683BAA
:100E10001A702B46703B1A706B18783D2A70203C74
:100E20001D46B4D100F0CCFD0BB0F0BDF0B58FB0D5
:100E300001277C05FC4D2C60FC48FFF7F3F92846A0
:100E400010380460B905FA4A116104232B603C0391
:100E50002C60BE03066004602C602E6004602C6071
:100E6000066004602C602E6004602C6006600460E4
:100E70002C60066004602C60066004602C602E60AC
:100E800004600360116011612B602C602E600460AF
:100E90002C602E6004602C602E6004602C602E603C
:100EA00004602C602E6004602C602E6004602C6056
:100EB0002E6004602C602E6004600360116011617C
:100EC0002B602C602E6004602C602E6004602C600F
:100ED0002E6004602C60066004602C602E6004604C
:100EE0002C602E6004602C602E6004602C602E60EC
:100EF00004600360116011612B602C602E6004603F
:100F00002C60066004602C602E6004602C602E60F3
:100F100004602C602E6004602C602E6004602C60E5
:100F20002E6004602C602E6004600360116011610B
:100F30002B602C60066004602C602E6004602C60C6
:100F40002E6004602C602E6004602C602E600460B3
:100F50002C602E6004602C602E6004602C600660A3
:100F600004600360116011612B602C6006600460F6
:100F70002C60066004602C602E6004602C602E6083
:100F800004602C60066004602C60066004602C60C5
:100F9000066004602C6006600460036011601161EB
:100FA0002B602C60066004602C602E6004602C6056
:100FB000066004602C602E6004602C602E6004606B
:100FC0002C602E6004602C602E6004602C60066033
:100FD00004600360116011612B602C600660046086
:100FE0002C60066004602C602E6004602C602E6013
:100FF00004602C60066004602C602E6004602C602D
:101000002E6004602C602E6004600360116011612A
:101010002B602C60066004602C602E6004602C60E5
:10102000066004602C602E6004602C602E600460FA
:101030002C60066004602C60066004602C602E60EA
:1010400004600360116011612B602C600660046015
:101050002C602E6004602C60066004602C602E60A2
:1010600004602C60066004602C602E6004602C60BC
:101070002E6004602C602E600460036011601161BA
:101080002B602C602E6004602C602E6004602C604D
:10109000066004602C60066004602C6006600460DA
:1010A0002C60066004602C60066004602C600660A2
:1010B00004600360116011612B602C6006600460A5
:1010C0002C60066004602C602E6004602C6006605A
:1010D00004602C602E6004602C602E6004602C6024
:1010E000066004602C60066004600360116011619A
:1010F0002B602C602E6004602C602E6004602C60DD
:101100002E6004602C602E6004602C602E600460F1
:101110002C602E6004602C602E6004602C602E60B9
:1011200004600360116011612B602C600660046034
:101130002C60066004602C602E6004602C600660E9
:1011400004602C602E6004602C60066004602C60DB
:101150002E6004602C600660046003601160116101
:101160002B602C60066004602C602E6004602C6094
:101170002E6004602C602E6004602C602E60046081
:101180002C602E6004602C602E6004602C602E6049
:1011900004600360116011612B602C6006600460C4
:1011A0002C60066004602C602E6004602C60066079
:1011B00004602C60066004602C602E6004602C606B
:1011C0002E6004602C600660046003601160116191
:1011D0002B602C60066004602C60066004602C604C
:1011E000066004602C60066004602C602E60046061
:1011F0002C602E6004602C602E6004602C60066001
:1012000004600360116011612B602C600660046053
:101210002C60066004602C602E6004602C60066008
:1012200004602C6006E0C046A0120A4000A86100DD
:1012300090320A40066004602C602E6004602C60CE
:10124000066004602C602E60046003601160116110
:101250002B602C602E6004602C602E6004602C607B
:101260002E6004602C60066004602C602E600460B8
:101270002C602E6004602C60066004602C602E6080
:1012800004600360116011612B602C6006600460D3
:101290002C60066004602C602E6004602C60066088
:1012A00004602C60066004602C602E6004602C607A
:1012B000066004602C6006600460036011601161C8
:1012C0002B602C602E6004602C60066004602C6033
:1012D0002E6004602C602E6004602C602E60046020
:1012E0002C602E6004602C602E6004602C602E60E8
:1012F00004600360116011612B602C602E6004603B
:101300002C602E6004602C60066004602C602E60EF
:1013100004602C602E6004602C602E6004602C60E1
:101320002E6004602C602E60046003601160116107
:101330002B602C602E6004602C602E6004602C609A
:101340002E6004602C602E6004602C602E600460AF
:101350002C602E6004602C60066004602C602E609F
:1013600004600360116011612B602C6006600460F2
:101370002C602E6004602C602E6004602C602E6057
:1013800004602C60066004602C60066004602C60C1
:101390002E6004602C6006600460036011601161BF
:1013A0002B602C602E6004602C602E6004602C602A
:1013B0002E6004602C60066004602C602E60046067
:1013C0002C60066004602C602E6004602C602E602F
:1013D00004600360116011612B602C600660046082
:1013E0002C602E6004602C60066004602C602E600F
:1013F00004602C602E6004602C60066004602C6029
:101400002E6004602C602E60046003601160116126
:101410002B602C60066004602C602E6004602C60E1
:10142000066004602C602E6004602C602E600460F6
:101430002C60066004602C60066004602C600096DE
:101440002E60019404600490029303603B46039174
:101450001160024F38468030802401E06000202077
:10146000782100220E91425470210D91425468213E
:101470000C91425460210B91425458210A914254DC
:10148000502109914254482108914254402107912A
:101490004254382106914254302105914254282566
:1014A000425520268255027602740272027001466D
:1014B00008390A70014610390A70014618390A7055
:1014C000014620390A70014628390A700146303930
:1014D0000A70014638390A70014640390A700146DF
:1014E00048390A70014650390A70014658390A7065
:1014F000014660390A70014668390A700146703940
:101500000A70014678390A70014680390A7019025A
:101510004018203CA4D13B46813380200E9C1A55B4
:101520000D9C1A550C9C1A550B9C1A550A9C1A5561
:10153000099C1A55089C1A55079C1A55069C1A5561
:10154000059C1A555A559A551A761A741A721A70B9
:101550001C46083C22701C46103C22701C46183C5D
:1015600022701C46203C22701C46283C22701C46DF
:10157000303C22701C46383C22701C46403C227095
:101580001C46483C22701C46503C22701C46583C6D
:1015900022701C46603C22701C46683C22701C462F
:1015A000703C22701C46783C22705C18803B1A709C
:1015B00020382346B2D13C46823480200E9BE25430
:1015C0000D9BE2540C9BE2540B9BE2540A9BE254A9
:1015D000099BE254089BE254079BE254069BE254A9
:1015E000059BE2546255A255227622742272227023
:1015F0002346083B1A702346103B1A702346183BBB
:101600001A702346203B1A702346283B1A70234643
:10161000303B1A702346383B1A702346403B1A7001
:101620002346483B1A702346503B1A702346583BCA
:101630001A702346603B1A702346683B1A70234693
:10164000703B1A702346783B1A706318803C2270F6
:1016500020381C46B2D13C46833480200E9BE25495
:101660000D9BE2540C9BE2540B9BE2540A9BE25408
:10167000099BE254089BE254079BE254069BE25408
:10168000059BE2546255A255227622742272227082
:101690002346083B1A702346103B1A702346183B1A
:1016A0001A702346203B1A702346283B1A702346A3
:1016B000303B1A702346383B1A702346403B1A7061
:1016C0002346483B1A702346503B1A702346583B2A
:1016D0001A702346603B1A702346683B1A702346F3
:1016E000703B1A702346783B1A706318803C227056
:1016F00020381C46B2D13C46843480200E9BE254F4
:101700000D9BE2540C9BE2540B9BE2540A9BE25467
:10171000099BE254089BE254079BE254069BE25467
:10172000059BE2546255A2552276227422722270E1
:101730002346083B1A702346103B1A702346183B79
:101740001A702346203B1A702346283B1A70234602
:10175000303B1A702346383B1A702346403B1A70C0
:101760002346483B1A702346503B1A702346583B89
:101770001A702346603B1A702346683B1A70234652
:10178000703B1A702346783B1A706318803C2270B5
:1017900020381C46B2D13C46853480200E9BE25452
:1017A0000D9BE2540C9BE2540B9BE2540A9BE254C7
:1017B000099BE254089BE254079BE254069BE254C7
:1017C000059BE2546255A255227622742272227041
:1017D0002346083B1A702346103B1A702346183BD9
:1017E0001A702346203B1A702346283B1A70234662
:1017F000303B1A702346383B1A702346403B1A7020
:101800002346483B1A702346503B1A702346583BE8
:101810001A702346603B1A702346683B1A702346B1
:10182000703B1A702346783B1A706318803C227014
:1018300020381C46B2D13C46863480200E9BE254B0
:101840000D9BE2540C9BE2540B9BE2540A9BE25426
:10185000099BE254089BE254079BE254069BE25426
:10186000059BE2546255A2552276227422722270A0
:101870002346083B1A702346103B1A702346183B38
:101880001A702346203B1A702346283B1A702346C1
:10189000303B1A702346383B1A702346403B1A707F
:1018A0002346483B1A702346503B1A702346583B48
:1018B0001A702346603B1A702346683B1A70234611
:1018C000703B1A702346783B1A706318803C227074
:1018D00020381C46B2D17F37802004463A540E9BF4
:1018E000FA540D9BFA540C9BFA540B9BFA540A9B26
:1018F000FA54099BFA54089BFA54079BFA54069B26
:10190000FA54059BFA547A55BA553A763A743A72B3
:101910003A703B46083B1A703B46103B1A703B46F8
:10192000183B1A703B46203B1A703B46283B1A7006
:101930003B46303B1A703B46383B1A703B46403BB7
:101940001A703B46483B1A703B46503B1A703B4668
:10195000583B1A703B46603B1A703B46683B1A7016
:101960003B46703B1A707B18783F3A70203C1F460C
:10197000B4D100F025F8039A434B1A614148029C08
:101980000460019D05600499009E0E600D60056075
:1019900006600D6005600E600D60056006600D60FC
:1019A00005600E600D6005600E600D6005600E60E4
:1019B0000D6005600E600D600C601A600FB0F0BD28
:1019C000F0B585B0012004038103029180050190E8
:1019D0000020CD4D2B4E04905038C0B2002100F0B5
:1019E000BDF9019B284F3B61042030603460029AAE
:1019F0003260314610390C60346032600C60346003
:101A000032600C60346032600C60346032600C60B4
:101A1000346032600C60346032600C60346032607C
:101A20000C6008603B603B613060346032600C6089
:101A3000346032600C60346032600C6034600A6084
:101A40000C60346032600C60346032600C60346072
:101A500032600C60346032600C6008603B6080274C
:101A600003952878012100F079F97F1E0835002FB1
:101A7000F7D1039D6D1C0498401C0828ABD105B01C
:101A8000F0BDC046A0120A4090320A40F0B58BB0BB
:101A9000099103900620082B03D1042102910446EA
:101AA0000BE05C07D908002C00D0491C5C080294AC
:101AB0006143CCB2002C00D11BE110990A91203A6D
:101AC000D1B2009148438C490D180026039F019321
:101AD00008E00746079C069D641E6D1C761C002CC2
:101AE00000D106E1082B284615D0182B09D0102B61
:101AF0000CD00C2B00D0FCE00C200099484381490D
:101B000007E02420009948437C4902E00098000146
:101B10007B490818801908900596069507940723B5
:101B2000099A114619400126304688400497F9B2B7
:101B3000C900754C6418D1B2CD08675D3A460243BE
:101B400087430A980028114600D039460A98002891
:101B500000D017460020089A10560890C00700D001
:101B6000394661550998401CC1B21840324682403E
:101B7000CD08675D3946114397430A9800280A4605
:101B800000D03A460A98002800D00F4608988007EF
:101B900000D53A4662550998801CC1B218403246B9
:101BA0008240CD08675D3946114397430A98002863
:101BB0000A4600D03A460A98002800D00F460898F6
:101BC000400700D53A4662550998C01CC1B218407A
:101BD00032468240CD08675D3946114397430A98E3
:101BE00000280A4600D03A460A98002800D00F463E
:101BF0000898000700D53A4662550998001DC1B201
:101C0000184032468240CD08675D394611439743FC
:101C10000A9800280A4600D03A460A98002800D0C0
:101C20000F460898C00600D53A4662550998401DEF
:101C3000C1B2184032468240CD08675D3946114333
:101C400097430A9800280A4600D03A460A98002886
:101C500000D00F460898800600D53A46625509988C
:101C6000801DC1B2184032468240CD08675D3946BA
:101C7000114397430A9800280A4600D03A460A982A
:101C8000002800D00F460898400600D53A46625515
:101C90000998C01D03409E40C0B2C308E55C2946B8
:101CA0003143B5430A980028084600D028460A9ACE
:101CB000002A059E049A00D00D460899002900DAF2
:101CC0002846E054501C019B082B00D101E7C1B20B
:101CD000039A891A029A9142079C069D02D1099A99
:101CE00008320992029A9142039F00D1F4E6074616
:101CF000F2E60BB0F0BDC0460829000094350000A4
:101D0000A42F0000302B000060002020F0B583B02D
:101D10000646082B01D05D0800E0062517783846F6
:101D20002038C0B25E2817D808980190541C02953C
:101D300001980090F0B2FAB20D461F46FFF7A6FEDA
:101D40003B462946029D7619601C27783A46203A80
:101D5000D2B25F2A0446EBD303B0F0BDF0B5012642
:101D6000B205A14B002901D01A6000E01A61204998
:101D700004240C6135030D61B60347B2002F01D472
:101D80000E6100E00E600D600D61470601D40E612A
:101D900000E00E600D600D61870601D40E6100E069
:101DA0000E600D600D61C70601D40E6100E00E608B
:101DB0000D600D61070701D40E6100E00E600D603B
:101DC0000D61470701D40E6100E00E600D600D61EA
:101DD000870701D40E6100E00E600D600D61C00741
:101DE00001D10E6100E00E600D600C601A60F0BD64
:101DF00090120A4080B5C2B20005010F10311420C4
:101E000000F00AF880BD80B5C2B20005010F1420B1
:101E100000F002F880BD0000B0B543189C18464B96
:101E20001D68ED0708D01D68ED0705D01D68ED079A
:101E300002D01D68ED07F3D17E259D611D68ED0779
:101E400008D01D68ED0705D01D68ED0702D01D689C
:101E5000ED07F3D1FF259D611D68ED0708D01D68D2
:101E6000ED0705D01D68ED0702D01D68ED07F3D121
:101E700006259D611D68ED0708D01D68ED0705D09A
:101E80001D68ED0702D01D68ED07F3D19861186851
:101E9000C00708D01868C00705D01868C00702D06E
:101EA0001868C007F3D1002098611868C00708D0EF
:101EB0001868C00705D01868C00702D01868C007A6
:101EC000F3D199611868C00708D01868C00705D019
:101ED0001868C00702D01868C007F3D19A61186863
:101EE000C00708D01868C00705D01868C00702D01E
:101EF0001868C007F3D11148001B010A99611968DD
:101F0000C90708D01968C90705D01968C90702D0E0
:101F10001968C907F3D1C0B298611868C00708D022
:101F20001868C00705D01868C00702D01868C00735
:101F3000F3D1EF209861B0BD08111040FBFE000006
:101F400080B502461E2800D31E2206200021FFF77E
:101F500063FF80BD10B50124A0070549FEF742F9D3
:101F6000044800210160044801682143016010BD5C
:101F7000F04200008011004000110040B0B5144A4A
:101F80008523D3600121CC031248046013610B0444
:101F90000360114B82241C65104D5D659C65DD65F9
:101FA000812454631C605C60146094601463146446
:101FB0009C610246303A890511600246403A084B5E
:101FC0001360084A0260084801600164B0BDC04661
:101FD00088804240D0120A400480424082000400BF
:101FE000075020000750600090320A40F0B581B0E1
:101FF0001C4C1D492046FEF7C5F91C492046FEF73A
:1020000017F91B4801681B4A0A4002600025009529
:10201000204629462A462B46FEF7A0F920462946A7
:102020002A46FEF78DF97D20C600204631462A4615
:10203000FEF7A0F901270097204629462A462B469D
:10204000FEF78CF9204629463A46FEF779F92046F4
:1020500031463A46FEF78EF9074887600321016052
:1020600001B0F0BD00208640F8420000FC420000B4
:10207000043886407F00FFFF003186400C48002175
:1020800001600320C1430B480246083A13680B4025
:1020900013600168012291430160110203688B43C0
:1020A00003601103001F02680A4302607047C046C4
:1020B00008030B4008010B4010B5124C1249204692
:1020C000FEF792F911492046FEF76AF90321CA0387
:1020D0000F480368934303600269274B13401A3388
:1020E000036142690A433C218A43426141680122FB
:1020F00011404368934359184160016811430160DE
:1021000010BDC04600001040104300001243000004
:102110000011104010B5144C14492046FEF764F924
:1021200013492046FEF73CF90321CA03114803680E
:10213000934303600269104B13401A3303614269F1
:102140000A433C218A4342614168012211404368AD
:102150009343591841609102084B1C680C431C6062
:1021600001681143016010BD00801040044300006D
:1021700006430000009110400000FFFF289010402F
:1021800080B500F013F8FFF7F9FEFFF777FFFFF7D0
:102190002DFFFFF7BFFFFFF78FFFFFF7DBFEB82034
:1021A000014900220A5480BDE004202070B50C488B
:1021B0000C4941600C4A51600C4B59600C4C6160F9
:1021C0000C4D69600C4E71600C4901601160196022
:1021D0002160296031601020FEF724F870BDC046F0
:1021E00000080A40030000B100280A400028864089
:1021F0000088104000081040000800400100002640
:10220000B0B5D34C2178012810D100290ED0D14D82
:102210002A78521C2A70D2B2032A0CD328202070AC
:102220003520FFF7F0FD00202870B0BD002802D057
:10223000C84A0023137024294BD84900794489885F
:1022400049008F4424002D004600460049005700F5
:10225000B80069007100460046007A004600C300DD
:10226000D40046004600460080008B0046008F00E8
:10227000970046009A00A00046004600E000E900F2
:10228000A600AF004600460046004600F4000128C4
:1022900000D0D0E0012020700220FFF7B4FDB0BDD7
:1022A000801E092817D84000784480884000874461
:1022B0000900C50048013500EA0012004000120084
:1022C00012004000022020700320FFF79CFDA6486A
:1022D0002BE101202070B0BDFB210140032900D07B
:1022E000B2E0052020700120FFF784FD0C20FFF7ED
:1022F0008AFDB0BDC01E0528EDD8C04678440079DF
:1023000040008744035D02025D03E4E7082020707B
:102310000F20FFF778FDB0BD07280AD112202070EA
:102320001F20FFF770FDB0BD082800D1B9E00728D5
:10233000D1D1032020700420E3E00128CBD10C2070
:1023400020701320EEE0072802D0042800D0B3E06C
:10235000132020702020FFF756FDB0BD072800D0C5
:10236000E5E0B1E0072878D1162020702320FFF7A0
:102370004AFDB0BD072878D0D9E01920207026206A
:10238000FFF741FDB0BD072875D11A202070272026
:10239000C8E0092800D19DE00A2800D0A5E02E2041
:1023A000212199E0092800D19AE00A2800D09CE078
:1023B0003020232196E0082800D19FE007288AD109
:1023C000072020700E20FFF71EFDB0BD042805D0A9
:1023D000082800D1AEE0072800D07CE70E2020704E
:1023E0000220FFF707FD1620FFF70DFDB0BD042802
:1023F00005D0082800D192E0072800D06BE7102014
:10240000207018207DE0072800D090E01D2020706B
:102410002A20FFF7F8FCB0BD0A287AD0092800D09E
:1024200059E71E2020702B20FFF7EDFCB0BD0728D8
:102430002FD026212EE0032800D04CE70420207066
:102440000B20FFF7E0FCB0BD082800D043E70620D2
:1024500020700D20FFF7D7FCB0BD1720207024207E
:10246000FFF7D1FC3C48FDF7DDFE18202070252049
:10247000FFF7C9FCB0BD1B2020702820FFF7C3FC6C
:102480003748FDF7CFFE1C2020702920FFF7BBFC4A
:10249000B0BD25212170072801D0332042E0322031
:1024A00040E00A2020701120FFF7ADFC2D48FDF719
:1024B000B9FE0B202070B0BD142020702120FFF742
:1024C000A2FC2548FDF7AEFE152020702220FFF764
:1024D0009AFCB0BD2D2020212170FFF794FC04E070
:1024E0002F2022212170FFF78EFC1C48FDF79AFE59
:1024F000242020703120FFF786FCB0BD0920207019
:102500001020FFF780FC1448FDF78CFE002020709F
:10251000B0BD1F2020702C20FFF775FCB0BD11202E
:1025200020701920FFF76FFC0B48FDF77BFE0120A0
:102530002070B0BD0F2020701720FFF764FC084802
:10254000F3E70D2020701520FFF75DFCB0BDC046FD
:102550009C0520209D05202000D8B8050040420F92
:102560000020A10700B0710B00688909F0B583B0A5
:102570003548812102910160344E0227376037646B
:102580000125356137603560A0242046FDF74AFEFD
:1025900037612046FDF746FE35612046FDF742FED5
:1025A0006820FEF72FF80024FDF7BCFF012848D073
:1025B0006420FEF727F8FDF7B5FF012841D0224837
:1025C0000299016037603764356137603560019486
:1025D000A0242046FDF726FE37612046FDF722FEA7
:1025E00035612046019CFDF71DFE6920FEF70AF8C3
:1025F000FDF798FF012824D0FDF700FF044612489C
:10260000029901603760376435613761A02001901D
:10261000FDF708FE376035600198FDF703FE356170
:102620003760029808490860376037643561376160
:102630003560019D2846FDF7F5FD37602846FDF71A
:10264000F1FD204603B0F0BD0880424090120A40E0
:1026500082B0FEF7EBFBFEF751F9FFF791FD142076
:10266000FFF76EFCA0484622A04D034606E0AA6193
:10267000CB1CCA78014627318B422AD019462B68D9
:10268000DB0708D02B68DB0705D02B68DB0702D0FF
:102690002B68DB07F3D1D2B2AA614A782B68DB073B
:1026A00008D02B68DB0705D02B68DB0702D02B682E
:1026B000DB07F3D1AA618A782B68DB07D7D02B68B8
:1026C000DB07D4D02B68DB07D1D02B68DB07F3D135
:1026D000CDE7002103E00B20FFF792FD3146019189
:1026E000012600960024082320462146804A1F46E2
:1026F000FFF70CFB00960C23204639467C4F3A46E8
:10270000FFF704FB00961421102320463A46FFF7FA
:10271000FDFA00962421182320463A46FFF7F6FAE0
:10272000FFF74EF97348FDF77DFDFFF71FFF0646E3
:1027300000285AD00198C0B2864256D048216E4B2C
:102740001A4602E0A961021D017910462A68D207E3
:1027500008D02A68D20705D02A68D20702D02A6892
:10276000D207F3D1C9B2A96141782A68D20708D04B
:102770002A68D20705D02A68D20702D02A68D20771
:10278000F3D1A96181782A68D20708D02A68D207D4
:1027900005D02A68D20702D02A68D207F3D1A961EE
:1027A00019461331C21C8A420DD0C1782A68D2075B
:1027B000C8D02A68D207C5D02A68D207C2D02A68F2
:1027C000D207F3D1BEE72868C00708D02868C00741
:1027D00005D02868C00702D02868C007F3D1710966
:1027E0003009052942D3373041E0002E314600D070
:1027F00075E7434800780028314600D16FE70B2881
:10280000314600D16BE73D490868401C0860FA2852
:10281000314600D263E7394804604521394B1A46F6
:1028200007E0A961821C817818461A30824200D1E3
:1028300051E710462A68D20708D02A68D20705D087
:102840002A68D20702D02A68D207F3D1C9B2A96197
:1028500041782A68D207E4D02A68D207E1D02A68F2
:10286000D207DED02A68D207F3D1DAE73030A86188
:102870002868C00708D02868C00705D02868C007A6
:1028800002D02868C007F3D10F21304608400A283B
:1028900001D3373000E03030A8612868C00708D085
:1028A0002868C00705D02868C00702D02868C0077C
:1028B000F3D10D20A8612868C00708D02868C00798
:1028C00005D02868C00702D02868C007F3D10A20C5
:1028D000A8613046FDF750FF08490C6000283146DA
:1028E00000D0F9E6FBE6C0461C430000089110400A
:1028F0005F43000000D4300063430000A0052020A7
:102900009C0520204443000000000000000000005F
:10291000002F000000000700070000147F147F1440
:1029200000242A7F2A1200626408132300364955C6
:10293000225000000503000000001C22410000009E
:1029400041221C000014083E08140008083E080834
:10295000000000A06000000808080808000060608F
:102960000000002010080402003E5149453E0000CE
:10297000427F4000004261514946002141454B31B0
:10298000001814127F10002745454539003C4A497C
:1029900049300001710905030036494949360006EE
:1029A0004949291E00003636000000005636000056
:1029B00000081422410000141414141400004122D1
:1029C000140800020151090600324959513E007CA9
:1029D0001211127C007F49494936003E4141412293
:1029E000007F4141221C007F49494941007F09097C
:1029F0000901003E4149497A007F0808087F00002C
:102A0000417F4100002040413F01007F08142241E6
:102A1000007F40404040007F020C027F007F04089E
:102A2000107F003E4141413E007F09090906003EFA
:102A30004151215E007F0919294600464949493123
:102A40000001017F0101003F4040403F001F204046
:102A5000201F003F4038403F006314081463000704
:102A60000870080700615149454300007F4141005B
:102A700000552A552A55000041417F0000040201FB
:102A800002040040404040400000010204000020D9
:102A900054545478007F4844443800384444442017
:102AA00000384444487F00385454541800087E09C4
:102AB00001020018A4A4A47C007F0804047800008C
:102AC000447D4000004080847D00007F1028440049
:102AD0000000417F4000007C04180478007C08045A
:102AE000047800384444443800FC24242418001896
:102AF000242418FC007C0804040800485454542082
:102B000000043F444020003C4040207C001C20400A
:102B1000201C003C4030403C004428102844001C4D
:102B2000A0A0A07C004464544C4414141414141445
:102B30000000000000000000000000000000FC0099
:102B40000000000002000000000C020C0200000067
:102B50000000000090D0BCD0BC9000030003000037
:102B60001824FE448C000302070201001824D8B088
:102B70004C80000300010201C038E438E00001028B
:102B80000201020208060000000000000000000030
:102B9000000000F80402000000010204000204F832
:102BA00000000004020100009060F8609000000046
:102BB000010000002020FC20200000000100000097
:102BC0000000000000000806000000002020202077
:102BD00020000000000000000000000000000002D3
:102BE000000000000080601C0200040300000000E0
:102BF000F8040404F8000102020201000008FC00CD
:102C0000000000020302000018844424180003029C
:102C10000202020008042424D8000102020201007A
:102C200040B088FC80000000000302003C24242403
:102C3000C400010202020100F824242CC000010299
:102C4000020201000C04E41C040000000300000068
:102C5000D8242424D800010202020100384444444C
:102C6000F800000302020100000010000000000054
:102C7000020000000000200000000000060000002C
:102C80000020508804020000000001029090909003
:102C900090000000000000000002048850200002A4
:102CA000010000001804C424180000000200000005
:102CB000F804E494F80001020202020000E09CF033
:102CC000800002030000030204FC2424D800020355
:102CD00002020100F80404040C00010202020100D7
:102CE00004FC0404F80002030202010004FC247442
:102CF0000C0002030202030004FC24740C00020313
:102D000002000000F0080444CC400001020201006F
:102D100004FC2020FC040203000003020404FC0461
:102D20000400020203020200000404FC040406047E
:102D30000403000004FC24D00C040203020003027C
:102D400004FC04000000020302020203FC3CC03C3D
:102D5000FC0003000300030004FC30C4FC04020375
:102D600002000300F8040404F8000102020201005A
:102D700004FC24241800020302000000F8848404E8
:102D8000F80001020207050004FC24649800020315
:102D900002000302182424448C00030202020100F2
:102DA0000C04FC040C0000020302000004FC000000
:102DB000FC04000102020100047C80E01C0400000D
:102DC000030000001CE03CE01C00000300030000C6
:102DD000049C609C0400020300030200041CE01C2D
:102DE00004000002030200000C84641C04000203BF
:102DF000020203000000FE020200000007040400BB
:102E0000000E30C00000000000010200000202FEBF
:102E10000000000404070000000402040000000099
:102E20000000000000000000000008080808080872
:102E30000000020000000000000000000040A0A010
:102E4000C00000010202030204FC2020C0000003B5
:102E50000202010000C02020600000010202020006
:102E600000C02024FC0000010202030200C0A0A058
:102E7000C0000001020202000020F8242404000225
:102E8000030202000040A0A0602000070A0A0A0412
:102E900004FC2020C0000203020003020020E40022
:102EA0000000000203020000000020E40000080807
:102EB0000807000004FC80E0202002030200030257
:102EC0000404FC000000020203020200E020E020F3
:102ED000C00003000300030020E02020C000020324
:102EE0000200030200C02020C00000010202010015
:102EF00020E02020C000080F0A02010000C02020AE
:102F0000E0000001020A0F0820E040202000020338
:102F1000020000000060A0A02000000202020300E6
:102F20000020F820000000000102020020E0002044
:102F3000E00000010202030220E020806020000087
:102F4000030100006080E0806000000300030000D7
:102F500020608060200002030003020020E0208047
:102F600060200808070100000020A0602000000287
:102F700003020200000020DE02000000000704003F
:102F8000000000FF00000000000F00000002DE2033
:102F90000000000407000000020102040402000017
:102FA0000000000000000000000000000000000021
:102FB00000000000000000F80000000000000033E6
:102FC0003000000000100C06100C0600000000008D
:102FD0000000000040C07840C0784000043F040476
:102FE0003F040400007088FC08300000001820FF37
:102FF000211E0000F008F000E018000000211C0372
:103000001E211E0000F00888700000001E212324ED
:103010001927211010160E0000000000000000000B
:1030200000000000000000E018040200000000079B
:103030001820400000020418E000000000402018A2
:1030400007000000404080F0804040000202010F75
:1030500001020200000000F0000000000101011F59
:1030600001010100000000000000000080B07000BD
:10307000000000000000000000000000000101014D
:1030800001010101000000000000000000303000DC
:1030900000000000000000008060180400601806B6
:1030A0000100000000E010080810E000000F1020F0
:1030B00020100F00001010F8000000000020203F3A
:1030C00020200000007008080888700000302824C4
:1030D0002221300000300888884830000018202065
:1030E00020110E000000C02010F80000000704248A
:1030F000243F240000F808888808080000192120CF
:1031000020110E0000E0108888180000000F112028
:1031100020110E0000380808C83808000000003FE1
:10312000000000000070880808887000001C222140
:1031300021221C0000E010080810E00000003122ED
:1031400022110F00000000C0C0000000000000308D
:1031500030000000000000800000000000008060DF
:103160000000000000008040201008000001020460
:103170000810200040404040404040000404040447
:103180000404040000081020408000000020100803
:1031900004020100007048080808F0000000003038
:1031A00036010000C030C828E810E00007182724C6
:1031B00023140B000000C038E0000000203C230274
:1031C0000227382008F8888888700000203F2020D7
:1031D00020110E00C0300808080838000718202009
:1031E0002010080008F808080810E000203F202000
:1031F00020100F0008F88888E8081000203F2020E1
:103200002320180008F88888E8081000203F2000D4
:1032100003000000C030080808380000071820200C
:10322000221E020008F808000008F808203F2101CB
:1032300001213F20000808F8080800000020203F76
:103240002020000000000808F8080800C0808080E6
:103250007F00000008F888C028180800203F2001DF
:103260002638200008F8080000000000203F202039
:103270002020300008F8F800F8F80800203F003F50
:10328000003F200008F830C00008F808203F200068
:1032900007183F00E01008080810E0000F10202079
:1032A00020100F0008F808080808F000203F21014E
:1032B00001010000E01008080810E0000F182424A5
:1032C00038504F0008F8888888887000203F200018
:1032D000030C3020007088080808380000382021CE
:1032E00021221C00180808F8080818000000203FD8
:1032F0002000000008F808000008F808001F20203F
:1033000020201F000878880000C83808000007380F
:103310000E010000F80800F80008F800033C070060
:10332000073C0300081868808068180820302C03C8
:10333000032C30200838C800C83808000000203F9F
:103340002000000010080808C8380800203826218E
:1033500020201800000000FE020202000000007F92
:1033600040404000000C30C00000000000000001A0
:103370000638C00000020202FE000000004040408B
:103380007F000000000004020202040000000000B0
:10339000000000000000000000000000808080802D
:1033A0008080808000020204000000000000000015
:1033B00000000000000080808080000000192422AE
:1033C00022223F2008F8008080000000003F1120EA
:1033D00020110E000000008080800000000E1120EF
:1033E00020201100000000808088F800000E1120CD
:1033F00020103F200000808080800000001F2222DB
:1034000022221300008080F0888888180020203F46
:10341000202000000000808080808000006B949459
:103420009493600008F8008080800000203F210015
:1034300000203F2000809898000000000020203FDE
:1034400020200000000000809898000000C08080CC
:10345000807F000008F8000080808000203F240268
:103460002D302000000808F8000000000020203F58
:10347000202000008080808080808000203F20000D
:103480003F20003F8080008080800000203F21009E
:1034900000203F200000808080800000001F20204E
:1034A00020201F00808000808000000080FFA1207D
:1034B00020110E000000008080808000000E11208E
:1034C00020A0FF80808080008080800020203F211D
:1034D00020000100000080808080800000332424D0
:1034E00024241900008080E0808000000000001F7C
:1034F000202000008080000000808000001F20202D
:1035000020103F20808080000080808000010E30ED
:103510000806010080800080008080800F300C034E
:103520000C300F0000808000808080000020312E51
:103530000E312000808080000080808080818E702D
:103540001806010000808080808080000021302CDF
:103550002221300000000000807C020200000000F8
:10356000003F404000000000FF000000000000009D
:10357000FF0000000002027C800000000040403F8D
:103580000000000000060101020204040000000027
:10359000000000000000000000000000000000002B
:1035A000000000000000000000000000000000001B
:1035B00000000000000000000000000000F0F0F03B
:1035C000000000000000000000017F01000000007A
:1035D00000000000001C1C1C0000000000008060B7
:1035E000301C8C60301C0C0000000000000000004B
:1035F00000000000000000000000000000000000CB
:10360000000000E00000000000E000000086E69FEF
:1036100086868686E69F860000011F010101010162
:103620001F010100000080C06020F820E0C0000001
:10363000000003070C18FF70E18100000000070F75
:1036400010107F100F0700008060206080000000D5
:10365000E02000000F3020309F70DC371030C000B9
:103660000000100E03000718101807000000C0200B
:1036700020E0C0000000000080E01F38E88703C49D
:103680003C040000070F1810100B070D1010080065
:1036900000808C4C3800000000000000000000009A
:1036A000000000000000000000000000000000001A
:1036B0000000000000000000000080E0300804006E
:1036C0000000000000FEFF010000000000000000FC
:1036D0000000030F1820400000040830E0800000C4
:1036E000000000000000000001FFFE0000000000DC
:1036F000004020180F030000000000000000000040
:103700000000C00000000000004266663C18FF1880
:103710003C6666420000000000000300000000005C
:1037200000000000000080000000000000101010E9
:103730001010FF1010101010000000000000030017
:103740000000000000000000000000000000000079
:1037500000000000000000000000000000808C4C11
:103760003800000000000000000000000000000021
:1037700000000000001010101010101010101000A9
:103780000000000000000000000000000000000039
:103790000000000000000000000000000000000029
:1037A0000000000000001C1C1C00000000000000C5
:1037B0000000000000000000E0380C0000000000E5
:1037C00080701C03000000000060380E0100000043
:1037D00000000000000080C060202060C080000069
:1037E00000FEFF010000000001FFFE000001070EC7
:1037F000181010180E0701000000808080C0E00043
:10380000000000000000000000FFFF0000000000BA
:1038100000001010101F1F1010100000008040202A
:1038200020202060C080000000030300804020387A
:103830001F070000001C1A1918181818181F00007C
:103840000080C020202060C0800000000003030032
:103850001010182FE780000000070F10101010182C
:103860000F070000000000000000C0E0F0000000B2
:1038700000C0B088868180FFFF80800000000000CB
:103880000010101F1F1010000000E06060606060FA
:103890006060000000003F1008080818F0E0000019
:1038A00000070B101010101C0F030000000080C058
:1038B00040202020E0C0000000FCFF211008080884
:1038C00018F0E0000001070C18101010080F03009A
:1038D0000000C0E06060606060E060000000030025
:1038E0000000E0180700000000000000001F1F009B
:1038F000000000000080C0602020202060C0800008
:103900000087EF2C1818303068CF830000070F08AD
:1039100010101010180F07000000C0C02020202039
:10392000C0800000001F3F604040402010FFFE00AC
:1039300000000C1C101010080F0300000000000015
:10394000000000000000000000000000000E0E0E4D
:103950000000000000000000001C1C1C0000000013
:103960000000000000000000000000000000000057
:10397000000C0C000000000000000000005838009F
:103980000000000000000000000000804020100047
:103990000000102844820100000000000000000028
:1039A00000000102040810000000000000000000F8
:1039B00000000000008484848484848484848400DF
:1039C00000000000000000000000000000001020C7
:1039D00040800000000000000000000000000182A4
:1039E000442810000000100804020100000000003C
:1039F00000C020201010101030E0C00000030300B1
:103A000000F010080C070300000000001C1C1C0044
:103A100000000000000000C0406020202040C000E6
:103A200000FCFF01F00E03C1FE03807F0001070EC2
:103A300008111110110904020000000080E0E000EC
:103A4000000000000000807C4340477FF8800000B9
:103A500010181F1000000000131F1C1020E0E020B1
:103A600020202060C080000000FFFF101010101800
:103A70002FE78000101F1F1010101010180F0700E4
:103A8000000080C0402020202060E00000FCFF01FA
:103A900000000000000001000001070E18101010C7
:103AA0000804030020E0E02020202040C080000027
:103AB00000FFFF000000000001FFFE00101F1F10AC
:103AC000101018080E07010020E0E0202020202020
:103AD0002060800000FFFF101010107C000000002C
:103AE000101F1F10101010101018060020E0E0200A
:103AF000202020206060800000FFFF101010107C4C
:103B000000000100101F1F10000000000000000056
:103B1000000080C06020202040E0000000FCFF0189
:103B200000004040C0C140400001070E18101010B6
:103B30000F0F000020E0E0200000000020E0E02067
:103B400000FFFF101010101010FFFF00101F1F10BB
:103B500000000000101F1F100000202020E0E020C7
:103B6000202000000000000000FFFF000000000017
:103B700000001010101F1F101010000000000000A7
:103B8000202020E0E020202000000000000000FFB6
:103B9000FF0000000060E0808080C07F3F000000E8
:103BA00020E0E020000020A06020200000FFFF3087
:103BB000187CE3C000000000101F1F10000001135C
:103BC0001F1C181020E0E020000000000000000092
:103BD00000FFFF000000000000000000101F1F1089
:103BE000101010101018060020E0E0E000000000A7
:103BF000E0E0E02000FF013FFEC0E01E01FFFF000B
:103C0000101F1000031F0300101F1F1020E0E0C052
:103C1000000000000020E02000FF0003071C78E007
:103C20008000FF00101F100000000000030F1F00A5
:103C3000000080C060202060C080000000FEFF0106
:103C40000000000000FFFE000001070E1810101811
:103C50000C07010020E0E0202020202060C0800030
:103C600000FFFF2020202020301F0F00101F1F10FA
:103C70000000000000000000000080C06020206004
:103C8000C080000000FEFF010000000000FFFE00F9
:103C90000001070E1111133C7C67210020E0E02099
:103CA0002020202060C0800000FFFF101030F0D0E6
:103CB000080F0700101F1F10000000030F1C10103A
:103CC0000080C060202020204040E00000070F0C52
:103CD0001818303060E08100001F0C081010101020
:103CE000180F07008060202020E0E0202020608066
:103CF0000100000000FFFF000000000100000000C4
:103D0000101F1F100000000020E0E0200000000055
:103D10000020E02000FFFF00000000000000FF0086
:103D200000070F1810101010100807002060E0E0C6
:103D30002000000020E060200000077FF880008065
:103D40007C03000000000000071F1C0700000000AB
:103D500020E0E02000E0E0200020E0200007FFF865
:103D6000E01FFFFCE01F00000000031F0300011F15
:103D700003000000002060E0A0000020E0602000C0
:103D8000000000038F7CF8C6010000000010181E20
:103D9000130001171F1810002060E0E02000000051
:103DA00020E06020000001073EF8E0180700000056
:103DB00000000010101F1F10100000000080602085
:103DC000202020A0E0E0200000000000C0F03E0F16
:103DD0000300000000101C1F171010101018060020
:103DE0000000000000FC04040404040000000000C3
:103DF00000FF00000000000000000000007F4040C5
:103E000040404000000010E0000000000000000002
:103E100000000000031C60800000000000000000A3
:103E2000000000030C70800000000404040404FC83
:103E30000000000000000000000000FF0000000083
:103E4000000040404040407F0000000000000010A3
:103E5000080C040C08100000000000000000000026
:103E60000000000000000000000000000000000052
:103E70000000000000000000000000000000000042
:103E80000000000000000000808080808080808032
:103E9000808080800000000404080800000000000A
:103EA0000000000000000000000000000000000012
:103EB0000000000000000000000000000000000002
:103EC00000000000000098D844642424FCF800009E
:103ED000000F1F18101010081F1F10180020E0F00E
:103EE00000000000000000000000FFFF18080404AC
:103EF0000CF8F00000001F0F18101010180F03002E
:103F000000000000000000000000000000E0F818C1
:103F10000404043C3800000000030F0C10101010C3
:103F2000080600000000000000000020E0F0000093
:103F300000E0F81C04040408FFFF000000030F1851
:103F4000101010081F0F0800000000000000000003
:103F5000000000000000E0F8484444444C78700041
:103F60000000030F0C1810101008040000000000DF
:103F700080C0602020E0C00000040404FFFF0404AF
:103F800004040000000010101F1F1010100000009B
:103F9000000000000000000000000000000070F8B9
:103FA0008C04048CF874040C007076CF8D8D8D8990
:103FB000C87870000020E0F0000000000000000061
:103FC0000000FFFF08040404FCF8000000101F1F9D
:103FD000100000101F1F10000000000000606000B3
:103FE000000000000000040404FCFC0000000000CD
:103FF00000001010101F1F10101000000000000023
:10400000000000606000000000000000040404FCE8
:10401000FC0000000000C0C08080C07F3F000000A6
:104020000020E0F000000000000000000000FFFFA2
:1040300080C0F41C0404000000101F1F1100031FA7
:104040001C1010000000202020E0F0000000000004
:104050000000000000FFFF00000000000000101042
:10406000101F1F10101000000000000000000000D2
:104070000000000004FCFC0804FCFC0804FCFC003C
:10408000101F1F10001F1F10001F1F100000000036
:1040900000000000000000000004FCFC080804040C
:1040A000FCF8000000101F1F100000101F1F100060
:1040B00000000000000000000000000000E0F01818
:1040C0000C04040C18F0E00000030F0C101010108A
:1040D0000C0F0300000000000000000000000000C2
:1040E0000004FCFC080404040CF8F0000080FFFF4E
:1040F000889010101C0F030000000000000000005A
:104100000000000000E0F81C04040408F8FC0000B3
:1041100000030F1810109088FFFF800000000000BF
:104120000000000000000000040404FCFC1008046F
:10413000040C0C001010101F1F10101000000000C5
:1041400000000000000000000000000000003078C7
:10415000CCC48484840C1C0000001E1810101011A4
:10416000190F06000000000000C000000000000061
:1041700000040404FFFF0404040000000000000029
:104180000F1F1010100C00000000000000000000C5
:10419000000000000004FCFE00000004FCFE000023
:1041A00000000F1F181010081F0F0800000000006B
:1041B000000000000000000000040C3CFCC40000F3
:1041C000C43C0C0400000000010F1E0E01000000A2
:1041D000000000000000000000000000043CFCC4DF
:1041E00000E47CFC84807C040000071F07000007BB
:1041F0001F07000000000000000000000000000099
:104200000004041C7CE4C0341C0404000010101CD6
:104210001601131F1C181000000000000000000011
:104220000000000000040C3CFCC400C43C0404007A
:104230000000C080C1370E01000000000000000037
:10424000000000000000000000001C0404C4F47C16
:104250001C0400000000101C1F17111010180E0085
:1042600000000000000000F80C0400000000000046
:10427000001028EF00000000000000000000003FD8
:1042800060400000000000000000FF00000000008F
:10429000000000000000FF0000000000000000001F
:1042A0000000FF00000000000000040CF800000007
:1042B0000000000000000000EF28100000000000D7
:1042C000000040603F0000000000000000180602EF
:1042D0000204081020203008000000000000000048
:1042E00000000000000000000000000000000000CE
:1042F000010500000000000008000000E8030000C5
:104300000000000004000000180000000030000061
:10431000040000001800000000300000466C6F77B9
:10432000657220436F6D70616E696F6E20537461AA
:104330007465204D616368696E65205265616479BA
:104340002E0D0A004576656E743A2054696D656FCE
:104350007574205472696767657265640D0A00415F
:104360004243004857204944205472696767657288
:1043700065643A2030780000884300000000202067
:08438000A8060000080100007E
:04000005000000C136
:00000001FF
