:020000040000FA
:10000000000320204D0100005101000053010000B9
:1000100000000000000000000000000000000000E0
:10002000000000000000000000000000550100007A
:1000300000000000000000005701000081080000DF
:100040005B0100005B0100005B0100005B01000040
:10005000010200005B0100005B0100005B01000089
:10006000000000005B0100005B01000000000000D8
:10007000000000005B0100005B010000C5080000FB
:100080005B0100005B0100005B0100005B01000000
:100090005B0100005B0100000000000000000000A8
:1000A0005B0100005B010000000000000000000098
:1000B0005B010000000000005B0100005B0100002C
:1000C00000F002F800F032F80CA030C8083824180C
:1000D0002D18671EA246AB4654465D46AC4201D180
:1000E00000F024F87E460F3EB6460FCC0126334280
:1000F00000D0FB1A3343A246AB461847A40E0000BB
:10010000B40E00000000000000230024002500269B
:10011000103A01D378C1FBD8520700D330C100D5C3
:100120000B6070471FB51FBD10B510BD00F03DF846
:100130001146FFF7F7FF00F04DFC00F055F803B44F
:10014000FFF7F2FF03BC00F0EBFB0000064800479E
:10015000FEE7FEE7FEE7FEE7FEE7FEE703480449A9
:10016000024A044B70470000C1000000000220203A
:10017000000320200002202010B5044603E000F018
:1001800017FC401C08D020780549641C0028F6D1D3
:100190000A2000F00DFC10BD0020C04310BD00007F
:1001A00060002020704770477047754600F024F8C3
:1001B000AE46050069465346C008C000854618B0E3
:1001C00020B5FFF7CBFF60BCB64600260027C0C5B0
:1001D000C0C5C0C5C0C5C0C5C0C5C0C5C0C5403DFF
:1001E000490849008D46704710B50446C046C046D0
:1001F0002046FFF7A4FF10BD0048704700002020F4
:1002000080B500F001F880BD04480068C0B20A283B
:1002100002D10348012101707047C0462010004000
:10022000F8012020B0B50A78032313400B4A845804
:100230000B4D2540EB18A92424061B1983500722D7
:1002400012064B6813401124240205599543EA18FD
:100250000251001949780161B0BDC046080800008C
:10026000FCFFFF00811E091F00BFFCD27047000089
:10027000F0B53C4A82183C4BC31808794E793B4D87
:100280003B4C002E23D0202804D00526F601002860
:1002900003D003E0374E002800D18826576F2F4047
:1002A00037435767976F2F4037439767566B264002
:1002B0005663966B264096630026566596658F2694
:1002C000F6435F6837405F609F6837409F608E7974
:1002D000096820280BD0002819D1491E5160D76E1B
:1002E0002F4088210F43D7661746703719E0491E03
:1002F0005160D16E29401F4F3943D166116F29409B
:1003000039431167012149071B4D174609E0490888
:100310005160D76E2F400521C9010F43D76617469C
:1003200070373C682C400C433C60D16A104C214033
:10033000D162116B214011630021D16411658F21BD
:10034000C943D46F0C40D4671C680C401C60064342
:10035000BD2030401168094B0B40C018801C106054
:10036000F0BDC046041800008418000024493E0077
:100370008888FDFF01040000FFFFFFCF4000FFCF92
:1003800010B507239B04194092008018024A845834
:100390009C436118815010BD3018000010B5029CBC
:1003A000A400001911431943014A815010BDC046F1
:1003B0005018000092008018014A81507047C046D2
:1003C0001018000010B50122120383180C789C60ED
:1003D0004B7883508978014A815010BD0C11000080
:1003E000B0B51122120283580124A34383500B8815
:1003F0008C781C438B882343094C1C408358094D3F
:100400001D40631983508B79CC791C43097A2143B1
:100410007E231940801842689A4351184160B0BD4C
:1004200018670000E798FDFF10B50122120383183A
:100430000C789C604978815010BD80B5C2B200052F
:10044000010F142000F002F880BD0000B0B5431881
:100450009C18464B1D68ED0708D01D68ED0705D0B8
:100460001D68ED0702D01D68ED07F3D17E259D6163
:100470001D68ED0708D01D68ED0705D01D68ED0764
:1004800002D01D68ED07F3D1FF259D611D68ED07C2
:1004900008D01D68ED0705D01D68ED0702D01D6866
:1004A000ED07F3D106259D611D68ED0708D01D6895
:1004B000ED0705D01D68ED0702D01D68ED07F3D1EB
:1004C00098611868C00708D01868C00705D0186878
:1004D000C00702D01868C007F3D1002098611868DF
:1004E000C00708D01868C00705D01868C00702D038
:1004F0001868C007F3D199611868C00708D0186858
:10050000C00705D01868C00702D01868C007F3D12B
:100510009A611868C00708D01868C00705D0186825
:10052000C00702D01868C007F3D11148001B010AA8
:1005300099611968C90708D01968C90705D01968F1
:10054000C90702D01968C907F3D1C0B29861186809
:10055000C00708D01868C00705D01868C00702D0C7
:100560001868C007F3D1EF209861B0BD08111040A2
:10057000FBFE000080B502461E2800D31E22062086
:100580000021FFF763FF80BD10B50124A0071149CA
:10059000FFF748FE10484168104A0A4021045118EC
:1005A000416081680E4A0A402106511881600D4958
:1005B00000220A604C600C494161032109020B4A88
:1005C000136A0B43136213680B43136001682143E2
:1005D000016010BD1C0F000000110040FEFFECFF89
:1005E000F8FFE0E080110040409C0000281000402F
:1005F00010B5194908464438852202600120C2031B
:1006000016480260164A82231365164C546593659A
:10061000D4658123136053600C46503C23600C4624
:10062000483C23600C46203C23600C461C3C236065
:1006300093610A1F13600C4A0A600A680A604B60E3
:10064000014630390522D2050A6001464039074A81
:100650000A600749016010BDD8804240D0120A40AC
:10066000048042408200040081000E0007506000B8
:100670000750E002B0B582B0134C14492046FFF792
:10068000A1FE13492046FFF7F3FD12480168124A04
:100690000A40026000250095204629462A462B463E
:1006A000FFF77CFE204629462A46FFF769FE7D209B
:1006B000C10020462A46FFF77DFE084801218160DF
:1006C000016002B0B0BDC04600208640240F00008B
:1006D000280F0000043886407F00FFFF003186406D
:1006E0000C48002101600320C1430B480246083A30
:1006F00013680B40136001680122914301601102ED
:1007000003688B4303601103001F02680A43026001
:100710007047C04608030B4008010B4065480421A0
:1007200001601F21416000218160016805220A43A8
:100730000260704710B5124C12492046FFF774FE54
:1007400011492046FFF74CFE0321CA030F480368F6
:10075000934303600269274B13401A3303614269D4
:100760000A433C218A4342614168012211404368A7
:1007700093435918416001681143016010BDC046A0
:10078000000010403C0F00003E0F00000011104020
:1007900010B5144C14492046FFF746FE1349204675
:1007A000FFF71EFE0321CA03114803689343036049
:1007B0000269104B13401A33036142690A433C211A
:1007C0008A434261416801221140436893435918AA
:1007D00041609102084B1C680C431C600168114386
:1007E000016010BD00801040300F0000320F00008B
:1007F000009110400000FFFF2890104080B500F0ED
:1008000015F8FFF7F5FEFFF76BFFFFF733FFFFF774
:10081000BFFFFFF78FFFFFF7B7FEFFF77FFFB8209F
:10082000014900220A5480BDB400202070B50C4854
:100830000C4941600C4A51600C4B59600C4C616092
:100840000C4D69600C4E71600C49016011601960BB
:100850002160296031601020FFF704FD70BDC046A3
:1008600000080A40030000B100280A400028864022
:1008700000881040000810400008004001000026D9
:100880000F480168491C01607047C04610B509480F
:10089000002101608160084A4260816001225206A5
:1008A000064B1C6814431C60054A11600721016057
:1008B00010BDC04610E000E0FF7C000004ED00E049
:1008C0007001202010B512480068C0B20B281ED15C
:1008D0003F48C1690F4A13887E2B13D813885C1CCC
:1008E00014800D4AD1540268D20708D00268D2079A
:1008F00005D00268D20702D00268D207F3D1C9B28C
:10090000816101E00020108004480121017010BDC8
:1009100020901040F601202074012020F4012020B6
:100920007047000080B5FFF769FF0120C00304494C
:1009300008600449086004A0FFF71EFC80BDC046A3
:1009400080E200E000E100E0426F61726420496EE5
:100950006974205B5B202A2A204C434B4642202AA4
:100960002A205D5D0D000000B0B57D2109024143E4
:100970000E480368262206E0E41A051F2D68641954
:10098000A2188A4210D21C4603689C4208D1036810
:100990009C4205D103689C4202D103689C42F3D07B
:1009A0009C42E9D9E41AEBE7B0BDC04618E000E08C
:1009B00007490A68D20708D00A68D20705D00A6832
:1009C000D20702D00A68D207F3D1C2B28A61704757
:1009D0000891104084B0FFF7A5FFFFF757FF04A070
:1009E000FFF7CAFB08A0FFF7C7FB0E4D1CE0C0468F
:1009F0003D3D3D20504C41594552204445425547CC
:100A0000203D3D3D0D00000054657374413A205275
:100A1000617720554152542073656E642E2E2E0D41
:100A200000000000081110402868C00708D028689E
:100A3000C00705D02868C00702D02868C007F3D1D6
:100A40007E200290A8612868C00708D02868C007E7
:100A500005D02868C00702D02868C007F3D1FF2757
:100A6000AF612868C00708D02868C00705D028688B
:100A7000C00702D02868C007F3D10626AE612868F7
:100A8000C00708D02868C00705D02868C00702D072
:100A90002868C007F3D1AE612868C00708D028686D
:100AA000C00705D02868C00702D02868C007F3D166
:100AB0000024AC612868C00708D02868C00705D0AA
:100AC0002868C00702D02868C007F3D1AC61286845
:100AD000C00708D02868C00705D02868C00702D022
:100AE0002868C007F3D114200090A8612868C007C7
:100AF00008D02868C00705D02868C00702D0286839
:100B0000C007F3D1AF612868C00708D02868C007C4
:100B100005D02868C00702D02868C007F3D1E620B6
:100B2000A8612868C00708D02868C00705D02868D1
:100B3000C00702D02868C007F3D1EF200190A86158
:100B40007D2003908000FFF70FFF2868C00708D0C2
:100B50002868C00705D02868C00702D02868C007E9
:100B6000F3D10298A8612868C00708D02868C00798
:100B700005D02868C00702D02868C007F3D1AF614C
:100B80002868C00708D02868C00705D02868C007B3
:100B900002D02868C007F3D1AE612868C00708D02A
:100BA0002868C00705D02868C00702D02868C00799
:100BB000F3D10098A8612868C00708D02868C0074A
:100BC00005D02868C00702D02868C007F3D1AC61FF
:100BD0002868C00708D02868C00705D02868C00763
:100BE00002D02868C007F3D1AC612868C00708D0DC
:100BF0002868C00705D02868C00702D02868C00749
:100C0000F3D10220A8612868C00708D02868C0076F
:100C100005D02868C00702D02868C007F3D1FE209D
:100C2000A8612868C00708D02868C00705D02868D0
:100C3000C00702D02868C007F3D1E520A861286862
:100C4000C00708D02868C00705D02868C00702D0B0
:100C50002868C007F3D10198A86196A0FFF78CFA25
:100C60009B4C2046FFF780FE9AA0FFF785FA286884
:100C7000C00708D02868C00705D02868C00702D080
:100C80002868C007F3D15520A8612968C90708D092
:100C90002968C90705D02968C90702D02968C9078A
:100CA000F3D1A8612968C90708D02968C90705D008
:100CB0002968C90702D02968C907F3D1A861296842
:100CC000C90708D02968C90705D02968C90702D013
:100CD0002968C907F3D1A8612968C90708D029681C
:100CE000C90705D02968C90702D02968C907F3D107
:100CF000A8612968C90708D02968C90705D02968EB
:100D0000C90702D02968C907F3D1A8612968C907B2
:100D100008D02968C90705D02968C90702D0296801
:100D2000C907F3D1A8612968C90708D02968C9078C
:100D300005D02968C90702D02968C907F3D1A8617D
:100D40002968C90708D02968C90705D02968C907D3
:100D500002D02968C907F3D1A8612968C90708D05A
:100D60002968C90705D02968C90702D02968C907B9
:100D7000F3D1A8612968C90708D02968C90705D037
:100D80002968C90702D02968C907F3D1A861296871
:100D9000C90708D02968C90705D02968C90702D042
:100DA0002968C907F3D1A8612968C90708D029684B
:100DB000C90705D02968C90702D02968C907F3D136
:100DC000A8612968C90708D02968C90705D029681A
:100DD000C90702D02968C907F3D1A8612968C907E2
:100DE00008D02968C90705D02968C90702D0296831
:100DF000C907F3D1A8612968C90708D02968C907BC
:100E000005D02968C90702D02968C907F3D1A861AC
:100E10002968C90708D02968C90705D02968C90702
:100E200002D02968C907F3D1A8612968C90708D089
:100E30002968C90705D02968C90702D02968C907E8
:100E4000F3D1A8612968C90708D02968C90705D066
:100E50002968C90702D02968C907F3D1A8612968A0
:100E6000C90708D02968C90705D02968C90702D071
:100E70002968C907F3D1A8611F48FFF77DF90398D6
:100E8000C000FFF771FD1D48FFF776F91920FFF745
:100E900071FBC820FFF768FD0220FFF7CEFA184863
:100EA000FFF76AF92046FFF75FFD16A0FFF764F928
:100EB000FEE7C04654657374413A2053656E742E44
:100EC00020576169742035732E2E2E0D000000000E
:100ED0008813000054657374423A2050696E67208D
:100EE0006F6E20504C52205541525420545820705F
:100EF000696E2E2E2E0D0000900F0000480F00008E
:100F0000770F00003D3D3D20414C4C20544553544B
:100F10005320444F4E45203D3D3D0D00010500004E
:100F20000000000308070000E803000000000100C3
:100F30000400000018000000003000000400000061
:100F4000180000000030000054657374433A2050CC
:100F50006C617965725F536574566F6C756D652051
:100F60002B20506C617965725F506C6179566F69A6
:100F700063652E2E2E0D0054657374433A2053651D
:100F80006E742E20576169742035732E2E2E0D003D
:100F900054657374423A20446F6E652E0D00000054
:100FA000B00F000000002020000300000801000036
:04000005000000C136
:00000001FF
