:020000040000FA
:100000000003202085010000890100008B01000011
:1000100000000000000000000000000000000000E0
:100020000000000000000000000000008D01000042
:1000300000000000000000008F010000910100009E
:100040009301000093010000930100009301000060
:10005000610600009301000093010000930100007D
:100060000000000093010000930100000000000068
:10007000000000009301000093010000910C0000BB
:100080009301000093010000930100009301000020
:100090009301000093010000000000000000000038
:1000A0009301000093010000000000000000000028
:1000B0009301000000000000930100009301000084
:1000C00000F002F800F04FF80CA030C808382418EF
:1000D0002D18671EA246AB4654465D46AC4201D180
:1000E00000F041F87E460F3EB6460FCC0126334263
:1000F00000D0FB1A3343A246AB461847D410000089
:10010000F410000000000000103A02D378C878C153
:10011000FAD8520701D330C830C101D504680C6049
:100120007047000000000000002300240025002686
:10013000103A01D378C1FBD8520700D330C100D5A3
:100140000B60704710B5642902D100F075F810BD3E
:10015000752902D100F070F810BD002010BD1FB548
:100160001FBD10B510BD00F04FFA1146FFF7F7FFA5
:1001700000F0F4FD00F067FA03B4FFF7F2FF03BCF0
:1001800000F0B4FD06480047FEE7FEE7FEE7FEE7A5
:10019000FEE7FEE703480449024A044B70470000AB
:1001A000C1000000000220200003202000022020C7
:1001B0000FB4054910B503AA029800F0E1F910BC8C
:1001C00008BC04B01847000068002020F8B50E46AF
:1001D0000446002020622046E1688847002829D094
:1001E000252802D06268A16820E0E1682046002747
:1001F000884705001ED028464138192802D8012713
:10020000FF0220353246204627602946FFF79AFF35
:10021000002808D0012804D0F61DF608F60008369C
:10022000D9E7361DD7E762682846A1689047206A5B
:10023000401CCFE7206AF8BDF7B500257529106886
:10024000009914A611D0C046C046002802DA4042E8
:1002500011A608E0009909688A0701D50FA602E0F7
:10026000490704D50EA6012501E0C046C046009FFF
:100270000024243704E000F097F930313955641C2C
:100280000028F8D12B4632462146009800F01FF98D
:10029000FEBD0000000000002D0000002B0000004B
:1002A0002000000010B5044603E000F045FD401CAE
:1002B00008D020780549641C0028F6D10A2000F0F7
:1002C0003BFD10BD0020C04310BD00006800202091
:1002D000002203098B4273D3030A8B4258D3030BCA
:1002E0008B423CD3030C8B4221D312E003460B43D9
:1002F0007FD4002243088B4274D303098B425FD31F
:10030000030A8B4244D3030B8B4228D3030C8B424A
:100310000DD30902FF2212BA030C8B4202D3121230
:10032000090265D0030B8B4219D300E0090AC30B05
:100330008B4201D3CB03C01A5241830B8B4201D3B2
:100340008B03C01A5241430B8B4201D34B03C01A9B
:100350005241030B8B4201D30B03C01A5241C30A13
:100360008B4201D3CB02C01A5241830A8B4201D384
:100370008B02C01A5241430A8B4201D34B02C01A6E
:100380005241030A8B4201D30B02C01A5241CDD213
:10039000C3098B4201D3CB01C01A524183098B425E
:1003A00001D38B01C01A524143098B4201D34B0147
:1003B000C01A524103098B4201D30B01C01A5241AA
:1003C000C3088B4201D3CB00C01A524183088B4231
:1003D00001D38B00C01A524143088B4201D34B001A
:1003E000C01A5241411A00D201465241104670478C
:1003F0005DE0CA0F00D04942031000D34042534091
:100400009C46002203098B422DD3030A8B4212D350
:100410008901FC2212BA030A8B420CD38901921182
:100420008B4208D3890192118B4204D389013AD0BF
:10043000921100E08909C3098B4201D3CB01C01A94
:10044000524183098B4201D38B01C01A52414309A7
:100450008B4201D34B01C01A524103098B4201D395
:100460000B01C01A5241C3088B4201D3CB00C01A02
:10047000524183088B4201D38B00C01A5241D9D21A
:1004800043088B4201D34B00C01A5241411A00D29B
:1004900001465241104663465B1001D34042002B97
:1004A00000D54942704763465B1000D3404201B516
:1004B0000449002802DC491C084000E00846C04608
:1004C000C04602BDFFFFFF7F704770477047FFB512
:1004D00004460D4681B0243000902168880604D57A
:1004E0001022E0699143216000E00120A84201DD73
:1004F000471B00E000270498A1697A191018081A10
:10050000A0612078C00602D42046C046C04600261E
:1005100008E003986268A168805D9047206A401CEB
:10052000761C206204988642F3DB2078C0060AD548
:100530002046C046C04606E06268A1683020904769
:10054000206A401C206238467F1E0028F4DC07E049
:1005500000986268A168405D9047206A401C206254
:1005600028466D1E0028F3DC2046C046C046207891
:10057000000602D5022005B0F0BD0120FBE7000017
:10058000084B70B50D467B4400F027F8044628461A
:1005900000F036F8002802D00020C04370BD20468D
:1005A00070BD0000AF07000001468008081A02096C
:1005B0001018020A1018020C1018C0088200121835
:1005C0005200891A01E0401C0A390A29FBD27047FF
:1005D00001694A1C02610878704700B58FB002912A
:1005E0000021059105490193794403911146049036
:1005F0006846FFF7EBFD0FB000BD0000E5FFFFFF11
:10060000C068802108407047754600F025F8AE4666
:10061000050069465346C008C000854618B020B59D
:10062000FFF7B8FD60BCB64600260027C0C5C0C5B0
:10063000C0C5C0C5C0C5C0C5C0C5C0C5403D4908CE
:1006400049008D46704710B50446C046C046204656
:10065000FFF792FD10BD0000004870470800202001
:1006600080B500F001F880BD04480068C0B20A28D7
:1006700002D12448012101707047C046201000407B
:10068000014810210160704700E100E0F0B581B041
:1006900004461C4800210170A5214D0029464A3915
:1006A000B54B5A680A435A60017800290DD120BF22
:1006B0000178002909D120BF0178002905D120BF88
:1006C0000178002901D120BFEEE70F4801688FB201
:1006D0002760406886B26660284678430B4900F080
:1006E0002DFCF11BA160E06075432846074900F02E
:1006F00025FC2061A04A106801210143116001B06E
:10070000F0BDC046FC01202080625540FF0F000074
:10071000B0B50A78032313400B4A84580B4D25408B
:10072000EB18A92424061B198350072212064B68D4
:1007300013401124240205599543EA180251001967
:1007400049780161B0BDC04608080000FCFFFF0009
:10075000811E091F00BFFCD270470000F0B53C4A63
:1007600082183C4BC31808794E793B4D3B4C002E08
:1007700023D0202804D00526F601002803D003E06A
:10078000374E002800D18826576F2F4037435767D0
:10079000976F2F4037439767566B26405663966B8B
:1007A000264096630026566596658F26F6435F6859
:1007B00037405F609F6837409F608E7909682028C6
:1007C0000BD0002819D1491E5160D76E2F408821C7
:1007D0000F43D7661746703719E0491E5160D16E36
:1007E00029401F4F3943D166116F294039431167A2
:1007F000012149071B4D174609E049085160D76E92
:100800002F400521C9010F43D766174670373C6852
:100810002C400C433C60D16A104C2140D162116BDA
:10082000214011630021D16411658F21C943D46F28
:100830000C40D4671C680C401C600643BD2030404F
:100840001168094B0B40C018801C1060F0BDC046F9
:10085000041800008418000024493E008888FDFF29
:1008600001040000FFFFFFCF4000FFCF10B50723BA
:100870009B04194092008018024A84589C436118D6
:10088000815010BD3018000010B5029CA400001962
:1008900011431943014A815010BDC0465018000051
:1008A00092008018014A81507047C046101800001D
:1008B00010B50122120383180C789C604B7883508A
:1008C0008978014A815010BD0C110000B0B5112289
:1008D000120283580124A34383500B888C781C4355
:1008E0008B882343094C1C408358094D1D406319D4
:1008F00083508B79CC791C43097A21437E2319409C
:10090000801842689A4351184160B0BD18670000D2
:10091000E798FDFF10B50122120383180C789C6044
:100920004978815010BD000010B50124A00711497D
:10093000FFF7EEFE10484168104A0A4021045118A2
:10094000416081680E4A0A402106511881600D49B4
:1009500000220A604C600C494161032109020B4AE4
:10096000136A0B43136213680B431360016821433E
:10097000016010BD3411000000110040FEFFECFFCB
:10098000F8FFE0E080110040409C0000281000408B
:1009900010B5194908464438852202600120C20377
:1009A00016480260164A82231365164C54659365F7
:1009B000D4658123136053600C46503C23600C4681
:1009C000483C23600C46203C23600C461C3C2360C2
:1009D00093610A1F13600C4A0A600A680A604B6040
:1009E000014630390522D2050A6001464039074ADE
:1009F0000A600749016010BDD8804240D0120A4009
:100A0000048042408200040081000E000750600014
:100A10000750E002B0B582B09B4C13492046FFF767
:100A200047FF12492046FFF799FE88480168104A9F
:100A30000A40026000250095204629462A462B469A
:100A4000FFF722FF204629462A46FFF70FFF7D20A9
:100A5000C10020462A46FFF723FF06480121816096
:100A6000016002B0B0BDC0463C1100004011000062
:100A70007F00FFFF003186400C4800210160032009
:100A8000C1430B480246083A13680B4013600168E3
:100A9000012291430160110203688B43036011033B
:100AA000001F02680A4302607047C04608030B40FB
:100AB00008010B400548042101601F21416000210D
:100AC0008160016805220A430260704710E000E07F
:100AD00010B5124C12492046FFF71CFF1149204661
:100AE000FFF7F4FE0321CA030F4803689343036032
:100AF0000269274B13401A33036142690A433C21C0
:100B00008A43426141680122114043689343591866
:100B1000416001681143016010BDC04600001040F3
:100B200054110000561100000011104010B5144C73
:100B300014492046FFF7EEFE13492046FFF7C6FE94
:100B40000321CA0311480368934303600269104BF1
:100B500013401A33036142690A433C218A434261CC
:100B60004168012211404368934359184160910242
:100B7000084B1C680C431C6001681143016010BDE8
:100B800000801040481100004A1100000091104000
:100B90000000FFFF2890104080B500F015F8FFF727
:100BA000F7FEFFF769FFFFF735FFFFF7BFFFFFF71E
:100BB0008FFFFFF7B9FEFFF77DFFB8200149002244
:100BC0000A5480BDBC00202070B50C480C4941601F
:100BD0000C4A51600C4B59600C4C61600C4D6960C3
:100BE0000C4E71600C490160116019602160296030
:100BF00031601020FFF7ACFD70BDC04600080A4010
:100C0000030000B100280A400028864000881040F8
:100C10000008104000080040010000261B48006842
:100C20007047C046B0B5094C20680125A843206034
:100C300007486060144807490022FFF731FE20682A
:100C40002843206011485A210160B0BD0438864015
:100C50007F380100581B000010B50446B421B428A9
:100C600000D30C460648604300F068F90549411876
:100C700005480022FFF714FE0448046010BDC0467A
:100C800088130000941100000020864000002020FE
:100C900010B512480068C0B20B281ED12E48C16999
:100CA0000F4A13887E2B13D813885C1C14800D4ABE
:100CB000D1540268D20708D00268D20705D0026872
:100CC000D20702D00268D207F3D1C9B2816101E034
:100CD0000020108004480121017010BD20901040B8
:100CE000FA01202078012020F80120207047000020
:100CF000B0B57D21090241430E480368262206E073
:100D0000E41A051F2D686419A2188A4210D21C46E5
:100D100003689C4208D103689C4205D103689C4249
:100D200002D103689C42F3D09C42E9D9E41AEBE774
:100D3000B0BDC04618E000E007490A68D20708D0F5
:100D40000A68D20705D00A68D20702D00A68D2071B
:100D5000F3D1C2B28A6170470891104094B0FFF796
:100D60001BFFFFF78DFCFFF75DFF4A4C2046FFF7A6
:100D700099FA4948FFF796FA2046FFF793FA47A0F9
:100D8000FFF790FA0020FFF767FF7D20C500284697
:100D9000FFF7AEFF45A0FFF785FA5A263046FFF76A
:100DA0005BFF2846FFF7A4FF44A0FFF77BFAB420BF
:100DB000FFF752FF2846FFF79BFF44A0FFF772FAA8
:100DC0003046FFF749FF2846FFF792FF2046FFF71E
:100DD00069FA42A0FFF766FA46A0FFF763FA4DA052
:100DE000FFF760FA2046FFF75DFA09E0002C524851
:100DF00003DD001980B2FFF72FFF3220FFF778FFE5
:100E00000FA8FFF743FCFFF709FF0E906424139D22
:100E10000C952846214600F091F80D900A272846A7
:100E2000394600F08BF806463946FFF751FA0B9128
:100E3000129D28460894214600F080F80A90284622
:100E4000394600F07BF804463946FFF741FA09912C
:100E50000F991098119A7E430C9B9E1B6743EC1BC5
:100E600000940E9C01900D9802900B9803900496AC
:100E7000059206942F480A9A099BFFF799F9119851
:100E80006528B3DAB32CB8DC0899C9438842B4DCCE
:100E90000120AEE790110000B51100005465737495
:100EA0003A2030206465670D0000000054657374BB
:100EB0003A203930206465670D0000005465737472
:100EC0003A20313830206465670D0000496E69743E
:100ED0003A203930206465670D000000414443200A
:100EE000747261636B696E67207374617274656498
:100EF0000D00000043483236203E20434832372060
:100F00002D3E20616E676C65206465637265617358
:100F1000650D000043483237203E204348323620DA
:100F20002D3E20616E676C6520696E63726561732A
:100F3000650D000060110000FFFF000043088B42B8
:100F40001AD3002203098B4279D3030A8B425ED362
:100F5000030B8B4242D3030C8B4227D30902FF229F
:100F600012BA030C8B4202D31212090203D0030BF4
:100F70008B4233D31AE0D3E0411A8041401C7047C2
:100F800003460B4371D443088B42F5D30022030977
:100F90008B4254D3030A8B4239D3030B8B421DD3AC
:100FA000030C8B4202D394466EE0090AC30B8B42BA
:100FB00001D3CB03C01A5241830B8B4201D38B0365
:100FC000C01A5241430B8B4201D34B03C01A52410A
:100FD000030B8B4201D30B03C01A5241C30A8B424D
:100FE00001D3CB02C01A5241830A8B4201D38B0238
:100FF000C01A5241430A8B4201D34B02C01A5241DC
:10100000030A8B4201D30B02C01A5241CDD2C3094D
:101010008B4201D3CB01C01A524183098B4201D3C9
:101020008B01C01A524143098B4201D34B01C01AB4
:10103000524103098B4201D30B01C01A5241C3082C
:101040008B4201D3CB00C01A524183088B4201D39B
:101050008B00C01A524143088B4201D34B00C01A87
:101060005241411A524110007047CA0F00D0494204
:10107000031000D34042534000229C4603098B4298
:101080002DD3030A8B4212D38901FC2212BA030A20
:101090008B420CD3890192118B4208D389019211A2
:1010A0008B4204D3890137D0921100E08909C3092A
:1010B0008B4201D3CB01C01A524183098B4201D329
:1010C0008B01C01A524143098B4201D34B01C01A14
:1010D000524103098B4201D30B01C01A5241C3088C
:1010E0008B4201D3CB00C01A524183088B4201D3FB
:1010F0008B00C01A5241D9D243088B4201D34B0016
:10110000C01A5241411A00D201465241104663466C
:101110005B1000D34042704763465B1000D34042EF
:1011200001B50021004201D0C9430846C046C0466F
:1011300002BD0000010500000000000308070000D8
:10114000E803000000000100040000001800000097
:101150000030000004000000180000000030000013
:10116000434832373A25642825642E256425645681
:101170002920434832363A25642825642E256425E3
:1011800064562920643A256420613A25640D0A00DA
:101190003D3D3D3D3D3D3D3D3D3D3D3D3D3D3D3D7F
:1011A0003D3D3D3D3D3D3D3D3D3D3D3D3D3D3D3D6F
:1011B0003D3D3D0D00536572766F202B2041444329
:1011C00020547261636B696E672044656D6F0D001A
:1011D000F0110000000020200800000008010000BD
:1011E000F811000008002020F8020000280100008B
:0811F0005A000000000000009D
:04000005000000C136
:00000001FF
