:020000040000FA
:10000000F80220205D010000610100006301000092
:1000100000000000000000000000000000000000E0
:10002000000000000000000000000000650100006A
:1000300000000000000000006701000069010000EE
:100040006B0100006B0100006B0100006B01000000
:100050006B0100006B0100006B0100006B010000F0
:10006000000000006B0100006B01000000000000B8
:10007000000000006B0100006B010000010A00009D
:100080006B0100006B0100006B0100006B010000C0
:100090006B0100006B010000000000000000000088
:1000A0006B0100006B010000000000000000000078
:1000B0006B010000000000006B0100006B010000FC
:1000C00000F002F800F03AF80CA030C80838241804
:1000D0002D18671EA246AB4654465D46AC4201D180
:1000E00000F02CF87E460F3EB6460FCC0126334278
:1000F00000D0FB1A3343A246AB461847F412000067
:100100000413000000000000002300240025002646
:10011000103A01D378C1FBD8520700D330C100D5C3
:100120000B60704710B5782902D100F063F810BD5C
:10013000002010BD1FB51FBD10B510BD00F0C4F9E3
:100140001146FFF7F7FF00F003FD00F0DCF903B400
:10015000FFF7F2FF03BC00F081FC000006480047F7
:10016000FEE7FEE7FEE7FEE7FEE7FEE70348044999
:10017000024A044B70470000C1000000F801202033
:10018000F8022020F80120200FB4054910B503AA79
:10019000029800F069F910BC08BC04B018470000D0
:1001A0006000202070B5044685690068C10601D54D
:1001B000302600E02026C00707D070BD62683046B8
:1001C000A1689047206A401C20626D1EF6D570BD64
:1001D00070B5044685690078C00707D170BD6268B4
:1001E000A16820209047206A401C20626D1EF6D531
:1001F00070BD000070B504460D4621461068C0462B
:10020000C0462188090502D50F4A7A4402E00E4A09
:100210007A440E3223460021243305E00607000904
:10022000360F965D5E54491C0028F7D120780023D4
:10023000000705D5702D03D0002901D0022311320B
:10024000204600F0B8F870BD78100000F3B5044601
:10025000002081B020622046E168884700287DD0D8
:10026000252802D06268A16883E0454F00257F44BD
:100270002046E16888472028064608DB312E06D252
:10028000B81920380078002801D00543F0E7A80706
:1002900001D5042085430020E0610746A0612A2E95
:1002A0000AD0304600F0E8FF002827D0B800001937
:1002B000303E0090866119E00298BA00121902C817
:1002C000916102902046E1688847012F064617D1C8
:1002D000E06900281FDA202085431CE000980A21ED
:1002E0008069484300998019303888612046E16868
:1002F0008847064600F0C0FF0028EFD1012F0AD042
:100300002E2E08D12046E168884706462020054366
:100310007F1C022FC3DBA069002803DA4042A061E2
:1003200001200543E80701D010208543002E24D08A
:1003300030464138192803D80120C0020543203631
:10034000204625603146029A1546FFF7EBFE00284D
:100350000CD0012807D0ED1DE80800E00DE0C0003A
:100360000830029077E72D1D029574E762683046E9
:10037000A1689047206A401C6CE7206AFEBD00001F
:100380003C10000010B5044603E000F0CFFB401C19
:1003900008D020780549641C0028F6D10A2000F016
:1003A000C5FB10BD0020C04310BD00006000202030
:1003B000704770477047FFB504460D4681B0243042
:1003C00000902168880604D51022E06991432160DD
:1003D00000E00120A84201DD471B00E0002704984F
:1003E000A1697A191018081AA0612078C00602D4F1
:1003F0002046FFF7D7FE002608E003986268A16850
:10040000805D9047206A401C761C206204988642DA
:10041000F3DB2078C0060AD52046FFF7C3FE06E0CE
:100420006268A16830209047206A401C20623846EC
:100430007F1E0028F4DC07E000986268A168405D38
:100440009047206A401C206228466D1E0028F3DC7D
:100450002046FFF7BDFE2078000602D5022005B039
:10046000F0BD0120FBE70000084B70B50D467B4452
:1004700000F013F80446284600F022F8002802D0C5
:100480000020C04370BD204670BD0000BB060000C8
:1004900001694A1C02610878704700B58FB002916B
:1004A0000021059105490193794403911146049077
:1004B0006846FFF7CBFE0FB000BD0000E5FFFFFF71
:1004C000C068802108407047754600F025F8AE46A8
:1004D000050069465346C008C000854618B020B5DF
:1004E000FFF744FE60BCB64600260027C0C5C0C565
:1004F000C0C5C0C5C0C5C0C5C0C5C0C5403D490810
:1005000049008D46704710B50446C046C046204697
:10051000FFF71DFE10BD00000048704700002020BE
:10052000B0B50A78032313400B4A84580B4D25407D
:10053000EB18A92424061B198350072212064B68C6
:1005400013401124240205599543EA180251001959
:1005500049780161B0BDC04608080000FCFFFF00FB
:10056000811E091F00BFFCD270470000F0B53C4A55
:1005700082183C4BC31808794E793B4D3B4C002EFA
:1005800023D0202804D00526F601002803D003E05C
:10059000374E002800D18826576F2F4037435767C2
:1005A000976F2F4037439767566B26405663966B7D
:1005B000264096630026566596658F26F6435F684B
:1005C00037405F609F6837409F608E7909682028B8
:1005D0000BD0002819D1491E5160D76E2F408821B9
:1005E0000F43D7661746703719E0491E5160D16E28
:1005F00029401F4F3943D166116F29403943116794
:10060000012149071B4D174609E049085160D76E83
:100610002F400521C9010F43D766174670373C6844
:100620002C400C433C60D16A104C2140D162116BCC
:10063000214011630021D16411658F21C943D46F1A
:100640000C40D4671C680C401C600643BD20304041
:100650001168094B0B40C018801C1060F0BDC046EB
:10066000041800008418000024493E008888FDFF1B
:1006700001040000FFFFFFCF4000FFCF10B50723AC
:100680009B04194092008018024A84589C436118C8
:10069000815010BD3018000010B5029CA400001954
:1006A00011431943014A815010BDC0465018000043
:1006B00092008018014A81507047C046101800000F
:1006C00010B50122120383180C789C604B7883507C
:1006D0008978014A815010BD0C110000B0B511227B
:1006E000120283580124A34383500B888C781C4347
:1006F0008B882343094C1C408358094D1D406319C6
:1007000083508B79CC791C43097A21437E2319408D
:10071000801842689A4351184160B0BD18670000C4
:10072000E798FDFF10B50122120383180C789C6036
:100730004978815010BD000010B50124A00705497B
:10074000FFF7EEFE044800210160044801682143E0
:10075000016010BDC0120000801100400011004077
:1007600010B514498522CA600123DC0312480460D5
:100770000A611A040260114A82231365104C546501
:100780009365D4658123136053600B608B600B63AA
:100790004B639361CB640B654B6501463039032293
:1007A00012060A6001464039064A0A60064901609D
:1007B00010BDC04688804240D0120A4004804240AA
:1007C000820004000750E0000750E003F0B581B05C
:1007D0001C4C1D492046FFF773FF1C492046FFF7BC
:1007E000C5FE1B4801681B4A0A40026000250095AF
:1007F000204629462A462B46FFF74EFF204629462B
:100800002A46FFF73BFF7D20C600204631462A4698
:10081000FFF74EFF01270097204629462A462B4620
:10082000FFF73AFF204629463A46FFF727FF2046C2
:1008300031463A46FFF73CFF0748876003210160D5
:1008400001B0F0BD00208640C8120000CC120000AC
:10085000043886407F00FFFF003186400C480021AD
:1008600001600320C1430B480246083A13680B405D
:1008700013600168012291430160110203688B43F8
:1008800003601103001F02680A4302607047C046FC
:1008900008030B4008010B400548042101601F219B
:1008A000416000218160016805220A4302607047AF
:1008B00010E000E010B5124C12492046FFF732FF5D
:1008C00011492046FFF70AFF0321CA030F480368B6
:1008D000934303600269274B13401A330361426953
:1008E0000A433C218A434261416801221140436826
:1008F00093435918416001681143016010BDC0461F
:1009000000001040E0120000E21200000011104050
:1009100010B5144C14492046FFF704FF1349204634
:10092000FFF7DCFE0321CA03114803689343036009
:100930000269104B13401A33036142690A433C2198
:100940008A43426141680122114043689343591828
:1009500041609102084B1C680C431C600168114304
:10096000016010BD00801040D4120000D6120000BB
:10097000009110400000FFFF2890104080B500F06B
:1009800015F8FFF7EDFEFFF769FFFFF71FFFFFF711
:10099000BFFFFFF78FFFFFF7CFFEFFF77DFFB82008
:1009A000014900220A5480BDB400202070B50C48D3
:1009B0000C4941600C4A51600C4B59600C4C616011
:1009C0000C4D69600C4E71600C490160116019603A
:1009D0002160296031601020FFF7C2FD70BDC04664
:1009E00000080A40030000B100280A4000288640A1
:1009F0000088104000081040000800400100002658
:100A000010B512480068C0B20B281ED14F48C1690A
:100A10000F4A13887E2B13D813885C1C14800D4A50
:100A2000D1540268D20708D00268D20705D0026804
:100A3000D20702D00268D207F3D1C9B2816101E0C6
:100A40000020108004480121017010BD209010404A
:100A5000F201202070012020F001202070470000CA
:100A600080B5FFF78BFF0120C003044908600449EB
:100A7000086004A0FFF786FC80BDC04680E200E06D
:100A800000E100E0426F61726420496E6974205B8E
:100A90005B202A2A204C434B4642202A2A205D5DB7
:100AA0000D000000B0B57D21090241431E480368D6
:100AB000262206E0E41A051F2D686419A2188A424E
:100AC00010D21C4603689C4208D103689C4205D1A1
:100AD00003689C4202D103689C42F3D09C42E9D94E
:100AE000E41AEBE7B0BDC046B0B50F490B68400152
:100AF000262206E0E41A0D1F2D686419A21882420E
:100B000010D21C460B689C4208D10B689C4205D150
:100B10000B689C4202D10B689C42F3D09C42E9D9FD
:100B2000E41AEBE7B0BDC04618E000E007490A68E8
:100B3000D20708D00A68D20705D00A68D20702D0C7
:100B40000A68D207F3D1C2B28A6170470891104097
:100B50008AB0FFF785FFFC49081F812505604D60BD
:100B60000D6006950720C005F849086308600C462B
:100B70006420FFF797FFF648FFF704FCF548FFF7FE
:100B800001FCF548FFF7FEFB2146103901267006EF
:100B9000089008600F460A242046FFF7A5FFEA48A0
:100BA00005603506E9480563F60506602046FFF74F
:100BB0009BFFE64805602046FFF796FF3E60204613
:100BC000FFF792FFE14806602046FFF78DFF3D608A
:100BD0002046FFF789FF3E602046FFF785FFDB4890
:100BE00006602046FFF780FF3D6009952046FFF72D
:100BF0007BFF3E602046FFF777FFD4480660204623
:100C0000FFF772FF3D602046FFF76EFF3E603D46F6
:100C10002046FFF769FFCD4806602046FFF764FFD6
:100C2000099FCA4807602046FFF75EFF2E602046F6
:100C3000FFF75AFFC54806602046FFF755FFC34837
:100C400007602046FFF750FF2E602046FFF74CFF5D
:100C5000BE4806602046FFF747FFBC4807602046B5
:100C6000FFF742FF2E602046FFF73EFFB7480660C1
:100C70002046FFF739FF2F602046FFF735FF2E6033
:100C80002F462046FFF730FFB04806602046FFF7AA
:100C90002BFF099DAD4805602046FFF725FF3E600C
:100CA00007972046FFF720FFA84806602046FFF779
:100CB0001BFFA64805602046FFF716FF3E60204652
:100CC000FFF712FFA14806602046FFF70DFF9F487F
:100CD00005602F462046FFF707FF079D2E60204640
:100CE000FFF702FF994806602046FFF7FDFE974890
:100CF00007602046FFF7F8FE2E602F462046FFF7DC
:100D0000F3FE924806602046FFF7EEFE099D8F48ED
:100D100005602046FFF7E8FE3E602046FFF7E4FE50
:100D20008A4806602046FFF7DFFE884805602F46A8
:100D30002046FFF7D9FE079D2E602046FFF7D4FE20
:100D4000824806602046FFF7CFFE804807602046B5
:100D5000FFF7CAFE2E602046FFF7C6FE7B480660FE
:100D60002046FFF7C1FE794807602046FFF7BCFE2A
:100D70002E602F462046FFF7B7FE089D734805609A
:100D80002046FFF7B1FE714806602046FFF7ACFE33
:100D90003D602046FFF7A8FE06986B4908606B4847
:100DA000099F0763066005462046FFF79DFE2F60FA
:100DB0003D462046FFF798FE079F3E602046FFF71E
:100DC00093FE624806602046FFF78EFE5F4805608E
:100DD0002046FFF789FE3E602046FFF785FE5B4810
:100DE00006602046FFF780FE584805602046FFF762
:100DF0007BFE3E602046FFF777FEFE4806602046F9
:100E0000FFF772FEFB4805602046FFF76DFE3E606F
:100E10002046FFF769FEF74806602046FFF764FEAC
:100E2000F44805602046FFF75FFE3E602046FFF76E
:100E30005BFEF04806602046FFF756FEED48056071
:100E40002046FFF751FE3E602046FFF74DFEE94881
:100E500006602046FFF748FEE64805602046FFF79B
:100E600043FE3E602046FFF73FFEE2480660204614
:100E7000FFF73AFE3D602046FFF736FE3E60204613
:100E8000FFF732FEDB4806602046FFF72DFED9480B
:100E900005602046FFF728FE3E602046FFF724FE4F
:100EA000D44806602046FFF71FFED2480560204662
:100EB000FFF71AFE3E602046FFF716FECD4806609B
:100EC0002046FFF711FECB48056005462046FFF798
:100ED0000BFE3E602046FFF707FE2E602046FFF720
:100EE00003FE2846099D05602046FFF7FDFD3E6094
:100EF0002046FFF7F9FDBF4806602046FFF7F4FDE6
:100F00003D602046FFF7F0FD3E602046FFF7ECFD18
:100F1000B84806602046FFF7E7FD3D602046FFF732
:100F2000E3FD3E602046FFF7DFFDB2480660204645
:100F3000FFF7DAFDAF4805602046FFF7D5FD3E60BC
:100F40002046FFF7D1FD09E0D8804240A0120A40B8
:100F5000951300001313000067130000A5480660F6
:100F60002046FFF7C1FDA34805602046FFF7BCFD02
:100F70003E602046FFF7B8FD089D9E48056020466C
:100F8000FFF7B2FD9B4806602046FFF7ADFD3D60D0
:100F90002046FFF7A9FD9649069808609548099DE7
:100FA000056306602046FFF79FFD3D602046FFF782
:100FB0009BFD3E602046FFF797FD8E480660204669
:100FC000FFF792FD8B4805602046FFF78DFD3E60E0
:100FD0002046FFF789FD874806602046FFF784FD1D
:100FE000844805602046FFF77FFD3E602046FFF7FE
:100FF0007BFD804806602046FFF776FD7D48056052
:101000002046FFF771FD3E602046FFF76DFD7948F1
:1010100006602046FFF768FD764805602046FFF72A
:1010200063FD3E602046FFF75FFD72480660204684
:10103000FFF75AFD6F4805602046FFF755FD3E60FB
:101040002046FFF751FD6B4806602046FFF74CFD38
:10105000684805602046FFF747FD3E602046FFF7E1
:1010600043FD644806602046FFF73EFD3D60204694
:10107000FFF73AFD3E602046FFF736FD5D48056408
:101080005D485B4908602046FFF72EFD594D2E60F4
:101090002046FFF729FD5948006809902046FFF7D0
:1010A00023FD3E602046FFF71FFD2E602046FFF720
:1010B0001BFD5248006806902046FFF715FD3E6074
:1010C0002046FFF711FD2E602046FFF70DFD4B4D2A
:1010D000286805902046FFF707FD3E602046FFF791
:1010E00003FD444806602046FFF7FEFC2868049094
:1010F0002046FFF7F9FC3E602046FFF7F5FC3D482F
:1011000006602046FFF7F0FC286803902046FFF7B2
:10111000EBFC3E602046FFF7E7FC364806602046C1
:10112000FFF7E2FC286802902046FFF7DDFC3E60F6
:101130002046FFF7D9FC2F4806602046FFF7D4FC75
:10114000286801902046FFF7CFFC3E602046FFF75D
:10115000CBFC284806602046FFF7C6FC28680090B4
:101160002046FFF7C1FC3E602046FFF7BDFC089813
:10117000204908600698C00D022101400998C0016D
:10118000C00F08180599890D04220A401018049907
:10119000490D08220A4010180399090D10220A402F
:1011A00010180299C90C20220A4010180199890CC4
:1011B00040220A4010180099490C80240C40044336
:1011C0000F482146FEF7E0FFFF2C03D00E48002C0D
:1011D00003D003E00B48002C00D10CA0FFF7D2F89D
:1011E00015A0FFF7CFF87D20C000FFF75BFCFAE702
:1011F000D8804240A0120A408100040080130A40B7
:10120000EC120000B5130000421300000D0A3E3E30
:101210003E20524553554C543A2030783030203DD2
:1012200020445331333032206E6F742072657370F6
:101230006F6E64696E670D000D0A5472793A203141
:101240002920496E736572742062617474657279C5
:10125000202032292054727920355620203329202D
:101260005377617020434C4B3C2D3E4441542077D2
:10127000697265730D00000030380A2801D2012020
:1012800070470020704730313233343536373839C3
:1012900041424344454640305800303132333435C2
:1012A000363738396162636465664030780004001F
:1012B0000008000000000000000200010000100013
:1012C000010500000000000008000000E803000025
:1012D00000000000040000001800000000300000C2
:1012E000040000001800000000300000577269740C
:1012F00065203078333020746F205345432C2052C2
:10130000656164206261636B3A2030782530325821
:101310000D0A00496620616C6C206661696C2C20A6
:10132000747279207377617070696E6720434C4BDB
:1013300020616E64204441542077697265730D0A00
:101340000D000D0A3E3E3E20524553554C543A2066
:1013500044533133303220697320726573706F6E7D
:1013600064696E67210D002D2D2D204E6F726D6109
:101370006C3A20434C4B3D504132332C2044415475
:101380003D504132342C205253543D50413235208F
:101390002D2D2D0D000D0A3D3D3D204453313330A0
:1013A000322050494E205357415020544553542029
:1013B0003D3D3D0D000D0A3E3E3E20524553554CED
:1013C000543A2030784646203D20494F206C696EC3
:1013D0006520737475636B20686967682C20636887
:1013E00065636B20776972696E670D00000000000D
:1013F0000014000000002020F80200000801000096
:04000005000000C136
:00000001FF
