:020000040000FA
:10000000600120204D01000051010000530100005B
:1000100000000000000000000000000000000000E0
:10002000000000000000000000000000550100007A
:10003000000000000000000057010000590100000E
:100040005B0100005B0100005B0100005B01000040
:100050005B0100005B0100005B0100005B01000030
:10006000000000005B0100005B01000000000000D8
:10007000000000005B0100005B0100005B0100006C
:100080005B0100005B0100005B0100005B01000000
:100090005B0100005B0100000000000000000000A8
:1000A0005B0100005B010000000000000000000098
:1000B0005B010000000000005B0100005B0100002C
:1000C00000F002F800F032F80CA030C8083824180C
:1000D0002D18671EA246AB4654465D46AC4201D180
:1000E00000F024F87E460F3EB6460FCC0126334280
:1000F00000D0FB1A3343A246AB461847CC1200008F
:10010000DC1200000000000000230024002500266F
:10011000103A01D378C1FBD8520700D330C100D5C3
:100120000B6070471FB51FBD10B510BD00F027F85C
:100130001146FFF7F7FF00F0BDFC00F03FF803B4F5
:10014000FFF7F2FF03BC00F045F800000648004747
:10015000FEE7FEE7FEE7FEE7FEE7FEE703480449A9
:10016000024A044B70470000C100000060002020DC
:10017000600120206000202070477047704775465E
:1001800000F024F8AE46050069465346C008C0009A
:10019000854618B020B5FFF7E1FF60BCB6460026E3
:1001A0000027C0C5C0C5C0C5C0C5C0C5C0C5C0C585
:1001B000C0C5403D490849008D46704710B504460A
:1001C000C046C0462046FFF7BAFF10BD0048704742
:1001D0000000202001491820ABBEFEE726000200E7
:1001E0007047811E091F00BFFCD27047B0B51122B5
:1001F000120283580124A34383500B888C781C433C
:100200008B882343094C1C408358094D1D406319BA
:1002100083508B79CC791C43097A21437E23194082
:10022000801842689A4351184160B0BD18670000B9
:10023000E798FDFF10B50122120383180C789C602B
:100240004978815010BD0000F0B587B0DB487E4989
:100250000160DB4D01262E61A0242046FFF7C1FF7F
:100260002E602046FFF7BDFF784908680F460690CC
:100270002046FFF7B6FF2E612046FFF7B2FF2E6043
:100280002046FFF7AEFF386805902046FFF7A9FF2C
:100290002E612046FFF7A5FF2E602046FFF7A1FF45
:1002A000386804902046FFF79CFF2E612046FFF738
:1002B00098FF2E602046FFF794FF38680390204691
:1002C000FFF78FFF2E612046FFF78BFF2E60204641
:1002D000FFF787FF386802902046FFF782FF2E6104
:1002E0002046FFF77EFF2E602046FFF77AFF386832
:1002F00001902046FFF775FF2E612046FFF771FF42
:100300002E602046FFF76DFF504807682046FFF734
:1003100068FF2E612046FFF764FF2E602046FFF73E
:1003200060FF4A4805682046FFF75BFF06984200D9
:1003300004210A400220059B03409A189200049B66
:100340005B000B40D218039B03409A189200029B5B
:100350005B000B40D118019A024051184900074038
:100360007818A907C90F0818C0B207B0F0BDC04679
:10037000F0B581B0914934480860914E022737604A
:10038000A0252846FFF72DFF012434602846FFF7FB
:1003900028FF2E4D2868800735D5A020FFF721FFC4
:1003A000286880072FD5A020FFF71BFF286880074B
:1003B00029D5A020FFF715FF2868800723D5A020A6
:1003C000FFF70FFF286880071DD5A020FFF709FF62
:1003D0002868800717D5A020FFF703FF286880074B
:1003E00011D5A020FFF7FDFE286880070BD5A020BF
:1003F000FFF7F7FE2868800705D5A020FFF7F1FE7C
:10040000286880070AD40120306181206B49086088
:10041000376037640024204601B0F0BDA020009072
:10042000FFF7DFFE28688120644908603760376481
:10043000346137613460009D2846FFF7D2FE376093
:100440002846FFF7CEFEE6E78100040080130A404D
:10045000F0B581B0594A81211160594E02243460AF
:10046000346401273761009040B2002801D4346120
:1004700000E034604020FFF7B4FEC020FFF7B1FE7B
:10048000376080252846FFF7ACFE37612846FFF726
:10049000A8FE0098400601D4346100E0346040209A
:1004A000FFF79FFEC020FFF79CFE3760802528469F
:1004B000FFF797FE37612846FFF793FE0098800606
:1004C00001D4346100E034604020FFF78AFEC02090
:1004D000FFF787FE376080252846FFF782FE3761E9
:1004E0002846FFF77EFE0098C00601D4346100E084
:1004F00034604020FFF775FEC020FFF772FE3760C2
:1005000080252846FFF76DFE37612846FFF769FE14
:100510000098000701D4346100E034604020FFF708
:1005200060FEC020FFF75DFE376080252846FFF79C
:1005300058FE37612846FFF754FE0098400701D463
:10054000346100E034604020FFF74BFEC020FFF72D
:1005500048FE376080252846FFF743FE376128466E
:10056000FFF73FFE0098800701D4346100E034605B
:100570004020FFF736FEC020FFF733FE37608025AE
:100580002846FFF72EFE37612846FFF72AFE00981F
:10059000C00701D1346100E034604020FFF721FE44
:1005A000C020FFF71EFE376080242046FFF719FEAB
:1005B00037612046FFF715FE01B0F0BD08804240CC
:1005C00090120A4096480168C90708D00168C90717
:1005D00005D00168C90702D00168C907F3D17E219F
:1005E00081610168C90708D00168C90705D00168A1
:1005F000C90702D00168C907F3D1FF2181610168F1
:10060000C90708D00168C90705D00168C90702D029
:100610000168C907F3D1062181610168C90708D0C3
:100620000168C90705D00168C90702D00168C90778
:10063000F3D10E2181610168C90708D00168C9079B
:1006400005D00168C90702D00168C907F3D10021AC
:1006500081610268D20708D00268D20705D002681B
:10066000D20702D00268D207F3D181610268D207B3
:1006700008D00268D20705D00268D20702D002680B
:10068000D207F3D181610168C90708D00168C907A1
:1006900005D00168C90702D00168C907F3D1FE215E
:1006A00081610168C90708D00168C90705D00168E0
:1006B000C90702D00168C907F3D1ED218161016842
:1006C000C90708D00168C90705D00168C90702D069
:1006D0000168C907F3D1EF218161704780B5C2B2CB
:1006E0000005010F1031142000F00AF880BD80B51C
:1006F000C2B20005010F142000F002F880BD000016
:10070000B0B543189C18464B1D68ED0708D01D680E
:10071000ED0705D01D68ED0702D01D68ED07F3D188
:100720007E259D611D68ED0708D01D68ED0705D089
:100730001D68ED0702D01D68ED07F3D1FF259D610F
:100740001D68ED0708D01D68ED0705D01D68ED0791
:1007500002D01D68ED07F3D106259D611D68ED07E8
:1007600008D01D68ED0705D01D68ED0702D01D6893
:10077000ED07F3D198611868C00708D01868C00762
:1007800005D01868C00702D01868C007F3D1002050
:1007900098611868C00708D01868C00705D01868A5
:1007A000C00702D01868C007F3D199611868C00764
:1007B00008D01868C00705D01868C00702D01868AC
:1007C000C007F3D19A611868C00708D01868C0073D
:1007D00005D01868C00702D01868C007F3D11148C7
:1007E000001B010A99611968C90708D01968C9076F
:1007F00005D01968C90702D01968C907F3D1C0B27A
:1008000098611868C00708D01868C00705D0186834
:10081000C00702D01868C007F3D1EF209861B0BDBF
:1008200008111040FBFE000080B502461E2800D3D0
:100830001E2206200021FFF763FF80BD0A488221A7
:1008400001650A4A42658165C265094981220A60DB
:1008500002604260012080059549086103220A6018
:10086000C01C08647047C0460480424082000400F7
:10087000BC8042400C48002101600320C1430B486A
:100880000246083A13680B40136001680122914345
:100890000160110203688B4303601103001F0268AB
:1008A0000A4302607047C04608030B4008010B4032
:1008B00010B5124C12492046FFF7BCFC11492046E6
:1008C000FFF794FC0321CA030F48036893430360B6
:1008D0000269274B13401A33036142690A433C21E2
:1008E0008A43426141680122114043689343591889
:1008F000416001681143016010BDC0460000104016
:10090000581200005A1200000011104010B5144C8B
:1009100014492046FFF78EFC13492046FFF766FC7A
:100920000321CA0311480368934303600269104B13
:1009300013401A33036142690A433C218A434261EE
:100940004168012211404368934359184160910264
:10095000084B1C680C431C6001681143016010BD0A
:10096000008010404C1200004E1200000091104018
:100970000000FFFF2890104080B500F009F8FFF755
:100980005DFFFFF777FFFFF7C1FFFFF791FF80BD26
:1009900010B5094809494160094A5160094B59603D
:1009A000094C6160094901601160196021601020E3
:1009B000FFF717FC10BDC04600080A40030000B155
:1009C00000280A400088104000081040010000265E
:1009D000F0B583B03548812102910160344E022781
:1009E000376037640125356137603560A0242046C3
:1009F000FFF7F7FB37612046FFF7F3FB3561204631
:100A0000FFF7EFFB6820FFF723FD0024FFF7B0FCA2
:100A1000012848D06420FFF71BFDFFF7A9FC01283F
:100A200041D02248029901603760376435613760F0
:100A300035600194A0242046FFF7D3FB37612046A0
:100A4000FFF7CFFB35612046019CFFF7CAFB692009
:100A5000FFF7FEFCFFF78CFC012824D0FFF7F4FB26
:100A60000446124802990160376037643561376186
:100A7000A0200190FFF7B5FB376035600198FFF7C4
:100A8000B0FB356137600298084908603760376409
:100A9000356137613560019D2846FFF7A2FB37605D
:100AA0002846FFF79EFB204603B0F0BD0880424079
:100AB00090120A4000B581B0FFF75EFFE3483D2287
:100AC000E34E034606E0B2614B1D4A7901462D31E3
:100AD0008B4246D019463368DB0708D03368DB0702
:100AE00005D03368DB0702D03368DB07F3D1D2B21D
:100AF000B2614A783368DB0708D03368DB0705D07A
:100B00003368DB0702D03368DB07F3D1B2618A7840
:100B10003368DB0708D03368DB0705D03368DB07B1
:100B200002D03368DB07F3D1B261CA783368DB07E0
:100B300008D03368DB0705D03368DB0702D03368A1
:100B4000DB07F3D1B2610A793368DB07BBD03368C6
:100B5000DB07B8D03368DB07B5D03368DB07F3D1E8
:100B6000B1E7CD482022034606E0B2614B1D4A7929
:100B700001462D318B4246D019463368DB0708D039
:100B80003368DB0705D03368DB0702D03368DB0747
:100B9000F3D1D2B2B2614A783368DB0708D0336848
:100BA000DB0705D03368DB0702D03368DB07F3D1FE
:100BB000B2618A783368DB0708D03368DB0705D079
:100BC0003368DB0702D03368DB07F3D1B261CA7840
:100BD0003368DB0708D03368DB0705D03368DB07F1
:100BE00002D03368DB07F3D1B2610A793368DB07DF
:100BF000BBD03368DB07B8D03368DB07B5D03368C8
:100C0000DB07F3D1B1E791483D22034606E0B2612C
:100C10004B1D4A7901462D318B4246D01946336827
:100C2000DB0708D03368DB0705D03368DB0702D069
:100C30003368DB07F3D1D2B2B2614A783368DB079D
:100C400008D03368DB0705D03368DB0702D0336890
:100C5000DB07F3D1B2618A783368DB0708D03368E9
:100C6000DB0705D03368DB0702D03368DB07F3D13D
:100C7000B261CA783368DB0708D03368DB0705D078
:100C80003368DB0702D03368DB07F3D1B2610A793E
:100C90003368DB07BBD03368DB07B8D03368DB07CA
:100CA000B5D03368DB07F3D1B1E71420FFF7BCFD03
:100CB0007A482D22034606E0B2618B1C8A780146F1
:100CC00022318B421CD019463368DB0708D03368C9
:100CD000DB0705D03368DB0702D03368DB07F3D1CD
:100CE000D2B2B2614A783368DB07E5D03368DB07FC
:100CF000E2D03368DB07DFD03368DB07F3D1DBE713
:100D00000024674F02E00A20FFF78EFD25460120F0
:100D10008005644908606448FFF763FAFFF758FEEE
:100D200004460028F2D0AC42F0D056213A4602E008
:100D3000B161021D017910463268D20708D03268CD
:100D4000D20705D03268D20702D03268D207F3D179
:100D5000C9B2B16141783268D20708D03268D2078F
:100D600005D03268D20702D03268D207F3D1B16120
:100D700081783268D20708D03268D20705D032684D
:100D8000D20702D03268D207F3D1B16139461731A8
:100D9000C21C8A420DD0C1783268D207C8D03268EE
:100DA000D207C5D03268D207C2D03268D207F3D199
:100DB000BEE73068C00708D03068C00705D030688B
:100DC000C00702D03068C007F3D12009A02C01D39E
:100DD000373000E03030B0613068C00708D030688C
:100DE000C00705D03068C00702D03068C007F3D113
:100DF0000F2020400A2801D3373000E03030B061A6
:100E00003068C00708D03068C00705D03068C00718
:100E100002D03068C007F3D10D20B0613068C00740
:100E200008D03068C00705D03068C00702D03068ED
:100E3000C007F3D10A20B061601E202800D9BFE0AE
:100E400004A14000085A40008744C0464B130000EC
:100E50000891104030007500BA00BA00BA00BA001C
:100E6000BA00BA00FE00BA00BA00BA00BA00BA006E
:100E7000BA00BA00BA00BA00BA00BA00BA00BA00A2
:100E8000BA00BA00BA00BA00BA005E01BA00BA00ED
:100E9000BA00BA00A201C046641200002813000084
:100EA000AD130000B0120A4000D430002D21E24AF8
:100EB00002E0B161021D017910463268D20708D004
:100EC0003268D20705D03268D20702D03268D20722
:100ED000F3D1C9B2B161D8491D31421C8A4200D157
:100EE00099E141783268D20708D03268D20705D03C
:100EF0003268D20702D03268D207F3D1B16181786B
:100F00003268D20708D03268D20705D03268D207DB
:100F100002D03268D207F3D1B161C1783268D2070A
:100F2000C7D03268D207C4D03268D207C1D0326885
:100F3000D207F3D1BDE72D21BE4A02E0B161021D07
:100F4000017910463268D20708D03268D20705D03E
:100F50003268D20702D03268D207F3D1C9B2B16188
:100F6000B4491D31421C8A4200D1CCE64178326836
:100F7000D20708D03268D20705D03268D20702D033
:100F80003268D207F3D1B16181783268D20708D0D4
:100F90003268D20705D03268D20702D03268D20751
:100FA000F3D1B161C1783268D207C7D03268D207B5
:100FB000C4D03268D207C1D03268D207F3D1BDE7BE
:100FC0002D21A14A07E0B161021D01799E48203020
:100FD000824200D19AE610463268D20708D03268C1
:100FE000D20705D03268D20702D03268D207F3D1D7
:100FF000C9B2B16141783268D20708D03268D207ED
:1010000005D03268D20702D03268D207F3D1B1617D
:1010100081783268D20708D03268D20705D03268AA
:10102000D20702D03268D207F3D1B161C1783268F9
:10103000D207C8D03268D207C5D03268D207C2D032
:101040003268D207F3D1BEE72D217C4A07E0B161B7
:10105000821D817979481230824200D1DFE010464A
:101060003268D20708D03268D20705D03268D2077A
:1010700002D03268D207F3D1C9B2B1614178326887
:10108000D20708D03268D20705D03268D20702D022
:101090003268D207F3D1B16181783268D20708D0C3
:1010A0003268D20705D03268D20702D03268D20740
:1010B000F3D1B161C1783268D20708D03268D20763
:1010C00005D03268D20702D03268D207F3D1B161BD
:1010D00001793268D20708D03268D20705D0326869
:1010E000D20702D03268D207F3D1B16141793268B8
:1010F000D207ACD03268D207A9D03268D207A6D0C6
:101100003268D207F3D1A2E72D214E4A07E0B16140
:10111000021D01794B482C30824200D182E01046FA
:101120003268D20708D03268D20705D03268D207B9
:1011300002D03268D207F3D1C9B2B16141783268C6
:10114000D20708D03268D20705D03268D20702D061
:101150003268D207F3D1B16181783268D20708D002
:101160003268D20705D03268D20702D03268D2077F
:10117000F3D1B161C1783268D207C8D03268D207E2
:10118000C5D03268D207C2D03268D207F3D1BEE7E9
:101190002D212B4A06E0B161021D017928482C302F
:1011A000824243D010463268D20708D03268D20754
:1011B00005D03268D20702D03268D207F3D1C9B263
:1011C000B16141783268D20708D03268D20705D0C1
:1011D0003268D20702D03268D207F3D1B161817888
:1011E0003268D20708D03268D20705D03268D207F9
:1011F00002D03268D207F3D1B161C1783268D20728
:10120000C9D03268D207C6D03268D207C3D032689C
:10121000D207F3D1BFE71420FFF706FB76E5FFF70F
:10122000D1F973E50120FFF762FA6FE50120FFF7BE
:1012300055FA6BE5EC1200000A1300009A13000047
:10124000BF12000092120000791300000400000099
:10125000180000000030000004000000180000002A
:101260000030000020204D53504D3020536D6172EE
:101270007420566F6963652D506C617965722044E6
:10128000656D6F2053746172742E2E2E2020200DF8
:101290000A002D3E20416374696F6E3A20506C61E4
:1012A0007920566F6963652028466F6C64657220EB
:1012B00030302C20547261636B2031290D0A002DCF
:1012C0003E20416374696F6E3A20506C6179204D05
:1012D000757369632028466F6C6465722030312C09
:1012E00020547261636B2031290D0A002D3E20418C
:1012F0006374696F6E3A2053657420566F6C756D18
:101300006520746F2031300D0A002D3E204163743A
:10131000696F6E3A2053657420566F6C756D652049
:10132000746F2032300D0A002D3E20506C617965BB
:101330007220496E69743A20566F6C756D65207322
:10134000657420746F2032300D0A003D3D3D3D3DF7
:101350003D3D3D3D3D3D3D3D3D3D3D3D3D3D3D3DBD
:101360003D3D3D3D3D3D3D3D3D3D3D3D3D3D3D3DAD
:101370003D3D3D3D3D3D0D0A002D3E205761726EC5
:10138000696E673A20556E68616E646C65642056BC
:101390006F6963652049440D0A002D3E2041637446
:1013A000696F6E3A2050415553450D0A00566F69DA
:1013B00063652054726967676572656421204944DA
:1013C0003A20307800000000D813000000002020F0
:0813D0006001000008010000AB
:04000005000000C136
:00000001FF
