:020000040000FA
:10000000680120204D010000510100005301000053
:1000100000000000000000000000000000000000E0
:10002000000000000000000000000000550100007A
:10003000000000000000000057010000590100000E
:100040005B0100005B0100005B0100005B01000040
:100050005B0100005B0100005B0100005B01000030
:10006000000000005B0100005B01000000000000D8
:10007000000000005B0100005B0100005B0100006C
:100080005B0100005B0100005B0100005B01000000
:100090005B0100005B0100000000000000000000A8
:1000A0005B0100005B010000000000000000000098
:1000B0005B010000000000005B0100005B0100002C
:1000C00000F002F800F032F80CA030C8083824180C
:1000D0002D18671EA246AB4654465D46AC4201D180
:1000E00000F024F87E460F3EB6460FCC0126334280
:1000F00000D0FB1A3343A246AB4618476C100000F1
:100100007C100000000000000023002400250026D1
:10011000103A01D378C1FBD8520700D330C100D5C3
:100120000B6070471FB51FBD10B510BD00F027F85C
:100130001146FFF7F7FF00F0ABFE00F03FF803B405
:10014000FFF7F2FF03BC00F045F800000648004747
:10015000FEE7FEE7FEE7FEE7FEE7FEE703480449A9
:10016000024A044B70470000C100000068002020D4
:10017000680120206800202070477047704775464E
:1001800000F024F8AE46050069465346C008C0009A
:10019000854618B020B5FFF7E1FF60BCB6460026E3
:1001A0000027C0C5C0C5C0C5C0C5C0C5C0C5C0C585
:1001B000C0C5403D490849008D46704710B504460A
:1001C000C046C0462046FFF7BAFF10BD0048704742
:1001D0000000202001491820ABBEFEE726000200E7
:1001E0007047811E091F00BFFCD27047B0B51122B5
:1001F000120283580124A34383500B888C781C433C
:100200008B882343094C1C408358094D1D406319BA
:1002100083508B79CC791C43097A21437E23194082
:10022000801842689A4351184160B0BD18670000B9
:10023000E798FDFF10B50122120383180C789C602B
:100240004978815010BD0000F0B587B0DB487E4989
:100250000160DB4D01262E61A0242046FFF7C1FF7F
:100260002E602046FFF7BDFF784908680F460690CC
:100270002046FFF7B6FF2E612046FFF7B2FF2E6043
:100280002046FFF7AEFF386805902046FFF7A9FF2C
:100290002E612046FFF7A5FF2E602046FFF7A1FF45
:1002A000386804902046FFF79CFF2E612046FFF738
:1002B00098FF2E602046FFF794FF38680390204691
:1002C000FFF78FFF2E612046FFF78BFF2E60204641
:1002D000FFF787FF386802902046FFF782FF2E6104
:1002E0002046FFF77EFF2E602046FFF77AFF386832
:1002F00001902046FFF775FF2E612046FFF771FF42
:100300002E602046FFF76DFF504807682046FFF734
:1003100068FF2E612046FFF764FF2E602046FFF73E
:1003200060FF4A4805682046FFF75BFF06984200D9
:1003300004210A400220059B03409A189200049B66
:100340005B000B40D218039B03409A189200029B5B
:100350005B000B40D118019A024051184900074038
:100360007818A907C90F0818C0B207B0F0BDC04679
:10037000F0B581B0914934480860914E022737604A
:10038000A0252846FFF72DFF012434602846FFF7FB
:1003900028FF2E4D2868800735D5A020FFF721FFC4
:1003A000286880072FD5A020FFF71BFF286880074B
:1003B00029D5A020FFF715FF2868800723D5A020A6
:1003C000FFF70FFF286880071DD5A020FFF709FF62
:1003D0002868800717D5A020FFF703FF286880074B
:1003E00011D5A020FFF7FDFE286880070BD5A020BF
:1003F000FFF7F7FE2868800705D5A020FFF7F1FE7C
:10040000286880070AD40120306181206B49086088
:10041000376037640024204601B0F0BDA020009072
:10042000FFF7DFFE28688120644908603760376481
:10043000346137613460009D2846FFF7D2FE376093
:100440002846FFF7CEFEE6E78100040080130A404D
:10045000F0B581B0594A81211160594E02243460AF
:10046000346401273761009040B2002801D4346120
:1004700000E034604020FFF7B4FEC020FFF7B1FE7B
:10048000376080252846FFF7ACFE37612846FFF726
:10049000A8FE0098400601D4346100E0346040209A
:1004A000FFF79FFEC020FFF79CFE3760802528469F
:1004B000FFF797FE37612846FFF793FE0098800606
:1004C00001D4346100E034604020FFF78AFEC02090
:1004D000FFF787FE376080252846FFF782FE3761E9
:1004E0002846FFF77EFE0098C00601D4346100E084
:1004F00034604020FFF775FEC020FFF772FE3760C2
:1005000080252846FFF76DFE37612846FFF769FE14
:100510000098000701D4346100E034604020FFF708
:1005200060FEC020FFF75DFE376080252846FFF79C
:1005300058FE37612846FFF754FE0098400701D463
:10054000346100E034604020FFF74BFEC020FFF72D
:1005500048FE376080252846FFF743FE376128466E
:10056000FFF73FFE0098800701D4346100E034605B
:100570004020FFF736FEC020FFF733FE37608025AE
:100580002846FFF72EFE37612846FFF72AFE00981F
:10059000C00701D1346100E034604020FFF721FE44
:1005A000C020FFF71EFE376080242046FFF719FEAB
:1005B00037612046FFF715FE01B0F0BD08804240CC
:1005C00090120A4001461039A12900D9B6E0012055
:1005D0004900C0467944898849008F44B000B00082
:1005E000B000AF00AF00AF00AF00AF00AF00AF0092
:1005F000AF00AF00AF00AF00AF00AF00B100AF0081
:10060000AF00AF00AF00AF00AF00AF00AF00AF0072
:10061000AF00AF00AF00AF00AF00AF00A100A1007E
:10062000A100A100AF00AF00AF00AF00AF00AF006E
:10063000AF00AF00AF00AF00AF00AF00A700A70052
:10064000AF00AF00AF00AF00AF00AF00AF00AF0032
:10065000AF00AF00AF00AF00AF00AF00A900A9002E
:10066000AF00AF00AF00AF00AF00AF00AF00AF0012
:10067000AF00AF00AF00AF00AF00AF00B300AF00FE
:10068000AF00AF00AF00AF00AF00AF00AF00AF00F2
:10069000AF00AF00AF00AF00AF00AF00A300A300FA
:1006A000A300A300AF00AF00AF00AF00AF00AF00EA
:1006B000AF00AF00AF00AF00AF00AF00A500A500D6
:1006C000A500A500AF00AF00AF00AF00AF00AF00C6
:1006D000AF00AF00AF00AF00AF00AF00AF00AF00A2
:1006E000AF00AF00AF00AF00AF00AF00AF00AF0092
:1006F000AF00AF00AF00AF00AF00AF00AB00AB008A
:10070000AF00AF00AF00AF00AF00AF00AF00AF0071
:10071000AF00AF00AF00AF00AF00AF00AD00AD0065
:100720000320704707207047082070470420704757
:1007300005207047092070470A2070470020704745
:10074000022070470620704780B5C2B20005010F35
:100750001031142000F00AF880BD80B5C2B2000547
:10076000010F142000F002F880BD0000B0B543185E
:100770009C18464B1D68ED0708D01D68ED0705D095
:100780001D68ED0702D01D68ED07F3D17E259D6140
:100790001D68ED0708D01D68ED0705D01D68ED0741
:1007A00002D01D68ED07F3D1FF259D611D68ED079F
:1007B00008D01D68ED0705D01D68ED0702D01D6843
:1007C000ED07F3D106259D611D68ED0708D01D6872
:1007D000ED0705D01D68ED0702D01D68ED07F3D1C8
:1007E00098611868C00708D01868C00705D0186855
:1007F000C00702D01868C007F3D1002098611868BC
:10080000C00708D01868C00705D01868C00702D014
:100810001868C007F3D199611868C00708D0186834
:10082000C00705D01868C00702D01868C007F3D108
:100830009A611868C00708D01868C00705D0186802
:10084000C00702D01868C007F3D11148001B010A85
:1008500099611968C90708D01968C90705D01968CE
:10086000C90702D01968C907F3D1C0B298611868E6
:10087000C00708D01868C00705D01868C00702D0A4
:100880001868C007F3D1EF209861B0BD081110407F
:10089000FBFE000080B502461E2800D31E22062063
:1008A0000021FFF763FF80BD0A48822101650A4AE3
:1008B00042658165C265094981220A600260426021
:1008C000012080050649086103220A60C01C0864F3
:1008D0007047C0460480424082000400BC80424011
:1008E00090120A400C48002101600320C1430B48CC
:1008F0000246083A13680B401360016801229143D5
:100900000160110203688B4303601103001F02683A
:100910000A4302607047C04608030B4008010B40C1
:1009200010B5124C12492046FFF784FC11492046AD
:10093000FFF75CFC0321CA030F480368934303607D
:100940000269274B13401A33036142690A433C2171
:100950008A43426141680122114043689343591818
:10096000416001681143016010BDC04600001040A5
:1009700004110000061100000011104010B5144CC5
:1009800014492046FFF756FC13492046FFF72EFC7A
:100990000321CA0311480368934303600269104BA3
:1009A00013401A33036142690A433C218A4342617E
:1009B00041680122114043689343591841609102F4
:1009C000084B1C680C431C6001681143016010BD9A
:1009D00000801040F8100000FA1000000091104054
:1009E0000000FFFF2890104080B500F009F8FFF7E5
:1009F0005BFFFFF777FFFFF7C1FFFFF791FF80BDB8
:100A000010B5094809494160094A5160094B5960CC
:100A1000094C616009490160116019602160102072
:100A2000FFF7DFFB10BDC04600080A40030000B11D
:100A300000280A40008810400008104001000026ED
:100A4000B0B5D34C2178012810D100290ED0D14D5A
:100A50002A78521C2A70D2B2032A0CD32820207084
:100A60003520FFF77AFE00202870B0BD002802D0A4
:100A7000C84A0023137024294BD849007944898837
:100A800049008F4424002D004600460049005700CD
:100A9000B80069007100460046007A004600C300B5
:100AA000D40046004600460080008B0046008F00C0
:100AB000970046009A00A00046004600E000E900CA
:100AC000A600AF004600460046004600F40001289C
:100AD00000D0D0E0012020700220FFF73EFEB0BD24
:100AE000801E092817D84000784480884000874439
:100AF0000900C50048013500EA001200400012005C
:100B000012004000022020700320FFF726FEA648B6
:100B10002BE101202070B0BDFB210140032900D052
:100B2000B2E0052020700120FFF70EFE0C20FFF739
:100B300014FEB0BDC01E0528EDD8C046784400792B
:100B400040008744035D02025D03E4E70820207053
:100B50000F20FFF702FEB0BD07280AD11220207037
:100B60001F20FFF7FAFDB0BD082800D1B9E0072823
:100B7000D1D1032020700420E3E00128CBD10C2048
:100B800020701320EEE0072802D0042800D0B3E044
:100B9000132020702020FFF7E0FDB0BD072800D013
:100BA000E5E0B1E0072878D1162020702320FFF778
:100BB000D4FDB0BD072878D0D9E0192020702620B8
:100BC000FFF7CBFDB0BD072875D11A202070272074
:100BD000C8E0092800D19DE00A2800D0A5E02E2019
:100BE000212199E0092800D19AE00A2800D09CE050
:100BF0003020232196E0082800D19FE007288AD1E1
:100C0000072020700E20FFF7A8FDB0BD042805D0F6
:100C1000082800D1AEE0072800D07CE70E20207025
:100C20000220FFF791FD1620FFF797FDB0BD0428C5
:100C300005D0082800D192E0072800D06BE71020EB
:100C4000207018207DE0072800D090E01D20207043
:100C50002A20FFF782FDB0BD0A287AD0092800D0EB
:100C600059E71E2020702B20FFF777FDB0BD072825
:100C70002FD026212EE0032800D04CE7042020703E
:100C80000B20FFF76AFDB0BD082800D043E706201F
:100C900020700D20FFF761FDB0BD172020702420CB
:100CA000FFF75BFD3C48FFF79CFA182020702520D9
:100CB000FFF753FDB0BD1B2020702820FFF74DFD2E
:100CC0003748FFF78EFA1C2020702920FFF745FDDA
:100CD000B0BD25212170072801D0332042E0322009
:100CE00040E00A2020701120FFF737FD2D48FFF764
:100CF00078FA0B202070B0BD142020702120FFF75F
:100D00002CFD2548FFF76DFA152020702220FFF7F3
:100D100024FDB0BD2D2020212170FFF71EFD04E031
:100D20002F2022212170FFF718FD1C48FFF759FAE8
:100D3000242020703120FFF710FDB0BD0920207065
:100D40001020FFF70AFD1448FFF74BFA002020702F
:100D5000B0BD1F2020702C20FFF7FFFCB0BD11207C
:100D600020701920FFF7F9FC0B48FFF73AFA012031
:100D70002070B0BD0F2020701720FFF7EEFC084850
:100D8000F3E70D2020701520FFF7E7FCB0BDC0464B
:100D9000600020206100202000D8B8050040420FEC
:100DA0000020A10700B0710B00688909F0B583B07D
:100DB0003548812102910160344E02273760376443
:100DC0000125356137603560A0242046FFF709FA18
:100DD00037612046FFF705FA35612046FFF701FA33
:100DE0006820FFF735FB0024FFF7C2FA012848D03E
:100DF0006420FFF72DFBFFF7BBFA012841D0224802
:100E0000029901603760376435613760356001945D
:100E1000A0242046FFF7E5F937612046FFF7E1F906
:100E200035612046019CFFF7DCF96920FFF710FBD4
:100E3000FFF79EFA012824D0FFF706FA044612486D
:100E4000029901603760376435613761A0200190F5
:100E5000FFF7C7F9376035600198FFF7C2F93561D0
:100E60003760029808490860376037643561376138
:100E70003560019D2846FFF7B4F937602846FFF733
:100E8000B0F9204603B0F0BD0880424090120A40FD
:100E9000FFF7AAFD1420FFF7FDFC8F4846228F4E76
:100EA000034606E0B261CB1CCA78014627318B426B
:100EB0002AD019463368DB0708D03368DB0705D032
:100EC0003368DB0702D03368DB07F3D1D2B2B261FB
:100ED0004A783368DB0708D03368DB0705D033680E
:100EE000DB0702D03368DB07F3D1B2618A7833685D
:100EF000DB07D7D03368DB07D4D03368DB07D1D02A
:100F00003368DB07F3D1CDE70025774C03E00B20F6
:100F1000FFF796FD3D460120800571490860714844
:100F2000FFF75FF9FFF742FF0746002858D0E8B205
:100F3000874255D04821224602E0B161021D017965
:100F400010463268D20708D03268D20705D032681E
:100F5000D20702D03268D207F3D1C9B2B161417869
:100F60003268D20708D03268D20705D03268D2077B
:100F700002D03268D207F3D1B16181783268D207EA
:100F800008D03268D20705D03268D20702D0326862
:100F9000D207F3D1B16121461331C21C8A420DD070
:100FA000C1783268D207C8D03268D207C5D032685B
:100FB000D207C2D03268D207F3D1BEE73068C0078B
:100FC00008D03068C00705D03068C00702D030684C
:100FD000C007F3D17909380905293FD337303EE0FE
:100FE000002F3D4697D14248007800283D4692D0D8
:100FF0000B283D468FD03D490868401C0860FA2800
:101000003D4688D30020394908604521394B1A46AE
:1010100007E0B161821C817818461A30824200D103
:1010200075E710463268D20708D03268D20705D07B
:101030003268D20702D03268D207F3D1C9B2B161A7
:1010400041783268D207E4D03268D207E1D0326802
:10105000D207DED03268D207F3D1DAE73030B061A0
:101060003068C00708D03068C00705D03068C007B6
:1010700002D03068C007F3D10F21384608400A2853
:1010800001D3373000E03030B0613068C00708D09D
:101090003068C00705D03068C00702D03068C0078C
:1010A000F3D10D20B0613068C00708D03068C007A8
:1010B00005D03068C00702D03068C007F3D10A20DD
:1010C000B0613846FFF77EFA0021084A1160002817
:1010D0003D4600D01CE71EE71011000008911040AB
:1010E000B0120A4000D430005311000064002020E8
:1010F00060002020381100000400000018000000EB
:101100000030000004000000180000000030000063
:10111000466C6F77657220436F6D70616E696F6E9C
:10112000205374617465204D616368696E65205257
:10113000656164792E0D0A004576656E743A205417
:10114000696D656F7574205472696767657265644F
:101150000D0A004857204944205472696767657238
:1011600065643A20307800007811000000002020EB
:08117000680100000801000005
:04000005000000C136
:00000001FF
