:020000040000FA
:10000000000320207D010000810100008301000029
:1000100000000000000000000000000000000000E0
:10002000000000000000000000000000850100004A
:1000300000000000000000008701000089010000AE
:100040008B0100008B0100008B0100008B01000080
:10005000890D00008B0100008B0100008B01000066
:10006000000000008B0100008B0100000000000078
:10007000000000008B0100008B010000B91200009D
:100080008B0100008B0100008B0100008B01000040
:100090008B0100008B010000000000000000000048
:1000A0008B0100008B010000000000000000000038
:1000B0008B010000000000008B0100008B0100009C
:1000C00000F002F800F04AF80CA030C808382418F4
:1000D0002D18671EA246AB4654465D46AC4201D180
:1000E00000F03CF87E460F3EB6460FCC0126334268
:1000F00000D0FB1A3343A246AB461847AC180000A9
:10010000CC18000000000000103A02D378C878C173
:10011000FAD8520701D330C830C101D504680C6049
:100120007047000000000000002300240025002686
:10013000103A01D378C1FBD8520700D330C100D5A3
:100140000B60704710B5642902D100F071F810BD42
:10015000002010BD1FB51FBD10B510BD00F0E8FD9B
:100160001146FFF7F7FF01F00DF900F000FE03B4B0
:10017000FFF7F2FF03BC01F0CDF80000064800478E
:10018000FEE7FEE7FEE7FEE7FEE7FEE70348044979
:10019000024A044B70470000C1000000000220200A
:1001A00000032020000220200FB4054910B503AA47
:1001B000029800F079FD10BC08BC04B0184700009C
:1001C00068002020F8B50E46044600202062204634
:1001D000E1688847002829D0252802D06268A168F4
:1001E00020E0E16820460027884705001ED0284609
:1001F0004138192802D80127FF022035324620460F
:1002000027602946FFF79EFF002808D0012804D068
:10021000F61DF608F6000836D9E7361DD7E76268FE
:100220002846A1689047206A401CCFE7206AF8BDA5
:10023000F7B5002575291068009914A611D0C0469D
:10024000C046002802DA404211A608E00099096879
:100250008A0701D50FA602E0490704D50EA601259D
:1002600001E0C046C046009F0024243704E000F0AF
:100270002FFD30313955641C0028F8D12B46324609
:100280002146009800F0B8FCFEBD00000000000010
:100290002D0000002B0000002000000010B50446D7
:1002A00003E001F05DF8401C08D020780549641C8B
:1002B0000028F6D10A2001F053F810BD0020C043F9
:1002C00010BD000068002020002203098B4273D378
:1002D000030A8B4258D3030B8B423CD3030C8B4253
:1002E00021D312E003460B437FD4002243088B4204
:1002F00074D303098B425FD3030A8B4244D3030BAD
:100300008B4228D3030C8B420DD30902FF2212BA71
:10031000030C8B4202D31212090265D0030B8B42ED
:1003200019D300E0090AC30B8B4201D3CB03C01AD7
:100330005241830B8B4201D38B03C01A5241430BB2
:100340008B4201D34B03C01A5241030B8B4201D3A2
:100350000B03C01A5241C30A8B4201D3CB02C01A0D
:100360005241830A8B4201D38B02C01A5241430A85
:100370008B4201D34B02C01A5241030A8B4201D374
:100380000B02C01A5241CDD2C3098B4201D3CB011B
:10039000C01A524183098B4201D38B01C01A5241CA
:1003A00043098B4201D34B01C01A524103098B42CE
:1003B00001D30B01C01A5241C3088B4201D3CB00B9
:1003C000C01A524183088B4201D38B00C01A52419C
:1003D00043088B4201D34B00C01A5241411A00D24C
:1003E00001465241104670475DE0CA0F00D04942B5
:1003F000031000D3404253409C46002203098B4225
:100400002DD3030A8B4212D38901FC2212BA030AAC
:100410008B420CD3890192118B4208D3890192112E
:100420008B4204D389013AD0921100E08909C309B3
:100430008B4201D3CB01C01A524183098B4201D3B5
:100440008B01C01A524143098B4201D34B01C01AA0
:10045000524103098B4201D30B01C01A5241C30818
:100460008B4201D3CB00C01A524183088B4201D387
:100470008B00C01A5241D9D243088B4201D34B00A2
:10048000C01A5241411A00D20146524110466346F9
:100490005B1001D34042002B00D5494270476346B0
:1004A0005B1000D3404201B50449002802DC491C1E
:1004B000084000E00846C046C04602BDFFFFFF7F7F
:1004C0007047704770470000F0B5F94D0C091E09E0
:1004D0002C402E402F468BB0A7437DD0B543FCD097
:1004E000002E7AD0002CFCD00D465D40ED0F254348
:1004F000AC1BFF25AD0464190894C502440DC90264
:100500002143500DDC0204430120C0070143044392
:10051000D2020191200C110C00958C460104234657
:100520008B430A9161460904E24D8A430991010A0D
:100530007D4449198039097805464D4301266D18D7
:10054000F605751B6943C90C640B891C4C43641880
:10055000B5012C1B250C2E04B4434C434D43210CF8
:10056000691889090591009DE90701D00121C90792
:1005700004912C4601996708CD072F434C08059D2F
:10058000E10B4D432D0C29466646754302950D46F9
:1005900045432E46029D7D1BB44100950D465D43AB
:1005A00001942C0C2F040D465543AE462D0C3D43B3
:1005B000029503947546049C2D04641B049406D292
:1005C000029C039D641C002675410395029401ACB6
:1005D00070CC009F7D1B01E03EE162E1B441090463
:1005E0000095079101940599A4086143090C0C46F4
:1005F0004443650BE7040C4666467443A646640B09
:100600003C43039502947446049DE4042C1B04941B
:1006100006D2029C039D641C00267541039502943A
:1006200001AC70CC009F7D1BB44101940C465C432F
:100630000095650FE7000C465443A646640F3C4303
:10064000039502947446049DE4002C1B049406D286
:10065000029C039D641C002675410395029401AC25
:1006600070CC009F7D1BB441AE09AF06049DC9004C
:10067000AD092F43049DA406AD060495079D3443A0
:1006800069180791059DE10B4D432D0C29466646DF
:10069000754302950D4645432E46029D7D1BB44190
:1006A00000950D465D4301942C0C2F040D465543D7
:1006B000AE462D0C3D43029503947546049C2D04D3
:1006C000641B049406D2029C039D641C00267541A1
:1006D0000395029401AC70CC009F7D1BB441019442
:1006E0008C050694079C890A611800950791019C66
:1006F0000599A4086143090C0D464543680BEF04B6
:100700000D46644665436C0B3C43049FED047D1B22
:10071000AC4602D20025641C6841009E019D371B37
:1007200085410846584301950C46460FC500544381
:10073000600F28436546E4002C1B02D20025401CB4
:100740006E41019D3F1AB5412846BD0980062843E8
:100750008446A009BF064E020699A40676180743F0
:10076000079D002068410A99079019430020099BC2
:1007700000906046FF1913434041E20F64003A4382
:10078000A4460446D71A8C41A04203D90120009008
:1007900020463A46C70F941840416246D20F224382
:1007A000644664000494009CBE466400D71AA446C4
:1007B000044602978C417746002F01D1A04204D90C
:1007C0006046401C8446029A2046C40FA6469418F0
:1007D0004041049A0546D20F224364466400D31A6E
:1007E0008D417146002901D1A84202D928461A46F6
:1007F000641C10430122002800D01643610200202F
:10080000079B891904465C410223002C02DB49182E
:1008100013466441089DCE0A2D145D194B056705EA
:10082000E10A2C050D1908993E43C9076940002BC0
:1008300008D0934006D30022761C5141002B01D1F1
:10084000760876001C4A002D43DB154241D0AA43AE
:100850003FD030460BB0F0BD06180D464D41174C49
:100860007642AC411AD395181C465C41134A6D423E
:10087000A24113D3012252054C00D4420AD15C009C
:10088000D4420BD04B4002D592021143E2E749001B
:100890004908DFE75940C90FC90718E00020084997
:1008A000D8E7054801420DD10342F7D0F2E7000036
:1008B0000000FF07521300000000F07F0000E0FF7F
:1008C0000000F87F114859400143C0124140002008
:1008D000C0E70123089A9B069A4205DC03225207CF
:1008E0008918C90FC907B5E7052252078918074AB1
:1008F0001143D2125140ADE770B515461C46024671
:100900000B4628462146FFF7DFFD70BDFFFFFF7F46
:100910000346CA02400D10B510430A1504D0012445
:10092000E4072043002A05DB0A4CA21A04D4D04075
:10093000FF2A00DD002010BD4A00002B01D001205D
:1009400000E00020101801225205D042F2D8C8174A
:10095000C04310BD1E0400001F22030C02D10F2251
:10096000000402D0030E03D004E0002001467047CB
:100970000002083A030F01D10001121F830F01D1B9
:100980008000921E002801DB4000521E1205511803
:100990004205C012411810467047C10FC90700D068
:1009A0004042012292071143D6E701218907D3E78C
:1009B000F0B58B4C0F09254689B0BD437BD01D098E
:1009C0002646AE43FAD00E465E402740F60F3E4321
:1009D000254071D024012142FBD0FF24AD19A4048D
:1009E0002D1B039501252D05DB02DB0AC9022B43D4
:1009F000C90A29431E010901040F130F05012143F0
:100A00001701880B820391432D098C46A90B1E43C5
:100A10008A039543B30B9A0396433F09BA0B940399
:100A2000A74302962E467E430497B6464E19D71921
:100A30000C460196544305977E43371B7646BF1BF1
:100A40003601B646BE0B361900967646BC043719F9
:100A5000009C01D3641C00946400002F01D0012687
:100A60003443029E049F754366467E430496760097
:100A700034196E0034190094029C019E1C196643BF
:100A8000751BAE46069465464519059C05956C4355
:100A9000594375460891691A0191049E01465143D4
:100AA000A41B0491611A009C0791E10605D061091D
:100AB0000122114302E072E06EE06109089D002707
:100AC0002C0A2D066918049D7C412A0A2D066918F6
:100AD000019D6241AC0DAD026D185441079A910D14
:100AE000920255196141029A644658435443069B49
:100AF000059A5A43121A131B9A0E9B015B187A41EE
:100B0000010B0005C3185141220A200644195A411D
:100B10009A4200D2491C01204002814203D315238E
:100B20000226F64302E014230326F6432020C51ACA
:100B3000A9401746AF40DA400A4320460399D840FF
:100B40000914731819055118039A3843D2075140F4
:100B5000AC4009D00122944006D30022401C5141F0
:100B6000002C01D1400840001E4A934212D30122BA
:100B700003989206904207DB0520400709181A489F
:100B80000143C012414004E0032040070818C10F90
:100B9000C907002009B0F0BD0020F107FAE70518E9
:100BA0000C464C4111486D42A04115D394181A4689
:100BB0005A410E48644290410ED301204A0040053C
:100BC000824209D35A00824206D35940C90F084ACB
:100BD000C90700201143DDE700200649DAE70000DD
:100BE0000000FF07FE070000FFFFFF7F0000E0FF9F
:100BF0000000F07F0000F87FFFB504460D4681B08D
:100C0000243000902168880604D51022E0699143C1
:100C1000216000E00120A84201DD471B00E0002721
:100C20000498A1697A191018081AA0612078C006E2
:100C300002D42046C046C046002608E003986268F9
:100C4000A168805D9047206A401C761C2062049851
:100C50008642F3DB2078C0060AD52046C046C0464F
:100C600006E06268A16830209047206A401C20623C
:100C700038467F1E0028F4DC07E000986268A1680F
:100C8000405D9047206A401C206228466D1E002867
:100C9000F3DC2046C046C0462078000602D502207C
:100CA00005B0F0BD0120FBE7084B70B50D467B4455
:100CB00000F027F80446284600F036F8002802D055
:100CC0000020C04370BD204670BD0000AF0600008C
:100CD00001468008081A02091018020A1018020CAE
:100CE0001018C008820012185200891A01E0401C36
:100CF0000A390A29FBD2704701694A1C0261087847
:100D0000704700B58FB0029100210591054901930C
:100D100079440391114604906846FFF753FA0FB0E7
:100D200000BD0000E5FFFFFFC0688021084070475C
:100D3000754600F025F8AE46050069465346C008E2
:100D4000C000854618B020B5FFF720FA60BCB64653
:100D500000260027C0C5C0C5C0C5C0C5C0C5C0C528
:100D6000C0C5C0C5403D490849008D46704710B513
:100D70000446C046C0462046FFF7F9F910BD000002
:100D8000004870470800202004480068C0B20A28C4
:100D900002D10348012101707047C0462010004075
:100DA000BC002020B0B50A78032313400B4A8458B6
:100DB0000B4D2540EB18A92424061B19835007224C
:100DC00012064B6813401124240205599543EA1872
:100DD0000251001949780161B0BDC0460808000001
:100DE000FCFFFF00811E091F00BFFCD270470000FE
:100DF000F0B53C4A82183C4BC31808794E793B4DFC
:100E00003B4C002E23D0202804D00526F6010028D4
:100E100003D003E0374E002800D18826576F2F40BB
:100E200037435767976F2F4037439767566B264076
:100E30005663966B264096630026566596658F2608
:100E4000F6435F6837405F609F6837409F608E79E8
:100E5000096820280BD0002819D1491E5160D76E8F
:100E60002F4088210F43D7661746703719E0491E77
:100E70005160D16E29401F4F3943D166116F29400F
:100E800039431167012149071B4D174609E04908FD
:100E90005160D76E2F400521C9010F43D766174611
:100EA00070373C682C400C433C60D16A104C2140A8
:100EB000D162116B214011630021D16411658F2132
:100EC000C943D46F0C40D4671C680C401C600643B7
:100ED000BD2030401168094B0B40C018801C1060C9
:100EE000F0BDC046041800008418000024493E00EC
:100EF0008888FDFF01040000FFFFFFCF4000FFCF07
:100F000010B507239B04194092008018024A8458A8
:100F10009C436118815010BD3018000010B5029C30
:100F2000A400001911431943014A815010BDC04665
:100F30005018000092008018014A81507047C04646
:100F40001018000010B50122120383180C789C6061
:100F50004B7883508978014A815010BD0C110000F4
:100F6000B0B51122120283580124A34383500B8889
:100F70008C781C438B882343094C1C408358094DB3
:100F80001D40631983508B79CC791C43097A214326
:100F90007E231940801842689A4351184160B0BDC1
:100FA00018670000E798FDFF10B5012212038318AF
:100FB0000C789C604978815010BD000010B5012468
:100FC000A0071149FFF7EEFE10484168104A0A4099
:100FD00021045118416081680E4A0A4021065118C7
:100FE00081600D4900220A604C600C494161032177
:100FF00009020B4A136A0B43136213680B43136015
:1010000001682143016010BD081900000011004073
:10101000FEFFECFFF8FFE0E080110040409C000084
:101020002810004010B5194908464438852202604E
:101030000120C20316480260164A82231365164C2B
:1010400054659365D4658123136053600C46503C0E
:1010500023600C46483C23600C46203C23600C4631
:101060001C3C236093610A1F13600C4A0A600A68E3
:101070000A604B60014630390522D2050A600146FC
:101080004039074A0A600749016010BDD8804240D4
:10109000D0120A40048042408200040081000E0009
:1010A000075060000750E002B0B582B0134C1449FD
:1010B0002046FFF747FF13492046FFF799FE1248E5
:1010C0000168124A0A400260002500952046294620
:1010D0002A462B46FFF722FF204629462A46FFF7DD
:1010E0000FFF7D20C10020462A46FFF723FF084856
:1010F00001218160016002B0B0BDC0460020864081
:101100001019000014190000043886407F00FFFF0A
:10111000003186400C48002101600320C1430B4888
:101120000246083A13680B4013600168012291439C
:101130000160110203688B4303601103001F026802
:101140000A4302607047C04608030B4008010B4089
:101150000548042101601F21416000218160016870
:1011600005220A430260704710E000E010B5124CFF
:1011700012492046FFF718FF11492046FFF7F0FEFD
:101180000321CA030F480368934303600269274B96
:1011900013401A33036142690A433C218A43426186
:1011A0004168012211404368934359184160016826
:1011B0001143016010BDC046000010402819000016
:1011C0002A1900000011104010B5144C1449204693
:1011D000FFF7EAFE13492046FFF7C2FE0321CA03C8
:1011E00011480368934303600269104B13401A339C
:1011F000036142690A433C218A43426141680122FA
:10120000114043689343591841609102084B1C6890
:101210000C431C6001681143016010BD0080104048
:101220001C1900001E190000009110400000FFFF73
:101230002890104080B500F015F8FFF7F3FEFFF797
:1012400069FFFFF731FFFFF7BFFFFFF78FFFFFF7E2
:10125000B5FEFFF77DFFB820014900220A5480BD8A
:10126000C000202070B50C480C4941600C4A516008
:101270000C4B59600C4C61600C4D69600C4E7160F8
:101280000C490160116019602160296031601020F3
:10129000FFF7A8FD70BDC04600080A40030000B17A
:1012A00000280A40002886400088104000081040AE
:1012B000000800400100002610B512480068C0B2C6
:1012C0000B281ED12E48C1690F4A13887E2B13D8D4
:1012D00013885C1C14800D4AD1540268D20708D0D0
:1012E0000268D20705D00268D20702D00268D2078E
:1012F000F3D1C9B2816101E00020108004480121CE
:10130000017010BD20901040FE0120207C012020A3
:10131000FC01202070470000B0B57D210902414347
:101320000E480368262206E0E41A051F2D6864199A
:10133000A2188A4210D21C4603689C4208D1036856
:101340009C4205D103689C4202D103689C42F3D0C1
:101350009C42E9D9E41AEBE7B0BDC04618E000E0D2
:1013600007490A68D20708D00A68D20705D00A6878
:10137000D20702D00A68D207F3D1C2B28A6170479D
:101380000891104094B0FFF755FF8A481021016082
:10139000894C20680126B043206088486060884FEF
:1013A0008849002538462A46FFF7C4FD2068129672
:1013B00030432060844C2046FEF770FF8348FEF7E0
:1013C0006DFF2046FEF76AFF81A0FEF767FF7D26CE
:1013D0003101384607912A46FFF7ACFD804C256065
:1013E0000896F6003046FFF797FF7EA0FEF756FFFF
:1013F000384674492A46FFF79DFD5A272760304634
:10140000FFF78AFF7BA0FEF749FF7E496C482A461A
:10141000FFF790FDB420099020603046FFF77CFF75
:1014200079A0FEF73BFF664866490A952A46FFF712
:1014300081FD27603046FFF76FFF634C2046FEF7C3
:101440002DFF75A0FEF72AFF79A0FEF727FF80A0E9
:10145000FEF724FF2046FEF721FF10E008988001E8
:101460006043099900F014F9079941180022544883
:10147000FFF760FD5A4804603220FFF74DFF7C4BB8
:101480007D4A0A9810701298000259680143596009
:10149000107800280DD120BF1078002809D120BF76
:1014A0001078002805D120BF1078002801D120BF76
:1014B000EEE77048056840681968129A1143196090
:1014C00080B21190FFF771FA00273A466B4BFEF796
:1014D000FBFF6B4A6B4BFFF76BFA3A466A4BFFF721
:1014E00067FAFFF715FA6421139106460F9000F092
:1014F000CFF810900A243046214600F0C9F80D902C
:101500002146FEF7E1FE0E91A8B20646FFF74DFA1E
:101510003A465A4BFEF7D8FF594A5A4BFFF748FA5A
:101520003A46594BFFF744FAFFF7F2F9054613998B
:1015300000F0AEF80C902846214600F0A9F80746C6
:101540002146FEF7C1FE0B912548036811983146EC
:10155000861B6743ED1B0D9A54430F9A121B00958F
:101560000190109802900E980390049205960693AD
:1015700046480C9A0B9BFEF717FE652E06DB1848B3
:101580000068012800DA77E7401E0AE01398C0439C
:10159000864200DD70E712480068B32800DD6BE783
:1015A000401C0F49086084B2B42C00D256E7099C55
:1015B00054E7C04600E100E0043886407F3801006F
:1015C000002086407017000064190000891900008F
:1015D000546573743A2030206465670D0000000084
:1015E00000002020546573743A2039302064656708
:1015F0000D000000546573743A2031383020646562
:10160000670D000010270000496E69743A203930D8
:10161000206465670D0000004144432074726163DB
:101620006B696E6720737461727465640D000000ED
:1016300043483236203E2043483237202D3E206139
:101640006E676C652064656372656173650D00008B
:1016500043483237203E2043483236202D3E206119
:101660006E676C6520696E6372656173650D00005D
:101670000011004080625540BC00202000FEAF40B9
:101680006666666666660A400000594034190000C6
:1016900043088B421AD3002203098B4279D3030AF1
:1016A0008B425ED3030B8B4242D3030C8B4227D376
:1016B0000902FF2212BA030C8B4202D31212090252
:1016C00003D0030B8B4233D31AE0D3E0411A80419D
:1016D000401C704703460B4371D443088B42F5D33B
:1016E000002203098B4254D3030A8B4239D3030BE4
:1016F0008B421DD3030C8B4202D394466EE0090A41
:10170000C30B8B4201D3CB03C01A5241830B8B42D4
:1017100001D38B03C01A5241430B8B4201D34B03BD
:10172000C01A5241030B8B4201D30B03C01A524122
:10173000C30A8B4201D3CB02C01A5241830A8B42A7
:1017400001D38B02C01A5241430A8B4201D34B0290
:10175000C01A5241030A8B4201D30B02C01A5241F4
:10176000CDD2C3098B4201D3CB01C01A52418309A8
:101770008B4201D38B01C01A524143098B4201D3E2
:101780004B01C01A524103098B4201D30B01C01A0D
:101790005241C3088B4201D3CB00C01A5241830887
:1017A0008B4201D38B00C01A524143088B4201D3B4
:1017B0004B00C01A5241411A524110007047CA0FE3
:1017C00000D04942031000D34042534000229C46BF
:1017D00003098B422DD3030A8B4212D38901FC22C9
:1017E00012BA030A8B420CD3890192118B4208D39F
:1017F000890192118B4204D3890137D0921100E004
:101800008909C3098B4201D3CB01C01A5241830914
:101810008B4201D38B01C01A524143098B4201D341
:101820004B01C01A524103098B4201D30B01C01A6C
:101830005241C3088B4201D3CB00C01A52418308E6
:101840008B4201D38B00C01A5241D9D243088B423C
:1018500001D34B00C01A5241411A00D201465241F5
:10186000104663465B1000D34042704763465B10EE
:1018700000D3404201B50021004201D0C9430846CF
:10188000C046C04602BD80807F7E7D7C7B7A7978B1
:10189000777676757473727171706F6E6E6D6C6C35
:1018A0006B6A6A69686867666665646463636261D7
:1018B0006160605F5F5E5E5D5D5C5C5B5B5A5A5958
:1018C00059585857575656555555545453535252C4
:1018D0005251515050504F4F4F4E4E4D4D4D4C4C1C
:1018E0004C4B4B4B4A4A4A49494948484847474765
:1018F00047464646454545444444444343434342A2
:101900004242424141410000010500000000000345
:1019100008070000E80300000000010004000000C8
:101920001800000000300000040000001800000053
:1019300000300000434832373A25642825642E25BC
:10194000642564562920434832363A2564282564A4
:101950002E25642564562920643A256420613A25A1
:10196000640D0A003D3D3D3D3D3D3D3D3D3D3D3D20
:101970003D3D3D3D3D3D3D3D3D3D3D3D3D3D3D3D97
:101980003D3D3D3D3D3D3D0D00536572766F202B45
:101990002041444320547261636B696E6720446543
:1019A0006D6F0D0000000000C8190000000020202D
:1019B0000800000008010000D019000008002020E5
:1019C000F8020000280100005A000000000000009A
:04000005000000C136
:00000001FF
