:020000040000FA
:10000000C0072020DD010000E1010000E301000045
:1000100000000000000000000000000000000000E0
:10002000000000000000000000000000E5010000EA
:100030000000000000000000E7010000E12B0000CC
:10004000EB010000EB010000EB010000EB01000000
:10005000950B0000EB010000EB010000EB0100003C
:1000600000000000EB010000EB01000000000000B8
:1000700000000000EB010000EB0100003D38000033
:10008000EB010000EB010000EB010000EB010000C0
:10009000EB010000EB010000000000000000000088
:1000A000EB010000EB010000000000000000000078
:1000B000EB01000000000000EB010000EB0100007C
:1000C00000F002F800F07BF80CA030C808382418C3
:1000D0002D18671EA246AB4654465D46AC4201D180
:1000E00000F06DF87E460F3EB6460FCC0126334237
:1000F00000D0FB1A3343A246AB46184764580000B1
:100100008458000000000000103A02D378C878C17B
:10011000FAD8520701D330C830C101D504680C6049
:100120007047000000000000002300240025002686
:10013000103A01D378C1FBD8520700D330C100D5A3
:100140000B60704710B5692902D100F0E1F810BDCD
:10015000642902D100F0DCF810BD752902D100F04D
:10016000D7F810BD6F2902D100F066F910BD7829CB
:1001700002D100F089F910BD0368DB0901D38023A7
:100180001943632902D100F005FC10BD732902D187
:1001900000F008FC10BDE32902D100F026FC10BDE0
:1001A000002010BD1FB500F08DFC040000200021D0
:1001B00003F0A6FD401C60601FBD10B510BD00F02F
:1001C00061FC1146FFF7EEFF03F032FC00F07EFC0D
:1001D00003B4FFF7F2FF03BC03F0D0FB064800476F
:1001E000FEE7FEE7FEE7FEE7FEE7FEE70348044919
:1001F000024A044B70470000C1000000C0062020E6
:10020000C0072020C00620200FB4054910B503AA5E
:10021000029800F0CBFB10BC08BC04B018470000EB
:10022000F00420200FB41CB5074B06AA7B44694696
:100230000090059800F08BFB0020694600F09AFBC7
:100240001CBC08BC04B018474507000070B5044644
:1002500085690068C10601D5302600E02026C00768
:1002600007D070BD62683046A1689047206A401C84
:1002700020626D1EF6D570BD70B5044685690078A4
:10028000C00707D170BD6268A16820209047206A2E
:10029000401C20626D1EF6D570BD09684A0501D567
:1002A00040B27047C905FCD500B2704709684A05DD
:1002B00001D5C0B27047C905FCD580B2704770B592
:1002C0000C460546012A05D02878800600D5EA6943
:1002D000002302E0012305E05B1C934202D2E05CB4
:1002E0000028F9D1A869E618C01AA861286AC018C0
:1002F00028622846FFF7AAFF04E06A682078A96808
:10030000641C9047B442F8D32846FFF7B5FF70BD90
:10031000F7B5002575291068009914A611D0FFF7CC
:10032000BCFF002802DA404211A608E000990968E3
:100330008A0701D50FA602E0490704D50EA60125BC
:1003400001E0FFF7B3FF009F0024243704E000F032
:1003500079FB30313955641C0028F8D12B463246E0
:100360002146009800F095FAFEBD00000000000054
:100370002D0000002B00000020000000F7B504460F
:10038000154686B02B487844002703C83E460090A7
:10039000019111E007986A467100415A02A800F0E5
:1003A00030FB411C07D02178890603D5E269391852
:1003B00091420ED83F18761C2078800602D5E0695D
:1003C000B84206DDAE42E5DB07987100405A0028CE
:1003D000E0D1A069C01BA0612046FFF737FF154898
:1003E00078445A3803C800900020019116E041007B
:1003F0006A460798415A02A800F003FB0590401C8A
:100400000AD0002505E0626802A8A168405D904717
:100410006D1C05988542F6D30498401CB0420490A8
:10042000E5DB206AC01920622046FFF725FF09B0EE
:10043000F0BD0000A239000070B5044621461068E6
:10044000FFF734FF00212546243505E04207C008A8
:10045000520F30326A54491C0028F7D1206800231B
:1004600007A2050708D520252840084304D0E069E5
:10047000012304A2401EE061204600F00AFA70BD8C
:10048000000000003000000070B504460D46214613
:100490001068FFF70BFF2188090502D50F4A7A443F
:1004A00002E00E4A7A440E3223460021243305E04E
:1004B00006070009360F965D5E54491C0028F7D1E7
:1004C00020780023000705D5702D03D0002901D026
:1004D00002231132204600F0DCF970BD9238000092
:1004E000F3B50446002081B020622046E1688847C9
:1004F000002872D0252802D06268A168ABE0594F6D
:1005000000267F442046E16888472028054608DB0E
:10051000312D06D2781920380078002801D0064302
:10052000F0E7B00701D5042086430020E0610746CC
:10053000A0612A2D0AD0284603F0DBFB002827D033
:10054000B8000019303D0090856119E00298BA00AA
:10055000121902C8916102902046E1688847012F74
:10056000054617D1E06900281FDA202086431CE0E9
:1005700000980A2180694843009940193038886101
:100580002046E1688847054603F0B3FB0028EFD119
:10059000012F0AD02E2D08D12046E1688847054654
:1005A000202006437F1C022FC3DBA069002803DA4A
:1005B0004042A06101200643F00701D0102086438D
:1005C0006C2D0BD0682D09D04C2D3CD06A2D38D025
:1005D000742D38D07A2D36D016E040E0E1682F46F1
:1005E00020468847B842054609D16C2F29D0012002
:1005F0008002E168064320468847054604E06C2FE8
:100600001DD0FF2001300643002D28D02846413858
:10061000192803D80120C002064320352046266051
:100620002946029A1646FFF78DFD002810D00128B2
:100630000BD0F61DF008C0000830029055E74020AE
:10064000E1E78020D5E70020D3E7361D02964CE78E
:1006500062682846A1689047206A401C44E7206AE7
:10066000FEBD00005638000010B5044603E003F05C
:10067000CDF9401C08D020780549641C0028F6D12B
:100680000A2003F0C3F910BD0020C04310BD0000D4
:10069000F0042020002203098B4273D3030A8B420B
:1006A00058D3030B8B423CD3030C8B4221D312E073
:1006B00003460B437FD4002243088B4274D30309C3
:1006C0008B425FD3030A8B4244D3030B8B4228D364
:1006D000030C8B420DD30902FF2212BA030C8B428A
:1006E00002D31212090265D0030B8B4219D300E02A
:1006F000090AC30B8B4201D3CB03C01A5241830BAF
:100700008B4201D38B03C01A5241430B8B4201D35E
:100710004B03C01A5241030B8B4201D30B03C01A87
:100720005241C30A8B4201D3CB02C01A5241830A01
:100730008B4201D38B02C01A5241430A8B4201D330
:100740004B02C01A5241030A8B4201D30B02C01A5A
:100750005241CDD2C3098B4201D3CB01C01A5241C1
:1007600083098B4201D38B01C01A524143098B424A
:1007700001D34B01C01A524103098B4201D30B0133
:10078000C01A5241C3088B4201D3CB00C01A524158
:1007900083088B4201D38B00C01A524143088B421D
:1007A00001D34B00C01A5241411A00D201465241B6
:1007B000104670475DE0CA0F00D04942031000D3D5
:1007C000404253409C46002203098B422DD3030A2A
:1007D0008B4212D38901FC2212BA030A8B420CD33A
:1007E000890192118B4208D3890192118B4204D363
:1007F00089013AD0921100E08909C3098B4201D3E3
:10080000CB01C01A524183098B4201D38B01C01A1C
:10081000524143098B4201D34B01C01A5241030993
:100820008B4201D30B01C01A5241C3088B4201D342
:10083000CB00C01A524183088B4201D38B00C01AEF
:100840005241D9D243088B4201D34B00C01A5241C6
:10085000411A00D201465241104663465B1001D353
:100860004042002B00D54942704763465B1000D3DD
:10087000404201B50449002802DC491C084000E060
:100880000846C046C04602BDFFFFFF7F7047704765
:100890007047FFB504460D4681B0243000902168B2
:1008A000880604D51022E0699143216000E0012010
:1008B000A84201DD471B00E000270498A1697A19CE
:1008C0001018081AA0612078C00602D42046FFF74D
:1008D000BDFC002608E003986268A168805D90472F
:1008E000206A401C761C206204988642F3DB207844
:1008F000C0060AD52046FFF7A9FC06E06268A16899
:1009000030209047206A401C206238467F1E002815
:10091000F4DC07E000986268A168405D9047206AB7
:10092000401C206228466D1E0028F3DC2046FFF79D
:10093000A3FC2078000602D5022005B0F0BD0120FE
:10094000FBE7000001694A1C02610878704700B5A6
:100950008FB00291002105910549019379440391DB
:10096000114604906846FFF7BBFD0FB000BD0000C4
:10097000E5FFFFFF0A681070521C0A60704710B54F
:100980004369002B02D0C046C04601E0FFF797FC48
:10099000012010BD1278014624310A7000224A70ED
:1009A0000122ECE711680022D243E8E7084B70B55A
:1009B0000D467B44FFF7CBFF0446284600F05EF867
:1009C000002802D00020C04370BD204670BD00004A
:1009D0005730000010B54369002B02D0C046C04616
:1009E00001E0FFF7CBFC012010BD12880146243145
:1009F00082840022C2840122ECE711680022D243E3
:100A0000E8E7F8B516460C46054600F02FF80368EF
:100A1000FF200230C05C012807D0FF2C0FD8185DE2
:100A200000280CD001202C70F8BDFF33324621463F
:100A300008331868C71828460023B847F8BD0020B7
:100A4000C043F8BD01468008081A02091018020ABE
:100A50001018020C1018C008820012185200891ACF
:100A600001E0401C0A390A29FBD2704710B500F09A
:100A700029F8001D10BD00BF89320000C068802128
:100A800008407047754600F029F8AE4605006946F3
:100A90005346C008C000854618B020B5FFF7A6FB36
:100AA00060BCB64600260027C0C5C0C5C0C5C0C5CD
:100AB000C0C5C0C5C0C5C0C5403D490849008D4638
:100AC00070470000004870473000202010B50446F1
:100AD000C046C0462046FFF77BFB10BD004870476C
:100AE0001000202082078B079A423FD170B5920FE9
:100AF0000AD0032402780B78401C491C002A33D00A
:100B00009A4231D12042F5D1214EF40104C808C9DE
:100B1000951B9543254018D19A420FD104C808C9A6
:100B2000951B9543254010D19A4207D104C808C9A6
:100B3000951B9543254008D19A42E7D012BA1BBABB
:100B400001209A4200D2404270BD12BA1BBA2DBA9F
:100B500018241000E0401900E140401A05D12E0091
:100B6000E64002D1083CF4D1D01A70BD02780B786F
:100B7000401C491C002A09D09A4207D102780B7800
:100B8000401C491C002A01D09A42EFD0D01A70476D
:100B90000101010180B500F001F880BD0448006842
:100BA000C0B20A2802D12448012101707047C04612
:100BB00020100040014810210160704700E100E072
:100BC000F0B581B004461C4800210170A5214D00FC
:100BD00029464A39194B5A680A435A600178002954
:100BE0000DD120BF0178002909D120BF017800294B
:100BF00005D120BF0178002901D120BFEEE71048C0
:100C000001688FB22760406886B2666028467843E4
:100C10000C4902F073FFF11BA160E06075432846A8
:100C2000084902F06BFF2061044A1068012101436A
:100C3000116001B0F0BDC0468806202000110040C0
:100C400080625540FF0F0000B0B50A7803231340BF
:100C50000B4A84580B4D2540EB18A92424061B1978
:100C60008350072212064B681340112424020559B1
:100C70009543EA180251001949780161B0BDC04698
:100C800008080000FCFFFF00811E091F00BFFCD206
:100C900070470000F0B53C4A82183C4BC3180879F5
:100CA0004E793B4D3B4C002E23D0202804D0052606
:100CB000F601002803D003E0374E002800D1882633
:100CC000576F2F4037435767976F2F4037439767CA
:100CD000566B26405663966B2640966300265665F3
:100CE00096658F26F6435F6837405F609F683740A0
:100CF0009F608E79096820280BD0002819D1491EE1
:100D00005160D76E2F4088210F43D7661746703742
:100D100019E0491E5160D16E29401F4F3943D166F9
:100D2000116F294039431167012149071B4D1746AF
:100D300009E049085160D76E2F400521C9010F43D2
:100D4000D766174670373C682C400C433C60D16A2C
:100D5000104C2140D162116B214011630021D164FC
:100D600011658F21C943D46F0C40D4671C680C40B7
:100D70001C600643BD2030401168094B0B40C01871
:100D8000801C1060F0BDC0460418000084180000EC
:100D900024493E008888FDFF01040000FFFFFFCFCB
:100DA0004000FFCF10B507239B0419409200801824
:100DB000024A84589C436118815010BD30180000CD
:100DC00010B5029CA400001911431943014A815037
:100DD00010BDC0465018000092008018014A815092
:100DE0007047C0461018000010B501221203831886
:100DF0000C789C604B7883508978014A815010BDF3
:100E00000C110000B0B51122120283580124A34333
:100E100083500B888C781C438B882343094C1C40DF
:100E20008358094D1D40631983508B79CC791C433D
:100E3000097A21437E231940801842689A43511849
:100E40004160B0BD18670000E798FDFF10B50122B2
:100E5000120383180C789C604978815010BD000003
:100E6000B0B504460C4D2878A04213D00B4A29286F
:100E7000114602D880000A490958292C02D8A0003E
:100E8000074A12580748FFF7BFF92C7000F00EF818
:100E900005490860B0BDC046990620208058000072
:100EA000845700002C580000B40620200148006838
:100EB0007047C04600062020F0B587B0DB487E4969
:100EC0000160DB4D01262E61A0242046FFF7DCFEE9
:100ED0002E602046FFF7D8FE784908680F46069036
:100EE0002046FFF7D1FE2E612046FFF7CDFE2E6093
:100EF0002046FFF7C9FE386805902046FFF7C4FE7C
:100F00002E612046FFF7C0FE2E602046FFF7BCFE94
:100F1000386804902046FFF7B7FE2E612046FFF7A1
:100F2000B3FE2E602046FFF7AFFE386803902046E0
:100F3000FFF7AAFE2E612046FFF7A6FE2E60204690
:100F4000FFF7A2FE386802902046FFF79DFE2E6153
:100F50002046FFF799FE2E602046FFF795FE386881
:100F600001902046FFF790FE2E612046FFF78CFE91
:100F70002E602046FFF788FE504807682046FFF79E
:100F800083FE2E612046FFF77FFE2E602046FFF78E
:100F90007BFE4A4805682046FFF776FE0698420029
:100FA00004210A400220059B03409A189200049BEA
:100FB0005B000B40D218039B03409A189200029BDF
:100FC0005B000B40D118019A0240511849000740BC
:100FD0007818A907C90F0818C0B207B0F0BDC046FD
:100FE000F0B581B0914934480860914E02273760CE
:100FF000A0252846FFF748FE012434602846FFF765
:1010000043FE2E4D2868800735D5A020FFF73CFE13
:10101000286880072FD5A020FFF736FE28688007B4
:1010200029D5A020FFF730FE2868800723D5A0200F
:10103000FFF72AFE286880071DD5A020FFF724FEB1
:101040002868800717D5A020FFF71EFE28688007B4
:1010500011D5A020FFF718FE286880070BD5A02027
:10106000FFF712FE2868800705D5A020FFF70CFEC9
:10107000286880070AD40120306181206B4908600C
:10108000376037640024204601B0F0BDA0200090F6
:10109000FFF7FAFD286881206449086037603764EB
:1010A000346137613460009D2846FFF7EDFD3760FD
:1010B0002846FFF7E9FDE6E78100040080130A40B7
:1010C000F0B581B0594A81211160594E0224346033
:1010D000346401273761009040B2002801D43461A4
:1010E00000E034604020FFF7CFFDC020FFF7CCFDCB
:1010F000376080252846FFF7C7FD37612846FFF790
:10110000C3FD0098400601D4346100E03460402003
:10111000FFF7BAFDC020FFF7B7FD376080252846EE
:10112000FFF7B2FD37612846FFF7AEFD0098800655
:1011300001D4346100E034604020FFF7A5FDC020F9
:10114000FFF7A2FD376080252846FFF79DFD376138
:101150002846FFF799FD0098C00601D4346100E0ED
:1011600034604020FFF790FDC020FFF78DFD376011
:1011700080252846FFF788FD37612846FFF784FD64
:101180000098000701D4346100E034604020FFF78C
:101190007BFDC020FFF778FD376080252846FFF7EC
:1011A00073FD37612846FFF76FFD0098400701D4B3
:1011B000346100E034604020FFF766FDC020FFF797
:1011C00063FD376080252846FFF75EFD37612846BE
:1011D000FFF75AFD0098800701D4346100E03460C5
:1011E0004020FFF751FDC020FFF74EFD37608025FE
:1011F0002846FFF749FD37612846FFF745FD00986F
:10120000C00701D1346100E034604020FFF73CFDAD
:10121000C020FFF739FD376080242046FFF734FDFA
:1012200037612046FFF730FD01B0F0BD0880424035
:1012300090120A40F0B58BB0024D284680308024D1
:1012400002E0C0467000202078230022C2547021A2
:101250000A914254682109914254602108914254F4
:10126000582107914254502106914254482105913A
:101270004254402104914254382103914254302178
:1012800002914254282682552027C25502760274C4
:1012900002720270014608390A70014610390A705C
:1012A000014618390A70014620390A70014628396A
:1012B0000A70014630390A70014638390A70014611
:1012C00040390A70014648390A70014650390A709F
:1012D000014658390A70014660390A70014668397A
:1012E0000A70014670390A70014678390A70014661
:1012F00080390A70012109024018203CA4D10193D1
:101300002B4681338020019C1A550A9C1A55099C52
:101310001A55089C1A55079C1A55069C1A55059C87
:101320001A55049C1A55039C1A55029C1A559A5535
:10133000DA551A761A741A721A701C46083C227012
:101340001C46103C22701C46183C22701C46203C57
:1013500022701C46283C22701C46303C22701C46E1
:10136000383C22701C46403C22701C46483C22708F
:101370001C46503C22701C46583C22701C46603C67
:1013800022701C46683C22701C46703C22701C4631
:10139000783C22705C18803B1A7020382346B2D10A
:1013A0002C4682348020019BE2540A9BE254099B24
:1013B000E254089BE254079BE254069BE254059BCF
:1013C000E254049BE254039BE254029BE254A25574
:1013D000E25522762274227222702346083B1A704C
:1013E0002346103B1A702346183B1A702346203BB5
:1013F0001A702346283B1A702346303B1A70234646
:10140000383B1A702346403B1A702346483B1A70FB
:101410002346503B1A702346583B1A702346603BC4
:101420001A702346683B1A702346703B1A70234695
:10143000783B1A706318803C227020381C46B2D169
:101440002C4683348020019BE2540A9BE254099B82
:10145000E254089BE254079BE254069BE254059B2E
:10146000E254049BE254039BE254029BE254A255D3
:10147000E25522762274227222702346083B1A70AB
:101480002346103B1A702346183B1A702346203B14
:101490001A702346283B1A702346303B1A702346A5
:1014A000383B1A702346403B1A702346483B1A705B
:1014B0002346503B1A702346583B1A702346603B24
:1014C0001A702346683B1A702346703B1A702346F5
:1014D000783B1A706318803C227020381C46B2D1C9
:1014E0002C4684348020019BE2540A9BE254099BE1
:1014F000E254089BE254079BE254069BE254059B8E
:10150000E254049BE254039BE254029BE254A25532
:10151000E25522762274227222702346083B1A700A
:101520002346103B1A702346183B1A702346203B73
:101530001A702346283B1A702346303B1A70234604
:10154000383B1A702346403B1A702346483B1A70BA
:101550002346503B1A702346583B1A702346603B83
:101560001A702346683B1A702346703B1A70234654
:10157000783B1A706318803C227020381C46B2D128
:101580002C4685348020019BE2540A9BE254099B3F
:10159000E254089BE254079BE254069BE254059BED
:1015A000E254049BE254039BE254029BE254A25592
:1015B000E25522762274227222702346083B1A706A
:1015C0002346103B1A702346183B1A702346203BD3
:1015D0001A702346283B1A702346303B1A70234664
:1015E000383B1A702346403B1A702346483B1A701A
:1015F0002346503B1A702346583B1A702346603BE3
:101600001A702346683B1A702346703B1A702346B3
:10161000783B1A706318803C227020381C46B2D187
:101620002C4686348020019BE2540A9BE254099B9D
:10163000E254089BE254079BE254069BE254059B4C
:10164000E254049BE254039BE254029BE254A255F1
:10165000E25522762274227222702346083B1A70C9
:101660002346103B1A702346183B1A702346203B32
:101670001A702346283B1A702346303B1A702346C3
:10168000383B1A702346403B1A702346483B1A7079
:101690002346503B1A702346583B1A702346603B42
:1016A0001A702346683B1A702346703B1A70234613
:1016B000783B1A706318803C227020381C46B2D1E7
:1016C0007F35802004462A54019BEA540A9BEA5441
:1016D000099BEA54089BEA54079BEA54069BEA5488
:1016E000059BEA54049BEA54039BEA54029BEA5488
:1016F000AA55EA552A762A742A722A702B46083B84
:101700001A702B46103B1A702B46183B1A702B464A
:10171000203B1A702B46283B1A702B46303B1A7020
:101720002B46383B1A702B46403B1A702B46483BE1
:101730001A702B46503B1A702B46583B1A702B469A
:10174000603B1A702B46683B1A702B46703B1A7030
:101750006B18783D2A70203C1D46B4D100F0C8FDBE
:101760000BB0F0BDF0B58FB001267405FD4D2C60B7
:10177000C82002F027F9284610380460B105296016
:1017800004222A6033032B60B403046003602B60DF
:101790002C6003602B60046003602B602C6003608E
:1017A0002B60046003602B60046003602B600460A6
:1017B00003602B602C6003600260016029602A6076
:1017C0002B602C6003602B602C6003602B602C600E
:1017D00003602B602C6003602B602C6003602B6027
:1017E0002C6003602B602C6003602B602C60036016
:1017F0000260016029602A602B602C6003602B600E
:101800002C6003602B602C6003602B60046003601D
:101810002B602C6003602B602C6003602B602C60BD
:1018200003602B602C6003600260016029602A6005
:101830002B602C6003602B60046003602B602C60C5
:1018400003602B602C6003602B602C6003602B60B6
:101850002C6003602B602C6003602B602C600360A5
:101860000260016029602A602B60046003602B60C5
:101870002C6003602B602C6003602B602C60036085
:101880002B602C6003602B602C6003602B602C604D
:1018900003602B60046003600260016029602A60BD
:1018A0002B60046003602B60046003602B602C607D
:1018B00003602B602C6003602B60046003602B606E
:1018C000046003602B60046003602B6004600360AD
:1018D0000260016029602A602B60046003602B6055
:1018E0002C6003602B60046003602B602C6003603D
:1018F0002B602C6003602B602C6003602B602C60DD
:1019000003602B60046003600260016029602A604C
:101910002B60046003602B60046003602B602C600C
:1019200003602B602C6003602B60046003602B60FD
:101930002C6003602B602C6003602B602C600360C4
:101940000260016029602A602B60046003602B60E4
:101950002C6003602B60046003602B602C600360CC
:101960002B602C6003602B60046003602B600460BC
:1019700003602B602C6003600260016029602A60B4
:101980002B60046003602B602C6003602B6004609C
:1019900003602B602C6003602B60046003602B608D
:1019A0002C6003602B602C6003602B602C60036054
:1019B0000260016029602A602B602C6003602B604C
:1019C0002C6003602B60046003602B600460036084
:1019D0002B60046003602B60046003602B60046074
:1019E00003602B60046003600260016029602A606C
:1019F0002B60046003602B60046003602B602C602C
:101A000003602B60046003602B602C6003602B601C
:101A10002C6003602B60046003602B600460036033
:101A20000260016029602A602B602C6003602B60DB
:101A30002C6003602B602C6003602B602C600360C3
:101A40002B602C6003602B602C6003602B602C608B
:101A500003602B602C6003600260016029602A60D3
:101A60002B60046003602B60046003602B602C60BB
:101A700003602B60046003602B602C6003602B60AC
:101A8000046003602B602C6003602B6004600360C3
:101A90000260016029602A602B60046003602B6093
:101AA0002C6003602B602C6003602B602C60036053
:101AB0002B602C6003602B602C6003602B602C601B
:101AC00003602B602C6003600260016029602A6063
:101AD0002B60046003602B60046003602B602C604B
:101AE00003602B60046003602B60046003602B6064
:101AF0002C6003602B602C6003602B60046003602B
:101B00000260016029602A602B60046003602B6022
:101B1000046003602B60046003602B60046003605A
:101B20002B602C6003602B602C6003602B602C60AA
:101B300003602B60046003600260016029602A601A
:101B40002B60046003602B60046003602B602C60DA
:101B500003602B60046003602B60046003602B60F3
:101B600002E0C046A0120A402C6003602B600460B3
:101B700003602B602C6003600260016029602A60B2
:101B80002B602C6003602B602C6003602B602C604A
:101B900003602B60046003602B602C6003602B608B
:101BA0002C6003602B60046003602B602C6003607A
:101BB0000260016029602A602B60046003602B6072
:101BC000046003602B602C6003602B600460036082
:101BD0002B60046003602B602C6003602B6004604A
:101BE00003602B60046003600260016029602A606A
:101BF0002B602C6003602B60046003602B602C6002
:101C000003602B602C6003602B602C6003602B60F2
:101C10002C6003602B602C6003602B602C600360E1
:101C20000260016029602A602B602C6003602B60D9
:101C30002C6003602B60046003602B602C600360E9
:101C40002B602C6003602B602C6003602B602C6089
:101C500003602B602C6003600260016029602A60D1
:101C60002B602C6003602B602C6003602B602C6069
:101C700003602B602C6003602B602C6003602B6082
:101C80002C6003602B60046003602B602C60036099
:101C90000260016029602A602B60046003602B6091
:101CA0002C6003602B602C6003602B602C60036051
:101CB0002B60046003602B60046003602B602C6069
:101CC00003602B60046003600260016029602A6089
:101CD0002B602C6003602B602C6003602B602C60F9
:101CE00003602B60046003602B602C6003602B603A
:101CF000046003602B602C6003602B602C60036029
:101D00000260016029602A602B60046003602B6020
:101D10002C6003602B60046003602B602C60036008
:101D20002B602C6003602B60046003602B602C60D0
:101D300003602B602C6003600260016029602A60F0
:101D40002B60046003602B602C6003602B600460D8
:101D500003602B602C6003602B602C6003602B60A1
:101D6000046003602B60046003602B6000942C60AF
:101D70000193036033460292026004900391016074
:101D8000024F38468030802402E0C0467000202098
:101D9000782100220E91425470210D914254682105
:101DA0000C91425460210B91425458210A914254A3
:101DB00050210991425448210891425440210791F1
:101DC000425438210691425430210591425428252D
:101DD0004255202682550276027402720270014634
:101DE00008390A70014610390A70014618390A701C
:101DF000014620390A70014628390A7001463039F7
:101E00000A70014638390A70014640390A700146A5
:101E100048390A70014650390A70014658390A702B
:101E2000014660390A70014668390A700146703906
:101E30000A70014678390A70014680390A70190221
:101E40004018203CA4D13B46813380200E9C1A557B
:101E50000D9C1A550C9C1A550B9C1A550A9C1A5528
:101E6000099C1A55089C1A55079C1A55069C1A5528
:101E7000059C1A555A559A551A761A741A721A7080
:101E80001C46083C22701C46103C22701C46183C24
:101E900022701C46203C22701C46283C22701C46A6
:101EA000303C22701C46383C22701C46403C22705C
:101EB0001C46483C22701C46503C22701C46583C34
:101EC00022701C46603C22701C46683C22701C46F6
:101ED000703C22701C46783C22705C18803B1A7063
:101EE00020382346B2D13C46823480200E9BE254F7
:101EF0000D9BE2540C9BE2540B9BE2540A9BE25470
:101F0000099BE254089BE254079BE254069BE2546F
:101F1000059BE2546255A2552276227422722270E9
:101F20002346083B1A702346103B1A702346183B81
:101F30001A702346203B1A702346283B1A7023460A
:101F4000303B1A702346383B1A702346403B1A70C8
:101F50002346483B1A702346503B1A702346583B91
:101F60001A702346603B1A702346683B1A7023465A
:101F7000703B1A702346783B1A706318803C2270BD
:101F800020381C46B2D13C46833480200E9BE2545C
:101F90000D9BE2540C9BE2540B9BE2540A9BE254CF
:101FA000099BE254089BE254079BE254069BE254CF
:101FB000059BE2546255A255227622742272227049
:101FC0002346083B1A702346103B1A702346183BE1
:101FD0001A702346203B1A702346283B1A7023466A
:101FE000303B1A702346383B1A702346403B1A7028
:101FF0002346483B1A702346503B1A702346583BF1
:102000001A702346603B1A702346683B1A702346B9
:10201000703B1A702346783B1A706318803C22701C
:1020200020381C46B2D13C46843480200E9BE254BA
:102030000D9BE2540C9BE2540B9BE2540A9BE2542E
:10204000099BE254089BE254079BE254069BE2542E
:10205000059BE2546255A2552276227422722270A8
:102060002346083B1A702346103B1A702346183B40
:102070001A702346203B1A702346283B1A702346C9
:10208000303B1A702346383B1A702346403B1A7087
:102090002346483B1A702346503B1A702346583B50
:1020A0001A702346603B1A702346683B1A70234619
:1020B000703B1A702346783B1A706318803C22707C
:1020C00020381C46B2D13C46853480200E9BE25419
:1020D0000D9BE2540C9BE2540B9BE2540A9BE2548E
:1020E000099BE254089BE254079BE254069BE2548E
:1020F000059BE2546255A255227622742272227008
:102100002346083B1A702346103B1A702346183B9F
:102110001A702346203B1A702346283B1A70234628
:10212000303B1A702346383B1A702346403B1A70E6
:102130002346483B1A702346503B1A702346583BAF
:102140001A702346603B1A702346683B1A70234678
:10215000703B1A702346783B1A706318803C2270DB
:1021600020381C46B2D13C46863480200E9BE25477
:102170000D9BE2540C9BE2540B9BE2540A9BE254ED
:10218000099BE254089BE254079BE254069BE254ED
:10219000059BE2546255A255227622742272227067
:1021A0002346083B1A702346103B1A702346183BFF
:1021B0001A702346203B1A702346283B1A70234688
:1021C000303B1A702346383B1A702346403B1A7046
:1021D0002346483B1A702346503B1A702346583B0F
:1021E0001A702346603B1A702346683B1A702346D8
:1021F000703B1A702346783B1A706318803C22703B
:1022000020381C46B2D17F37802004463A540E9BBA
:10221000FA540D9BFA540C9BFA540B9BFA540A9BEC
:10222000FA54099BFA54089BFA54079BFA54069BEC
:10223000FA54059BFA547A55BA553A763A743A727A
:102240003A703B46083B1A703B46103B1A703B46BF
:10225000183B1A703B46203B1A703B46283B1A70CD
:102260003B46303B1A703B46383B1A703B46403B7E
:102270001A703B46483B1A703B46503B1A703B462F
:10228000583B1A703B46603B1A703B46683B1A70DD
:102290003B46703B1A707B18783F3A70203C1F46D3
:1022A000B4D100F025F84248039A0260029B036013
:1022B000019C04600499009D0D600C600460056041
:1022C0000C6004600D600C60046005600C600460CC
:1022D0000D600C6004600D600C6004600D600C60AB
:1022E00004600D600C600B600A600FB0F0BDC0466A
:1022F000F0B585B0012004038103029180050190AF
:102300000020CB4D2A4E04905038C0B2002100F07E
:10231000B9F9019B3360042030603460029A326066
:10232000314610390C60346032600C6034603260C9
:102330000C60346032600C60346032600C60346079
:1023400032600C60346032600C60346032600C606B
:1023500008600B6033603060346032600C60346061
:1023600032600C60346032600C6034600A600C6073
:10237000346032600C60346032600C603460326013
:102380000C60346032600C6008600B60802703953D
:102390002878012100F076F97F1E0835002FF7D14B
:1023A000039D6D1C0498401C0828ACD105B0F0BDFD
:1023B000A0120A40F0B58BB0099103900620082BBB
:1023C00003D10421029104460BE05C07D908002CDC
:1023D00000D0491C5C0802946143CCB2002C00D1AF
:1023E0001BE110990A91203AD1B2009148438C49DF
:1023F0000D180026039F019308E00746079C069DE1
:10240000641E6D1C761C002C00D106E1082B2846AA
:1024100015D0182B09D0102B0CD00C2B00D0FCE0C1
:102420000C2000994843814907E024200099484343
:102430007C4902E0009800017B4908188019089047
:102440000596069507940723099A11461940012617
:10245000304688400497F9B2C900754C6418D1B26F
:10246000CD08675D3A46024387430A980028114623
:1024700000D039460A98002800D017460020089A54
:1024800010560890C00700D0394661550998401C85
:10249000C1B2184032468240CD08675D39461143CB
:1024A00097430A9800280A4600D03A460A9800281E
:1024B00000D00F460898800700D53A466255099823
:1024C000801CC1B2184032468240CD08675D394653
:1024D000114397430A9800280A4600D03A460A98C2
:1024E000002800D00F460898400700D53A466255AC
:1024F0000998C01CC1B2184032468240CD08675DC1
:102500003946114397430A9800280A4600D03A46B4
:102510000A98002800D00F460898000700D53A46D0
:1025200062550998001DC1B2184032468240CD085C
:10253000675D3946114397430A9800280A4600D040
:102540003A460A98002800D00F460898C00600D5E1
:102550003A4662550998401DC1B218403246824041
:10256000CD08675D3946114397430A9800280A460B
:1025700000D03A460A98002800D00F4608988006F6
:1025800000D53A4662550998801DC1B218403246BE
:102590008240CD08675D3946114397430A98002869
:1025A0000A4600D03A460A98002800D00F460898FC
:1025B000400600D53A4662550998C01D03409E402A
:1025C000C0B2C308E55C29463143B5430A980028E8
:1025D000084600D028460A9A002A059E049A00D090
:1025E0000D460899002900DA2846E054501C019B4A
:1025F000082B00D101E7C1B2039A891A029A9142CD
:10260000079C069D02D1099A08320992029A9142CA
:10261000039F00D1F4E60746F2E60BB0F0BDC046DA
:102620006D3D0000F949000009440000953F00009D
:1026300070002020F0B583B00646082B01D05D085D
:1026400000E00625177838462038C0B25E2817D833
:1026500008980190541C029501980090F0B2FAB2CB
:102660000D461F46FFF7A6FE3B462946029D7619FA
:10267000601C27783A46203AD2B25F2A0446EBD350
:1026800003B0F0BD70B50125AA05234B002901D088
:102690001A6000E01A61042119612C031C61AD036A
:1026A00046B2002E01D41D6100E01D601C601C615B
:1026B000460601D41D6100E01D601C601C61860699
:1026C00001D41D6100E01D601C601C61C60601D4C0
:1026D0001D6100E01D601C601C61060701D41D61C6
:1026E00000E01D601C601C61460701D41D6100E014
:1026F0001D601C601C61860701D41D6100E01D6027
:102700001C601C61C00701D11D6100E01D601C60E0
:1027100019601A6070BDC04690120A4080B5C2B2FE
:102720000005010F1031142000F00AF880BD80B5BB
:10273000C2B20005010F142000F002F880BD0000B5
:10274000B0B543189C18464B1D68ED0708D01D68AE
:10275000ED0705D01D68ED0702D01D68ED07F3D128
:102760007E259D611D68ED0708D01D68ED0705D029
:102770001D68ED0702D01D68ED07F3D1FF259D61AF
:102780001D68ED0708D01D68ED0705D01D68ED0731
:1027900002D01D68ED07F3D106259D611D68ED0788
:1027A00008D01D68ED0705D01D68ED0702D01D6833
:1027B000ED07F3D198611868C00708D01868C00702
:1027C00005D01868C00702D01868C007F3D10020F0
:1027D00098611868C00708D01868C00705D0186845
:1027E000C00702D01868C007F3D199611868C00704
:1027F00008D01868C00705D01868C00702D018684C
:10280000C007F3D19A611868C00708D01868C007DC
:1028100005D01868C00702D01868C007F3D1114866
:10282000001B010A99611968C90708D01968C9070E
:1028300005D01968C90702D01968C907F3D1C0B219
:1028400098611868C00708D01868C00705D01868D4
:10285000C00702D01868C007F3D1EF209861B0BD5F
:1028600008111040FBFE000080B502461E2800D370
:102870001E2206200021FFF763FF80BD10B5012452
:10288000A0071149FEF7E0F910484168104A0A40D4
:1028900021045118416081680E4A0A4021065118EE
:1028A00081600D4900220A604C600C49416103219E
:1028B00009020B4A136A0B43136213680B4313603C
:1028C00001682143016010BD58570000001100400D
:1028D000FEFFECFFF8FFE0E080110040409C0000AC
:1028E0002810004010B51949084644388522026076
:1028F0000120C20316480260164A82231365164C53
:1029000054659365D4658123136053600C46503C35
:1029100023600C46483C23600C46203C23600C4658
:102920001C3C236093610A1F13600C4A0A600A680A
:102930000A604B60014630390522D2050A60014623
:102940004039074A0A600749016010BDD8804240FB
:10295000D0120A40048042408200040081000E0030
:10296000075060000750E002B0B582B09A4C13499E
:102970002046FEF739FA12492046FEF78BF98748C0
:102980000168104A0A400260002500952046294649
:102990002A462B46FEF714FA204629462A46FEF719
:1029A00001FA7D20C10020462A46FEF715FA0648A6
:1029B00001218160016002B0B0BDC04660570000D7
:1029C000645700007F00FFFF003186400C48002163
:1029D00001600320C1430B480246083A13680B40CC
:1029E00013600168012291430160110203688B4367
:1029F00003601103001F02680A4302607047C0466B
:102A000008030B4008010B407E48042101601F2190
:102A1000416000218160016805220A43026070471D
:102A200010B5124C12492046FEF710FA1149204603
:102A3000FEF7E8F90321CA030F48036893430360D4
:102A40000269274B13401A33036142690A433C2150
:102A50008A434261416801221140436893435918F7
:102A6000416001681143016010BDC0460000104084
:102A7000785700007A5700000011104010B5144C30
:102A800014492046FEF7E2F913492046FEF7BAF949
:102A90000321CA0311480368934303600269104B82
:102AA00013401A33036142690A433C218A4342615D
:102AB00041680122114043689343591841609102D3
:102AC000084B1C680C431C6001681143016010BD79
:102AD000008010406C5700006E57000000911040BD
:102AE0000000FFFF2890104080B500F015F8FFF7B8
:102AF000F9FEFFF76BFFFFF737FFFFF7BFFFFFF7A9
:102B00008FFFFFF7BBFEFFF77FFFB82001490022D0
:102B10000A5480BD4405202070B50C480C49416022
:102B20000C4A51600C4B59600C4C61600C4D696053
:102B30000C4E71600C4901601160196021602960C0
:102B400031601020FEF7A0F870BDC04600080A40B2
:102B5000030000B100280A40002886400088104089
:102B60000008104000080040010000261B480068D3
:102B70007047C046B0B5094C20680125A8432060C5
:102B800007486060144807490022FEF725F92068CD
:102B90002843206011485A210160B0BD04388640A6
:102BA0007F380100581B000010B50446B421B4283A
:102BB00000D30C460648604300F0A0FF05494118C9
:102BC00005480022FEF708F90448046010BDC0461D
:102BD000881300009411000000208640040020208B
:102BE0000A480168491C01607047C0460548002139
:102BF0000160054A4260816007220260034801606B
:102C00007047C04610E000E0FF7C00000006202076
:102C10001D480188807800040818704780B51A485C
:102C2000002181700C210180FEF740F915490860F0
:102C300080BDC04680B5FEF739F912490A68821A8C
:102C4000D2087D2A1DD308600F488178491C817005
:102C5000C9B23C2905D3002181704178491C4170DB
:102C600000E04178C9B23C2905D3002141700178C8
:102C7000491C017000E00178C9B2182901D3002174
:102C8000017080BDB00620200000202080B5FEF736
:102C900069FDFEF7CFFAFEF709F92D49086080BDFE
:102CA000F0B587B0FEF702F929490A68821A92083E
:102CB0007D2A4BD30860FFF7ABFF054600F06CF8A8
:102CC0000646244C2078290CC9B20091002801D076
:102CD00025A100E020A1EAB2280AC3B203AD28462C
:102CE000FDF7A0FA2078414241412170012400946F
:102CF0002020002110232A46FFF79CFC1E48017863
:102D00008E4221D006700094002728251BA202962F
:102D10000C26384629463346FFF78CFC00F040F875
:102D200002460094384629463346FFF783FC03AF3A
:102D300017A13846029AFDF775FA00945A202946E1
:102D40003A463346FFF776FCFFF7D2FA07B0F0BDFC
:102D500094062020030020202530326420253032C4
:102D60006420253032640000253032643A25303248
:102D7000643A253032640000080020202020202002
:102D800020202020202020202020202000000000C3
:102D90005B253032645D0000134800787047C04600
:102DA00004480078292803D880000549085870474E
:102DB00001A0704799062020556E6B6E6F776E00EC
:102DC0008457000010B5084800240470FEF76EF820
:102DD000BF490860FEF76AF804490860BD480470FE
:102DE00000F034FC10BDC04699062020B406202017
:102DF000F0B583B002A800F051FC00282ED002A844
:102E00000478824D2878A04215D0814A292811469D
:102E100002D880007F490958292C02D8A0007D4A99
:102E200012587D48FDF7F0F92C70FEF73FF87B490A
:102E3000086002A80478153C0F2C1ED82220C0463A
:102E40007C4424796400A7442D1818071818182A00
:102E5000181818181818182C252023E0FEF726F843
:102E60009B490A68821A642A07D3086000F0F8FBBD
:102E7000044600F011FD002C01D003B0F0BD054662
:102E8000944E3078281A41424141684268410843D3
:102E90000ED0002D00D1C6E0357003B0F0BD292062
:102EA00000E0312000210A4600F0E2FB03B0F0BD53
:102EB00028461038A128EFD80122012417464000E7
:102EC0007844808840008744E200E200E200AB00E2
:102ED000AB00AB00AB00AB00AB00AB00AB00AB009A
:102EE000AB00AB00AB00AB00DE00AB00AB00AB0057
:102EF000AB00AB00AB00AB00AB00AB00AB00AB007A
:102F0000AB00AB00AB00AB00AC00AC00AC00AC0065
:102F1000AB00AB00AB00AB00AB00AB00AB00AB0059
:102F2000AB00AB00AB00AB00D600D600AB00AB00F3
:102F3000AB00AB00AB00AB00AB00AB00AB00AB0039
:102F4000AB00AB00AB00AB00D800D800AB00AB00CF
:102F5000AB00AB00AB00AB00AB00AB00AB00AB0019
:102F6000AB00AB00AB00AB00E000AB00AB00AB00D4
:102F7000AB00AB00AB00AB00AB00AB00AB00AB00F9
:102F8000AB00AB00AB00AB00D200D200D200D2004D
:102F9000AB00AB00AB00AB00AB00AB00AB00AB00D9
:102FA000AB00AB00AB00AB00D400D400D400D40025
:102FB000AB00AB00AB00AB00AB00AB00AB00AB00B9
:102FC000AB00AB00AB00AB00AB00AB00AB00AB00A9
:102FD000AB00AB00AB00AB00AB00AB00AB00AB0099
:102FE000AB00AB00AB00AB00DA00DA00AB00AB002B
:102FF000AB00AB00AB00AB00AB00AB00AB00AB0079
:10300000AB00AB00AB00AB00DC00DC00990620207D
:1030100080580000845700002C580000B40620207F
:103020003AE7032432E0E54C2078002800D133E76A
:103030000B2800D130E7E6480768FDF737FFC01BD3
:10304000E449884200D227E7FDF730FFE0490860F5
:1030500020788000E0490958E0A0FDF7D5F800216C
:10306000317020780B22019228282DD9A5E0072461
:103070000CE008240AE0042408E0052406E0092402
:1030800004E00A2402E0022400E006240027009263
:10309000FDF70CFFCE490860E6A0294601942246C0
:1030A000FDF7B2F83570E24C20780022002F11466F
:1030B00006D00126002801D00B2868D1019600997E
:1030C000E44B1A70282878D8820003A39A589746B0
:1030D000BC062020980620207F310000C931000066
:1030E0007D3100007D310000FD3200001933000009
:1030F00043330000FF310000613300007D310000E8
:103100007D3100001D3200007D3100002D320000B5
:10311000773300007D3100007D3100007D310000FB
:10312000A9330000053400007D3100001F34000089
:10313000633200007D310000793400009B340000D0
:103140007D3100007D310000813200009F3200009F
:10315000B5340000BD3200007D3100007D3100003B
:103160007D3100007D310000DF3200007D31000044
:103170007D310000BB3100007D3100007DE600297B
:1031800000D1C1E10120FDF76BFE02208AE6B54DBA
:103190002978491C2970C9B2032909D3282800D1EC
:1031A000A9E1292800D99BE18000AD49095898E19F
:1031B000012101910099282886D9292800D9B3E155
:1031C0008000A7490958B0E10198801E092800D95C
:1031D00053E6400078448088400087440A009A0102
:1031E00018021A001E020900BF0109000900BF01F0
:1031F00043E60220FDF734FE03209B49CBE1019E0C
:103200000B2E00D1AAE1082E00D1A7E1072E00D095
:1032100033E61220FDF724FE1F2043E6002900D1EB
:103220002BE60C20FDF71CFE1320B3E10198001FD4
:10323000072800D921E64000784480884000874470
:1032400008000700070008009E01070007009E0114
:1032500013E60E20FDF704FE022000F005FA16200A
:1032600020E6019E0B2E00D135E1082E00D132E17F
:10327000072E00D001E61820FDF7F2FD252011E60B
:10328000019E0B2E00D126E1082E00D123E1072E4E
:1032900000D0F2E51D20FDF7E3FD2A2002E6019EA5
:1032A0000B2E00D117E10A2E00D187E1092E00D0A4
:1032B000E3E51E20FDF7D4FD2B20F3E5019E0B2E48
:1032C00000D108E10A2E00D17EE1092E00D0D4E51C
:1032D0002220FDF7C5FD7D2081012F2094E1019E74
:1032E0000B2E00D11BE1082E00D118E1072E00D0D3
:1032F000C3E52520FDF7B4FD32204BE10B20019EF4
:103300003040032800D01DE10520FDF7A9FD012074
:1033100000F0AAF90C20C5E50198C01E082800D9C4
:10332000ABE5C046784400794000874405140404A6
:10333000140504041400A0E50820FDF791FD0F20FA
:10334000B0E5019E0B2E00D108E1082E00D142E12C
:10335000072E00D091E50720FDF782FD0E20A1E5A4
:10336000019E0B2E00D13BE1082E00D13EE1072E3D
:1033700000D1F3E081E50198001F072800D97CE522
:103380004000C04678448088400087440800070019
:1033900007000800FF0007000700FF006DE5102090
:1033A000FDF75EFD1820DDE00198001F072800D919
:1033B00063E503A14000085A400087449906202095
:1033C0001E001D001D001E00EF001D001D00EF006F
:1033D000B4062020102700008457000046534D7C7F
:1033E0002054696D656F757420696E207374617403
:1033F000652025730D0A00003FE51320FDF730FD21
:1034000020204FE5019E0B2E65D0082E63D0072E9D
:1034100000D032E51520FDF723FD222042E501987A
:10342000001F072800D928E50BA1085C400087444D
:103430009906202046534D7C20566F6963653A30CB
:103440007825303258202D3E204576656E743A2519
:10345000640D0A00900620201E1D1D1EBD1D1DBDF1
:1034600084570000900620208813000005E51620F0
:10347000FDF7F6FC232015E501980B2800D9FCE4A4
:103480000120019988401321C901084200D1F4E4C8
:103490001920FDF7E5FC262004E5019E0B2E65D0E2
:1034A000082E63D0072E00D0E7E41A20FDF7D8FCE1
:1034B00027206FE0019E0B2E0DD00A2E00D19DE03B
:1034C000092E01D0FFF7D9FC2020FDF7C9FC7D2093
:1034D00081012D2098E00120FDF7C2FC03B0F0BD72
:1034E0005349514E5348544AFCF78EFE2820207011
:1034F000FDF7DCFC306035205049012200F0B8F8BF
:103500000020287003B0F0BD0198032801D0FFF718
:10351000B4FC0420FDF7A4FC0B20FFF7C3FC26201D
:10352000FDF79EFC332035E041494248464AFCF70E
:103530006BFE3E4801210170FDF7B8FC3A49086076
:1035400003B0F0BD0B2E09D0082E01D0FFF795FC7B
:103550000620FDF785FC0D20FFF7A4FC0320FDF7F6
:103560007FFC042036490022FFF79EFC1B20FDF75C
:1035700077FC7D20410128201C22FFF795FC0F20BD
:10358000FDF76EFC7D204101172004E01120FDF7BE
:1035900067FC19202A490122FFF786FC1420FDF759
:1035A0005FFC212026491522FFF77EFC1720FDF73E
:1035B00057FC242022491822FFF776FC1F20FDF734
:1035C0004FFC2C20FFF76EFC2320FDF749FC7D20EB
:1035D0008101302018E00920FDF742FC1020C1E7EE
:1035E0000B20FDF73DFC1120FFF75CFC0A20FDF7E6
:1035F00037FC112013490B22FFF756FC2120FDF761
:103600002FFC7D2081012E202422FFF74DFC0D2070
:10361000FDF726FC1520FFF745FC1C20FDF720FCDC
:103620002920FFF73FFCC046B40620209906202041
:10363000805800002C5800005358000088130000E8
:10364000B80B000070170000E658000080B527484E
:1036500000210170224801701420FFF705F980BD98
:103660001F4800787047C04680B5FFF757F880BD07
:10367000B0B514460D46FFF75AF8002D0DD0184886
:1036800001210170FDF712FC17490860154805601B
:1036900008480470154800210170B0BD0146134A66
:1036A0001078012804D1034B1B780B700021117096
:1036B0007047C046A806202070B5094C2078012824
:1036C0000DD10848056808480668FDF7EFFB801B28
:1036D000A84204D30548012101700020207070BD6C
:1036E0009C062020A4062020A0062020AC06202036
:1036F00080B5FDF75FFAFFF73DFAFDF7D7FB3C49D0
:103700000860FDF7D3FB3C49086080BDF0B593B07D
:10371000FDF7CCFB36490A68821A322A65D3086065
:103720000EA8FDF74DFA4B208500FFF71FFA04465F
:103730001099652905DB0120C043A9420BD8401C24
:1037400009E06420C04381420EDC2A48814201D353
:10375000012000E002200419B42C00DBB424E0179F
:103760008443A0B2FFF720FAFDF7A0FB22490A68C4
:10377000821AC835AA4238D30860129D0C9564217C
:103780000A91284600F0BAF90D900A2728463946D2
:1037900000F0B4F905463946FCF77CFF0B91119E09
:1037A00030460A9900F0AAF90A903046394600F0EE
:1037B000A5F908903946FCF76DFF09910E990F980D
:1037C000109A7D430C9B5D1B089B5F43F61B009684
:1037D00001900D9802900B98039004950592069421
:1037E00006A00A9A099BFCF70FFD13B0F0BDC04676
:1037F000B8062020D4FEFFFF8C06202054524B7CBC
:1038000020434832373A2534642825642E25642520
:1038100064562920434832363A2534642825642EDC
:1038200025642564562920646966663A2534642037
:10383000616E676C653A2533640D0A0010B5124855
:103840000068C0B20B281ED17848C1690F4A13889E
:103850007E2B13D813885C1C14800D4AD154026847
:10386000D20708D00268D20705D00268D20702D07A
:103870000268D207F3D1C9B2816101E00020108053
:1038800004480121017010BD2090104086062020C0
:103890000406202084062020F0B583B0354881211D
:1038A00002910160344E022737603764012535618B
:1038B00037603560A0242046FDF7E6F937612046E1
:1038C000FDF7E2F935612046FDF7DEF96820FDF7E6
:1038D000F7FB0024FDF784FB012848D06420FDF7A6
:1038E000EFFBFDF77DFB012841D0224802990160E2
:1038F000376037643561376035600194A024204615
:10390000FDF7C2F937612046FDF7BEF93561204663
:10391000019CFDF7B9F96920FDF7D2FBFDF760FBCB
:10392000012824D0FDF7C8FA044612480299016024
:103930003760376435613761A0200190FDF7A4F945
:10394000376035600198FDF79FF93561376002985F
:103950000849086037603764356137613560019D1B
:103960002846FDF791F937602846FDF78DF9204686
:1039700003B0F0BD0880424090120A40704700003A
:1039800080B5FFF7B1F80120C0030449086004497D
:10399000086004A0FCF768FE80BDC04680E200E03D
:1039A00000E100E0426F61726420496E6974205B3F
:1039B0005B202A2A204C434B4642202A2A205D5D68
:1039C0000D000000B0B57D21090241430E48036897
:1039D000262206E0E41A051F2D686419A2188A42FF
:1039E00010D21C4603689C4208D103689C4205D152
:1039F00003689C4202D103689C42F3D09C42E9D9FF
:103A0000E41AEBE7B0BDC04618E000E007490A68D9
:103A1000D20708D00A68D20705D00A68D20702D0B8
:103A20000A68D207F3D1C2B28A6170470891104088
:103A3000FFF7A6FFFFF7DAF81348016813A0FCF7B9
:103A4000E3FBFDF733FA04467D20C000FFF7BAFF21
:103A5000FDF72CFA011B16A0FCF7D6FBFFF716F9B1
:103A6000FFF7B0F9FFF744FEFFF7D8F81BA0FCF70B
:103A7000FBFDFFF721FEFFF7BBF9FFF747FEFFF75E
:103A8000D9F8FFF70DF9F4E714E000E05379735427
:103A900069636B204C4F4144203D20256C752028E4
:103AA000657870656374203331393939290D0A001E
:103AB000317320746573743A207469636B20646990
:103AC0006666203D20256C752028657870656374D6
:103AD000207E31303030290D0A0000003D3D3D2070
:103AE000466C6F77657220436F6D70616E696F6EA3
:103AF0002076322E32203D3D3D0D000043088B42A2
:103B00001AD3002203098B4279D3030A8B425ED376
:103B1000030B8B4242D3030C8B4227D30902FF22B3
:103B200012BA030C8B4202D31212090203D0030B08
:103B30008B4233D31AE0D3E0411A8041401C7047D6
:103B400003460B4371D443088B42F5D3002203098B
:103B50008B4254D3030A8B4239D3030B8B421DD3C0
:103B6000030C8B4202D394466EE0090AC30B8B42CE
:103B700001D3CB03C01A5241830B8B4201D38B0379
:103B8000C01A5241430B8B4201D34B03C01A52411E
:103B9000030B8B4201D30B03C01A5241C30A8B4261
:103BA00001D3CB02C01A5241830A8B4201D38B024C
:103BB000C01A5241430A8B4201D34B02C01A5241F0
:103BC000030A8B4201D30B02C01A5241CDD2C30962
:103BD0008B4201D3CB01C01A524183098B4201D3DE
:103BE0008B01C01A524143098B4201D34B01C01AC9
:103BF000524103098B4201D30B01C01A5241C30841
:103C00008B4201D3CB00C01A524183088B4201D3AF
:103C10008B00C01A524143088B4201D34B00C01A9B
:103C20005241411A524110007047CA0F00D0494218
:103C3000031000D34042534000229C4603098B42AC
:103C40002DD3030A8B4212D38901FC2212BA030A34
:103C50008B420CD3890192118B4208D389019211B6
:103C60008B4204D3890137D0921100E08909C3093E
:103C70008B4201D3CB01C01A524183098B4201D33D
:103C80008B01C01A524143098B4201D34B01C01A28
:103C9000524103098B4201D30B01C01A5241C308A0
:103CA0008B4201D3CB00C01A524183088B4201D30F
:103CB0008B00C01A5241D9D243088B4201D34B002A
:103CC000C01A5241411A00D2014652411046634681
:103CD0005B1000D34042704763465B1000D3404204
:103CE00001B50021004201D0C9430846C046C04684
:103CF00002BD30380A2801D20120704700207047E9
:103D000010B500290AD00878002807D00548784463
:103D1000FCF7E8FE002801D0002010BD02487844DE
:103D200010BD0000721C00006A1C000000000000B2
:103D300000000000303132333435363738394142F3
:103D400043444546403058003031323334353637FD
:103D500038396162636465664030780004000008A9
:103D60000000000000000002000100001000000040
:103D70000000000000002F00000000070007000006
:103D8000147F147F1400242A7F2A1200626408130F
:103D90002300364955225000000503000000001C96
:103DA000224100000041221C000014083E081400BB
:103DB00008083E0808000000A06000000808080885
:103DC00008000060600000002010080402003E515E
:103DD00049453E0000427F40000042615149460093
:103DE0002141454B31001814127F100027454545ED
:103DF00039003C4A49493000017109050300364940
:103E000049493600064949291E000036360000009F
:103E10000056360000000814224100001414141447
:103E20001400004122140800020151090600324921
:103E300059513E007C1211127C007F4949493600DD
:103E40003E41414122007F4141221C007F494949B6
:103E500041007F09090901003E4149497A007F0874
:103E600008087F0000417F4100002040413F0100E1
:103E70007F08142241007F40404040007F020C0236
:103E80007F007F0408107F003E4141413E007F09D2
:103E9000090906003E4151215E007F0919294600AB
:103EA00046494949310001017F0101003F4040403E
:103EB0003F001F2040201F003F4038403F00631458
:103EC0000814630007087008070061514945430062
:103ED000007F41410000552A552A55000041417F8D
:103EE0000000040201020400404040404000000184
:103EF000020400002054545478007F4844443800A1
:103F0000384444442000384444487F0038545454D2
:103F10001800087E0901020018A4A4A47C007F08F0
:103F20000404780000447D4000004080847D00004F
:103F30007F102844000000417F4000007C041804EA
:103F400078007C0804047800384444443800FC2499
:103F50002424180018242418FC007C0804040800F9
:103F6000485454542000043F444020003C4040202A
:103F70007C001C2040201C003C4030403C00442879
:103F8000102844001CA0A0A07C004464544C44149D
:103F900014141414140000000000000000000000BD
:103FA000000000FC000000000002000000000C0205
:103FB0000C020000000000000090D0BCD0BC9000BB
:103FC00003000300001824FE448C000302070201D2
:103FD000001824D8B04C80000300010201C038E46E
:103FE00038E00001020201020208060000000000A1
:103FF0000000000000000000F804020000000102C0
:1040000004000204F800000004020100009060F8BF
:104010006090000000010000002020FC2020000033
:104020000001000000000000000000080600000081
:1040300000202020202000000000000000000000E0
:104040000000000002000000000080601C0200046C
:104050000300000000F8040404F800010202020159
:10406000000008FC00000000020302000018844465
:1040700024180003020202020008042424D80001CC
:10408000020202010040B088FC8000000000030230
:10409000003C242424C400010202020100F824246C
:1040A0002CC0000102020201000C04E41C04000008
:1040B0000003000000D8242424D8000102020201D9
:1040C0000038444444F800000302020100000010DC
:1040D00000000000000200000000002000000000BE
:1040E00000060000000020508804020000000001CB
:1040F00002909090909000000000000000000204E8
:104100008850200002010000001804C42418000098
:104110000002000000F804E494F800010202020228
:104120000000E09CF0800002030000030204FC2475
:1041300024D800020302020100F80404040C000168
:10414000020202010004FC0404F80002030202015E
:104150000004FC24740C0002030202030004FC248B
:10416000740C00020302000000F0080444CC40007C
:10417000010202010004FC2020FC040203000003F1
:10418000020404FC0404000202030202000004040E
:10419000FC040406040403000004FC24D00C040204
:1041A000030200030204FC040000000203020202F6
:1041B00003FC3CC03CFC0003000300030004FC3093
:1041C000C4FC04020302000300F8040404F8000124
:1041D000020202010004FC24241800020302000071
:1041E00000F8848404F80001020207050004FC249E
:1041F000649800020302000302182424448C000384
:1042000002020201000C04FC040C00000203020084
:104210000004FC0000FC04000102020100047C8098
:10422000E01C040000030000001CE03CE01C000057
:104230000300030000049C609C04000203000302CE
:1042400000041CE01C04000002030200000C846453
:104250001C04000203020203000000FE0202000030
:104260000007040400000E30C0000000000001023E
:1042700000000202FE000000040407000000040227
:104280000400000000000000000000000000000822
:1042900008080808080000020000000000000000F4
:1042A000000040A0A0C00000010202030204FC20A4
:1042B00020C00000030202010000C02020600000B6
:1042C000010202020000C02024FC000001020203DF
:1042D0000200C0A0A0C0000001020202000020F8FD
:1042E0002424040002030202000040A0A060200079
:1042F000070A0A0A0404FC2020C00002030200038B
:10430000020020E400000000020302000000002080
:10431000E4000008080807000004FC80E0202002F8
:1043200003020003020404FC000000020203020274
:1043300000E020E020C00003000300030020E02094
:1043400020C00002030200030200C02020C00000C1
:10435000010202010020E02020C000080F0A020133
:104360000000C02020E0000001020A0F0820E04009
:104370002020000203020000000060A0A020000036
:1043800002020203000020F82000000000010202E7
:104390000020E00020E00000010202030220E020F3
:1043A0008060200000030100006080E08060000069
:1043B000030003000020608060200002030003026D
:1043C0000020E0208060200808070100000020A0F5
:1043D000602000000203020200000020DE02000054
:1043E0000000070400000000FF00000000000F00B4
:1043F000000002DE200000000407000000020102AD
:1044000004040200000000000000000000000000A2
:10441000000000000000000000000000F8000000A4
:1044200000000000333000000000100C06100C06E5
:1044300000000000000000000040C07840C078404C
:1044400000043F04043F040400007088FC083000AE
:1044500000001820FF211E0000F008F000E0180006
:104460000000211C031E211E0000F00888700000BF
:10447000001E2123241927211010160E0000000011
:10448000000000000000000000000000E01804022E
:1044900000000000071820400000020418E000009F
:1044A000000040201807000000404080F08040409D
:1044B000000202010F01020200000000F0000000F3
:1044C000000101011F0101010000000000000000C7
:1044D0000080B0700000000000000000000000003C
:1044E00000000101010101010100000000000000C5
:1044F0000000303000000000000000000080601864
:1045000004006018060100000000E010080810E038
:1045100000000F102020100F00001010F800000005
:10452000000020203F20200000007008080888704C
:1045300000003028242221300000300888884830CC
:10454000000018202020110E000000C02010F800EC
:104550000000070424243F240000F8088888080885
:10456000000019212020110E0000E010888818009A
:1045700000000F112020110E0000380808C838086C
:10458000000000003F0000000000708808088870EC
:1045900000001C222121221C0000E010080810E06D
:1045A000000000312222110F00000000C0C00000F6
:1045B000000000003030000000000000800000001B
:1045C0000000008060000000000000804020100813
:1045D00000000102040810200040404040404040DC
:1045E00000040404040404040000081020408000B7
:1045F000000020100804020100007048080808F0BC
:10460000000000003036010000C030C828E810E08B
:10461000000718272423140B000000C038E0000016
:1046200000203C23020227382008F8888888700080
:1046300000203F202020110E00C030080808083854
:1046400000071820202010080008F808080810E0CB
:1046500000203F202020100F0008F88888E808106C
:1046600000203F20202320180008F88888E8081040
:1046700000203F200003000000C030080808380078
:104680000007182020221E020008F808000008F881
:1046900008203F210101213F20000808F8080800F8
:1046A000000020203F2020000000000808F8080833
:1046B00000C08080807F00000008F888C0281808AB
:1046C00000203F20012638200008F80800000000E4
:1046D00000203F20202020300008F8F800F8F808DB
:1046E00000203F003F003F200008F830C00008F8DD
:1046F00008203F200007183F00E01008080810E0DD
:10470000000F10202020100F0008F808080808F0FB
:1047100000203F210101010000E01008080810E01E
:10472000000F18242438504F0008F88888888870B3
:1047300000203F2000030C30200070880808083853
:10474000000038202121221C00180808F808081849
:10475000000000203F2000000008F808000008F8D2
:1047600008001F202020201F000878880000C8387B
:1047700008000007380E010000F80800F80008F8EB
:1047800000033C0700073C03000818688080681895
:104790000820302C03032C30200838C800C8380803
:1047A000000000203F2000000010080808C838085A
:1047B000002038262120201800000000FE020202FE
:1047C000000000007F40404000000C30C0000000AE
:1047D00000000000010638C00000020202FE0000D6
:1047E00000004040407F000000000004020202047C
:1047F00000000000000000000000000000000000B9
:1048000000808080808080808000020204000000A0
:104810000000000000000000000000808080800098
:10482000000019242222223F2008F8008080000086
:1048300000003F112020110E000000008080800049
:1048400000000E112020201100000000808088F858
:1048500000000E112020103F20000080808080008A
:1048600000001F222222221300008080F088888806
:10487000180020203F2020000000008080808080E1
:1048800000006B94949493600008F800808080008E
:1048900000203F210000203F200080989800000069
:1048A000000020203F202000000000008098980099
:1048B0000000C08080807F000008F80000808080B9
:1048C00000203F24022D302000000808F8000000DE
:1048D000000020203F202000008080808080808099
:1048E00000203F20003F20003F808000808080002B
:1048F00000203F210000203F2000008080808000B9
:1049000000001F202020201F0080800080800000E9
:104910000080FFA12020110E000000008080808018
:1049200000000E112020A0FF808080800080808009
:104930000020203F21200001000000808080808036
:10494000000033242424241900008080E0808000AB
:10495000000000001F2020000080800000008080F8
:1049600000001F202020103F2080808000008080D9
:104970008000010E300806010080800080008080E9
:10498000800F300C030C300F00008080008080808E
:10499000000020312E0E31200080808000008080B9
:1049A0008080818E70180601000080808080808069
:1049B000000021302C2221300000000000807C0209
:1049C0000200000000003F404000000000FF000027
:1049D0000000000000FF0000000002027C800000D8
:1049E000000040403F0000000000060101020204F8
:1049F00004000000000000000000000000000000B3
:104A000000000000000000000000000000000000A6
:104A10000000000000000000000000000000000096
:104A20000000F0F0F0000000000000000000017F36
:104A3000010000000000000000001C1C1C00000021
:104A40000000008060301C8C60301C0C00000000F6
:104A50000000000000000000000000000000000056
:104A60000000000000000000E00000000000E00086
:104A7000000086E69F86868686E69F860000011FE8
:104A800001010101011F010100000080C06020F848
:104A900020E0C00000000003070C18FF70E1810057
:104AA000000000070F10107F100F0700008060202B
:104AB0006080000000E02000000F3020309F70DC9C
:104AC000371030C0000000100E0300071810180740
:104AD000000000C02020E0C0000000000080E01FB7
:104AE00038E88703C43C040000070F1810100B07B8
:104AF0000D1010080000808C4C38000000000000F1
:104B000000000000000000000000000000000000A5
:104B10000000000000000000000000000000008015
:104B2000E0300804000000000000FEFF010000006B
:104B300000000000000000030F18204000000408DF
:104B400030E0800000000000000000000001FFFED7
:104B50000000000000004020180F030000000000CB
:104B600000000000000000C00000000000004266DD
:104B7000663C18FF183C6666420000000000000317
:104B800000000000000000000000008000000000A5
:104B900000001010101010FF101010101000000076
:104BA0000000000300000000000000000000000002
:104BB00000000000000000000000000000000000F5
:104BC0000000808C4C380000000000000000000055
:104BD0000000000000000000000010101010101075
:104BE0001010101000000000000000000000000085
:104BF00000000000000000000000000000000000B5
:104C000000000000000000000000001C1C1C000050
:104C100000000000000000000000000000E0380C70
:104C2000000000000080701C0300000000006038DD
:104C30000E0100000000000000000080C060202085
:104C400060C080000000FEFF010000000001FFFEC8
:104C5000000001070E181010180E07010000008058
:104C60008080C0E000000000000000000000FFFFA6
:104C7000000000000000001010101F1F1010100096
:104C8000000080402020202060C08000000003033E
:104C900000804020381F070000001C1A191818183F
:104CA00018181F00000080C020202060C080000075
:104CB00000000303001010182FE780000000070F0A
:104CC00010101010180F070000000000000000C0B6
:104CD000E0F000000000C0B088868180FFFF808087
:104CE00000000000000010101F1F1010000000E066
:104CF00060606060606060000000003F10080808AD
:104D000018F0E0000000070B101010101C0F03003B
:104D100000000080C040202020E0C0000000FCFF18
:104D2000211008080818F0E0000001070C18101006
:104D300010080F03000000C0E06060606060E06089
:104D400000000003000000E0180700000000000061
:104D500000001F1F00000000000080C06020202015
:104D60002060C080000087EF2C1818303068CF8397
:104D70000000070F0810101010180F07000000C0E7
:104D8000C020202020C0800000001F3F6040404025
:104D90002010FFFE0000000C1C101010080F030074
:104DA0000000000000000000000000000000000003
:104DB00000000E0E0E0000000000000000001C1C91
:104DC0001C000000000000000000000000000000C7
:104DD0000000000000000C0C0000000000000000BB
:104DE0000000583800000000000000000000000033
:104DF00080402010000000102844820100000000C4
:104E00000000000000000001020408100000000083
:104E1000000000000000000000008484848484847A
:104E20008484848400000000000000000000000072
:104E30000000001020408000000000000000000082
:104E40000000000182442810000000100804020144
:104E5000000000000000C020201010101030E0C042
:104E6000000003030000F010080C0703000000001E
:104E7000001C1C1C0000000000000000C04060205E
:104E8000202040C00000FCFF01F00E03C1FE0380A3
:104E90007F0001070E081111101109040200000023
:104EA0000080E0E000000000000000807C434047FC
:104EB0007FF880000010181F1000000000131F1C56
:104EC0001020E0E02020202060C080000000FFFFD4
:104ED00010101010182FE78000101F1F1010101056
:104EE00010180F0700000080C0402020202060E044
:104EF0000000FCFF010000000000000100000107AD
:104F00000E181010100804030020E0E020202020DC
:104F100040C080000000FFFF000000000001FFFE15
:104F200000101F1F10101018080E07010020E0E0ED
:104F300020202020202060800000FFFF1010101093
:104F40007C00000000101F1F101010101010180619
:104F50000020E0E020202020206060800000FFFF93
:104F6000101010107C00000100101F1F1000000026
:104F70000000000000000080C06020202040E00011
:104F80000000FCFF0100004040C0C140400001079C
:104F90000E181010100F0F000020E0E0200000009D
:104FA0000020E0E02000FFFF101010101010FFFFA5
:104FB00000101F1F1000000000101F1F1000002015
:104FC0002020E0E020202000000000000000FFFF83
:104FD000000000000000001010101F1F1010100033
:104FE0000000000000202020E0E020202000000041
:104FF00000000000FFFF0000000060E0808080C033
:105000007F3F00000020E0E020000020A060202082
:105010000000FFFF30187CE3C000000000101F1FDD
:1050200010000001131F1C181020E0E020000000F9
:10503000000000000000FFFF000000000000000072
:1050400000101F1F10101010101018060020E0E0B4
:10505000E000000000E0E0E02000FF013FFEC0E0D3
:105060001E01FFFF00101F1000031F0300101F1F71
:105070001020E0E0C0000000000020E02000FF0061
:1050800003071C78E08000FF00101F1000000000E4
:1050900000030F1F00000080C060202060C080005F
:1050A0000000FEFF010000000000FFFE00000107FD
:1050B0000E181010180C07010020E0E0202020201E
:1050C0002060C0800000FFFF2020202020301F0F24
:1050D00000101F1F100000000000000000000080F2
:1050E000C060202060C080000000FEFF01000000C2
:1050F0000000FFFE000001070E1111133C7C672128
:105100000020E0E0202020202060C0800000FFFF81
:10511000101030F0D0080F0700101F1F1000000003
:10512000030F1C10100080C060202020204040E0B1
:105130000000070F0C1818303060E08100001F0CD1
:105140000810101010180F07008060202020E0E0E9
:1051500020202060800100000000FFFF0000000010
:105160000100000000101F1F100000000020E0E000
:1051700020000000000020E02000FFFF00000000F1
:10518000000000FF0000070F181010101010080793
:10519000002060E0E02000000020E0602000000728
:1051A0007FF88000807C03000000000000071F1CC7
:1051B000070000000020E0E02000E0E0200020E008
:1051C000200007FFF8E01FFFFCE01F0000000003C5
:1051D0001F0300011F03000000002060E0A000008A
:1051E00020E0602000000000038F7CF8C601000072
:1051F000000010181E130001171F1810002060E097
:10520000E02000000020E06020000001073EF8E000
:10521000180700000000000010101F1F10100000F1
:105220000000806020202020A0E0E020000000009E
:1052300000C0F03E0F0300000000101C1F171010EC
:1052400010101806000000000000FC040404040410
:10525000000000000000FF0000000000000000004F
:1052600000007F404040404000000010E00000008F
:10527000000000000000000000031C60800000002F
:105280000000000000000000030C7080000000041B
:1052900004040404FC000000000000000000000002
:1052A000FF00000000000040404040407F00000040
:1052B0000000000010080C040C08100000000000A2
:1052C00000000000000000000000000000000000DE
:1052D00000000000000000000000000000000000CE
:1052E000000000000000000000000000008080803E
:1052F0008080808080808080800000000404080816
:10530000000000000000000000000000000000009D
:10531000000000000000000000000000000000008D
:10532000000000000000000000000098D844642441
:1053300024FCF80000000F1F18101010081F1F1089
:10534000180020E0F000000000000000000000FF56
:10535000FF180804040CF8F00000001F0F181010CC
:1053600010180F0300000000000000000000000003
:105370000000E0F8180404043C3800000000030FAB
:105380000C101010100806000000000000000000C3
:1053900020E0F0000000E0F81C04040408FFFF0017
:1053A0000000030F18101010081F0F080000000065
:1053B0000000000000000000000000E0F848444445
:1053C000444C7870000000030F0C181010100804F3
:1053D000000000000080C0602020E0C00000040445
:1053E00004FFFF040404040000000010101F1F103D
:1053F000101000000000000000000000000000008D
:1054000000000070F88C04048CF874040C007076B2
:10541000CF8D8D8D89C87870000020E0F0000000ED
:1054200000000000000000FFFF08040404FCF80076
:105430000000101F1F100000101F1F1000000000B0
:105440000000606000000000000000040404FCFC98
:10545000000000000000001010101F1F10101000AE
:10546000000000000000000060600000000000007C
:1054700000040404FCFC0000000000C0C08080C0E8
:105480007F3F0000000020E0F0000000000000006E
:10549000000000FFFF80C0F41C0404000000101F87
:1054A0001F1100031F1C1010000000202020E0F03E
:1054B00000000000000000000000FFFF00000000EE
:1054C0000000001010101F1F10101000000000003E
:1054D00000000000000000000004FCFC0804FCFCCC
:1054E0000804FCFC00101F1F10001F1F10001F1FCE
:1054F000100000000000000000000000000004FC9C
:10550000FC08080404FCF8000000101F1F10000035
:10551000101F1F100000000000000000000000002D
:105520000000E0F0180C04040C18F0E00000030F79
:105530000C101010100C0F03000000000000000001
:1055400000000000000004FCFC080404040CF8F057
:10555000000080FFFF889010101C0F030000000067
:1055600000000000000000000000E0F81C0404043B
:1055700008F8FC000000030F1810109088FFFF804F
:10558000000000000000000000000000000404040F
:10559000FCFC100804040C0C001010101F1F10104D
:1055A00010000000000000000000000000000000EB
:1055B0000000003078CCC48484840C1C0000001EE1
:1055C0001810101011190F06000000000000C00094
:1055D000000000000000040404FFFF0404040000B5
:1055E00000000000000F1F1010100C000000000051
:1055F0000000000000000000000004FCFE000000AD
:1056000004FCFE000000000F1F181010081F0F08F8
:105610000000000000000000000000000000040C7A
:105620003CFCC40000C43C0C0400000000010F1E40
:105630000E0100000000000000000000000000005B
:1056400000043CFCC400E47CFC84807C0400000773
:105650001F070000071F07000000000000000000F7
:1056600000000000000004041C7CE4C0341C04049E
:10567000000010101C1601131F1C18100000000061
:1056800000000000000000000000040C3CFCC4000E
:10569000C43C0404000000C080C1370E01000000BB
:1056A0000000000000000000000000000000001CDE
:1056B0000404C4F47C1C0400000000101C1F17111B
:1056C0001010180E0000000000000000F80C04008C
:1056D0000000000000001028EF00000000000000A3
:1056E000000000003F60400000000000000000FFDC
:1056F0000000000000000000000000FF00000000AB
:1057000000000000000000FF000000000000000496
:105710000CF80000000000000000000000EF28105E
:105720000000000000000040603F0000000000009A
:1057300000001806020204081020203008000000B3
:105740000000000000000000000000000000000059
:105750000000000000000000010500000000000340
:1057600008070000E803000000000100040000003A
:1057700018000000003000000400000018000000C5
:105780000030000006590000E6580000EC58000008
:10579000FA5800006F580000FE58000047590000FA
:1057A0007A580000A75800000F5900002D5900003A
:1057B000E0580000265900003C5800004358000003
:1057C00057590000C9580000415900004D580000C9
:1057D000D2580000935800005B580000D9580000D0
:1057E0009958000069580000B95800001E5900007F
:1057F000F1580000745800004A5800008258000018
:1058000087580000325900003A5900008C580000B7
:1058100015590000C15800004F5900009F58000062
:10582000B0580000535800006158000046534D7CAA
:10583000202573202D3E2025730D0A0048617070CD
:10584000792100506172747921005131004A6F6BE7
:1058500065310045617374657231004A6F6B653262
:105860000045617374657232004A6F6B6533005393
:1058700061643F0047616D653F0042657474657205
:105880003F0051322D410051322D42004D696D6F64
:105890007361004A31426164004A324261640047E8
:1058A000616D65536164005374696C6C536164008D
:1058B000436F6E6675736564004A6F6B65456E6411
:1058C0000047616D65456E64004861707079456E92
:1058D00064004A31476F6F64004A32476F6F64005B
:1058E0004775617264004177616B650054696D654D
:1058F000004A6F6B654C6F736500427965004865BF
:10590000616C696E6700536C656570696E67005203
:105910006562656C004D757368726F6F6D004A6FDC
:105920006B6557696E0057616B655570004465651E
:10593000700053756E666C777200436163747573A3
:1059400000517569657400436F6D666F727400472E
:10595000616D6559617900536879000000000000AD
:10596000905A0000000020201000000008010000F4
:10597000A05A000010002020B007000028010000FD
:105980001001000043000000F8FFFFFF004040400E
:105990004040404040404141414141404040404002
:1059A00040404040404040404040404040050202AE
:1059B000020202020202020202020202022020206D
:1059C00020202020202020020202020202029090C9
:1059D00090909090101010101010101010101010C7
:1059E000101010101010101002020202020288881B
:1059F0008888888808080808080808080808080827
:105A0000080808080808080802020202400000000E
:105A10000000000000000000000000000000000086
:105A20000000000000000000000000000000000076
:105A30000000000000000000000000000000000066
:105A40000000000000000000000000000000000056
:105A50000000000000000000000000000000000046
:105A60000000000000000000000000000000000036
:105A70000000000000000000000000000000000026
:105A80000000000000000000000000000000000016
:105A90000C0000015A000000FF00000000000000A0
:04000005000000C136
:00000001FF
