:100B130020202D20202D20200020203A20203A20A4
:0C0B230020004461793A002020002000EE
:10000E00120B5A120B457BFF7A0B79137D017F0180
:10001E00120AB07BFF7A0B791C7D017F02120AB0A7
:10002E007BFF7A0B79257D0C0204E7C28C1208281F
:10003E008F1AD28CE51AB4010FE51970047F018076
:10004E00027F008F19E4F51CE51970030204EFE539
:10005E001AB4020B051CE51C75F0078485F01CE52F
:10006E001A640360030202237410251CF806E51CB3
:10007E00705A7410251CF8E6D3648094E34007741C
:10008E0010251CF8E4F67410251CF8E6FF75F00434
:10009E001206E6AFF0EF7011E511B4020CD3E512C3
:1000AE006480949D40037512017410251CF8E6FFC0
:1000BE0075F0041206E6AFF0EF6011E511B4020C14
:1000CE00D3E5126480949C4003751201E51C640113
:1000DE0070397410251CF8E6D36480948C40077434
:1000EE0010251CF876017410251CF8E6FF640460D8
:1000FE000EEF64066009EF64096004EFB40B0CD3D5
:10010E00E5126480949E4003751201E51C64026042
:10011E00030201C7E51164016023E5116403601D4C
:10012E00E51164056017E51164076011E5116408B7
:10013E00600BE511640A6005E511B40C0F7410250F
:10014E001CF8E6D36480949F406F8066E5116404CA
:10015E006011E5116406600BE51164096005E51197
:10016E00B40B0F7410251CF8E6D36480949E40499E
:10017E008040E511B4021CE51075F0041206E6AFDE
:10018E00F0EF600F7410251CF8E6D36480949C4049
:10019E0002801FE511B40221E51075F0041206E687
:1001AE00AFF0EF70147410251CF8E6D36480949DA4
:1001BE0040077410251CF87601E51CB403122410B8
:1001CE00F8E6D36480949740077410251CF8E4F683
:1001DE00E51CB404122410F8E6D3648094BB4007E7
:1001EE007410251CF8E4F6E51CB405122410F8E68C
:1001FE00D3648094BB40077410251CF8E4F6E51C0C
:10020E00B406122410F8E6D3648094874007741065
:10021E00251CF87601E51A640460030203EA7410E3
:10022E00251CF816E51C705A7410251CF8E6C364DC
:10023E0080948050077410251CF876637410251C6A
:10024E00F8E6FF75F0041206E6AFF0EF7011E51157
:10025E00B4020CC3E5126480949D500375120174B0
:10026E0010251CF8E6FF75F0041206E6AFF0EF60FD
:10027E0011E511B4020CD3E5126480949C40037511
:10028E001201E51C640170397410251CF8E6C36474
:10029E0080948150077410251CF8760C7410251C60
:1002AE00F8E6FF6404600EEF64066009EF6409600F
:1002BE0004EFB40B0CD3E5126480949E40037512C8
:1002CE0001E51C6402600302038EE51164016023E4
:1002DE00E5116403601DE51164056017E5116407FF
:1002EE006011E5116408600BE511640A6005E51103
:1002FE00B40C197410251CF8E6C364809481400375
:10030E0002038E7410251CF8761F8074E5116404A8
:10031E006011E5116406600BE51164096005E511D5
:10032E00B40B167410251CF8E6C3648094815050EB
:10033E007410251CF8761E8047E511B4021CE510DA
:10034E0075F0041206E6AFF0EF600F7410251CF87E
:10035E00E6C3648094815002801FE511B40221E54A
:10036E001075F0041206E6AFF0EF70147410251C31
:10037E00F8E6C36480948150077410251CF8761C2F
:10038E00E51CB403122410F8E6C364809480500771
:10039E007410251CF87617E51CB404122410F8E628
:1003AE00C36480948050077410251CF8763BE51CBE
:1003BE00B405122410F8E6C36480948050077410BC
:1003CE00251CF8763BE51CB406122410F8E6C3642F
:1003DE0080948150077410251CF8760712056CE581
:1003EE001B607AE510FB3395E0FA750C027D017FF8
:1003FE0001120AD3E511FB3395E0FA750C027D0468
:10040E007F01120AD3E512FB3395E0FA750C027DDB
:10041E00077F01120AD3E513FB3395E0FA750C0240
:10042E007D017F02120AD3E514FB3395E0FA750CB9
:10043E00027D047F02120AD3E515FB3395E0FA75AF
:10044E000C027D077F02120AD3E516FB3395E0FA04
:10045E00750C017D107F01120AD3020039E51C7064
:10046E000D7BFF7A0B792A7D017F01120AB0E51C04
:10047E00B4010D7BFF7A0B792A7D047F01120AB03D
:10048E00E51CB4020D7BFF7A0B792A7D077F0112E2
:10049E000AB0E51CB4030D7BFF7A0B792A7D017F30
:1004AE0002120AB0E51CB4040D7BFF7A0B792A7D8B
:1004BE00047F02120AB0E51CB4050D7BFF7A0B799E
:1004CE002A7D077F02120AB0E51C64066003020053
:1004DE00397BFF7A0B792D7D107F01120AB0020055
:1004EE0039120A7EE510FB3395E0FA750C027D0198
:1004FE007F01120AD3E511FB3395E0FA750C027DEC
:10050E00047F01120AD3E512FB3395E0FA750C0253
:10051E007D077F01120AD3E513FB3395E0FA750CC4
:10052E00027D017F02120AD3E514FB3395E0FA75C2
:10053E000C027D047F02120AD3E515FB3395E0FA17
:10054E00750C027D077F02120AD3E516FB3395E088
:0E055E00FA750C017D107F01120AD3020039DC
:03000B000209D80F
:0909D800C0E0C0D075D000C007DA
:1009E1000518E51870020517758A66758CFCC3E554
:1009F1001894F4E51794014012751700751800E575
:0B0A01001B70047F0180027F008F1B30
:070A0C00D007D0D0D0E0328A
:100B2F00EF1FAC0670011E4C600B007D027CC7DC12
:050B3F00FEDDFC80EB6F
:010B4400228E
:090B930007101707050B0D0705FB
:050889002DFDEE3CFC1A
:06088E008C088D09AB0788
:10089400C292C290D292E4FD7E007401A805088041
:1008A40005C333CE33CED8F9FFEBF582EF5582245E
:1008B400FF9291D290C2900DBD08DDE4FD7E0074DC
:1008C40001A805088005C333CE33CED8F9FFE50867
:1008D4005EFEE5095F4E24FF9291D290C2900DBD59
:0408E40008DBC292D9
:0108E80022ED
:0208E900A9075D
:1008EB00E4FD430101C292C290D292FBC2907E0002
:1008FB007401A803088005C333CE33CED8F9FFE9C2
:10090B00F582EF558224FF9291D2900BBB08DDE468
:10091B00FBD290C29030910DA8037401088002C3E2
:10092B0033D8FC42050BBB08E8C292C291EDC4540C
:0B093B000F75F00AA4FFED540F2FFF12
:01094600228E
:10056C00E4FDFC7F8E12088EE51075F00A1206E68B
:10057C00FF3395E0FEEFC4F8540FC868FFEEC45487
:10058C00F048FEE51075F00A1206E6ADF0ED339575
:10059C00E0FCEF7F8C120889E51175F00A1206E673
:1005AC00FF3395E0FEEFC4F8540FC868FFEEC45457
:1005BC00F048FEE51175F00A1206E6ADF0ED339544
:1005CC00E0FCEF7F88120889E51275F00A1206E646
:1005DC00FF3395E0FEEFC4F8540FC868FFEEC45427
:1005EC00F048FEE51275F00A1206E6ADF0ED339513
:1005FC00E0FCEF2DFDEE3CFC7F8612088EE51375BA
:10060C00F00A1206E6FF3395E0FEEFC4F8540FC86B
:10061C0068FFEEC454F048FEE51375F00A1206E6C6
:10062C00ADF0ED3395E0FCEF2DFDEE3CFC7F84123C
:10063C00088EE51475F00A1206E6FF3395E0FEEF1E
:10064C00C4F8540FC868FFEEC454F048FEE51475A6
:10065C00F00A1206E6ADF0ED3395E0FCEF2DFDEE61
:10066C003CFC7F8212088EE51575F00A1206E6FF37
:10067C003395E0FEEFC4F8540FC868FFEEC454F095
:10068C0048FEE51575F00A1206E6ADF0ED3395E07F
:10069C00FCEF2DFDEE3CFC7F8012088EE51675F00C
:1006AC000A1206E6FF3395E0FEEFC4F8540FC86853
:1006BC00FFEEC454F048FEE51675F00A1206E6ADDE
:1006CC00F0ED3395E0FCEF2DFDEE3CFC7F8A12083B
:0A06DC008E7D807C007F8E02088E68
:100A7E007F8C1208E98F107F881208E98F117F860C
:100A8E001208E98F127F841208E98F137F821208F1
:100A9E00E98F147F801208E98F157F8A1208E98F7B
:020AAE0016220E
:080B8100C2A5C2A78F80D2A714
:090B8900007F027EC7DEFEDFFCE6
:010B92002240
:0A0B9D00C2A6120B81C2A7020B8949
:100AF500CFCDCFCECCCE1207477C007D0A1207475B
:040B0500ED2430FFAC
:0A0B0900D2A6120B81C2A7020B89CD
:100B5A007F38120B9D7F0C120B9D7F06120B9D7F17
:040B6A0001020B9DDC
:100B6E00EDBF010514448080051444802440FF121B
:030B7E000B9D22AA
:0A0BA700AC03120B6EAF04020B0941
:060AB0008B088A09890A87
:100AB600120B6EE4FDAB08AA09A90A8D82758300A4
:0C0AC600120708FF6006120B090D80E902
:010AD2002201
:070A4A00E522FD7C007F0A9C
:060A51008C0E8D0FAB07B7
:100A57007F017E00E4FAE50F24FFFDE50E34FFFC7D
:100A6700EAC39DEC6480F8748098500AEBFD7C0023
:060A77001207350A80E0C1
:010A7D002256
:040AD3008A0A8B0BF5
:100AD700120B6E850C0DE50DD394004010E50D1239
:0D0AE7000A4CAC0AAD0B120AF5150D80E9A2
:010AF40022DF
:040947008A1F8B2058
:10094B00120B6EC3E51F64809480401D7F2B120B2E
:10095B0009852122E522D394004030120A4AAC1FAC
:10096B00AD20120AF5152280EB7F2D120B09852184
:10097B0022E522D394004013120A4AC3E49520FDCA
:0B098B00E4951FFC120AF5152280E61F
:01099600223E
:040997008A258B26FC
:10099B00120B6E852728E528D39400402FE528FD00
:1009AB007C007F10120A51AC25AD26CFCDCFCECC1B
:1009BB00CE120747EF540FFEC3940AEE50042430B7
:0C09CB0080022437FF120B09152880CA97
:0109D70022FD
:040A13008A2B8B2C73
:100A1700120B6E852D2EE52ED394004025E52EFD75
:100A27007C007F02120A51AC2BAD2CCFCDCFCECCA0
:100A3700CE120747EF5401FD2430FF120B09152E84
:020A470080D459
:010A4900228A
:10082800E4F50820B1137F14FE120B2F30B1FD7FC1
:10083800147E00120B2F75080120B0147F147E005F
:10084800120B2F30B0FD7F147E00120B2F7508029B
:1008580020B2147F147E00120B2F30B2FD7F147E5D
:1008680000120B2F75080320B3147F147E00120B9F
:100878002F30B3FD7F147E00120B2F750804AF08CC
:01088800224D
:100B45005389F0438901758A66758CFCC28DD28CF8
:050B5500D2AFD2A9227D
:0300000002079C58
:0C079C00787FE4F6D8FD75812E0207E39B
:1006E600C2D530F707B2D563F0FF05F030E70CB29C
:1006F600D5F4048463F0FF05F080018430D502F45C
:020706000422CB
:10070800BB010CE58229F582E5833AF583E02250A6
:1007180006E92582F8E622BBFE06E92582F8E222F0
:0D072800E58229F582E5833AF583E493220A
:10073500EF8DF0A4A8F0CF8CF0A428CE8DF0A42ED8
:02074500FE2292
:10074700BC000BBE0029EF8DF084FFADF022E4CC96
:10075700F875F008EF2FFFEE33FEEC33FCEE9DEC5F
:10076700984005FCEE9DFE0FD5F0E9E4CEFD22EDA5
:10077700F8F5F0EE8420D21CFEADF075F008EF2FEF
:10078700FFED33FD4007985006D5F0F222C398FDE0
:050797000FD5F0EA227D
:1007A80002000EE493A3F8E493A34003F68001F259
:1007B80008DFF48029E493A3F85407240CC8C33352
:1007C800C4540F4420C8834004F456800146F6DF21
:1007D800E4800B0102040810204080900B93E47E13
:1007E800019360BCA3FF543F30E509541FFEE49316
:1007F800A360010ECF54C025E060A840B8E493A3DD
:10080800FAE493A3F8E493A3C8C582C8CAC583CA07
:10081800F0A3C8C582C8CAC583CADFE9DEE780BEBF
:010B9C000058
:00000001FF
