:0305B90001370106
:10000E0012042012061720A6317F147E001205EB73
:10001E0020A6270537E53775F0038485F037E537D9
:10002E0014600C14600E2402700D750801800875A2
:10003E000808800375080F1204207F8112047F8F39
:10004E00337F8312047F8F357F8512047F8F34E5D3
:10005E0036700302012DE4F538E53475F00A847527
:10006E00F008A424F9F582E5F03401F583E5822544
:10007E0038F582E43583F583E493FF74092538F867
:10008E00A607E53475F00A84AEF075F008EEA424E8
:10009E00F9F582E5F03401F583E5822538F582E441
:1000AE003583F583E493FF74112538F8A607E538F8
:1000BE0090024993FF74192538F8A607E53575F0B7
:1000CE000A8475F008A424F9F582E5F03401F5836D
:1000DE00E5822538F582E43583F583E493FF7421B8
:1000EE002538F8A607E53575F00A84AEF075F008E8
:1000FE00EEA424F9F582E5F03401F583E582253886
:10010E00F582E43583F583E493FF74292538F8A648
:10011E00070538E538640860030200670201F3E45E
:10012E00F538E53575F00A8475F008A424F9F582E2
:10013E00E5F03401F583E5822538F582E43583F563
:10014E0083E493FF74092538F8A607E53575F00AA0
:10015E0084AEF075F008EEA424F9F582E5F03401D2
:10016E00F583E5822538F582E43583F583E493FF44
:10017E0074112538F8A607E53890024993FF7419D3
:10018E002538F8A607E53375F00A8475F008A4241F
:10019E00F9F582E5F03401F583E5822538F582E440
:1001AE003583F583E493FF74212538F8A607E533EC
:1001BE0075F00A84AEF075F008EEA424F9F582E528
:1001CE00F03401F583E5822538F582E43583F58335
:1001DE00E493FF74292538F8A6070538E538640836
:0B01EE006003020130120586020014BD
:03000B000203B538
:1003B500C0E0C0F0C083C082C0D075D000C000C00E
:0D03C50001C002C003C004C005C006C0078F
:1003D2000532E53270020531758A66758CFCAE31E4
:1003E200AF32E4FCFD7BB87A88F9F8D312060150EB
:1003F20012753100753200E53670047F0180027F8C
:03040200008F3632
:10040500D007D006D005D004D003D002D001D0004B
:0B041500D0D0D082D083D0F0D0E032F5
:1001F9003C6666666666663C183818181818183C16
:100209003C66660C1830607E3C66061C0606663C39
:100219000C1C1C3C6C7E0C1E7E60607C6606663C79
:100229001C36607C7666663C7E660C0C18181818BD
:100239003C66663C6666663C3C66666E3E066C38A5
:10024900000018180000181810101828283C2466F7
:1002590078242438242424783C44404040404438BD
:1002690078242424242424787C2428382820247CD5
:100279007C242838282020701C2440404E4424180F
:100289006624243C242424667C1010101010107C51
:100299003C08080808087830762428302824247671
:1002A900702020202020227EEE6C6C6C545454D691
:1002B9006E2434342C2C2474384444444444443843
:1002C90078242438202020703844444444744C381D
:1002D9007C26263C302824773C4440300804447866
:1002E9007C54101010101038662424242424241857
:1002F90066242428281810105454545438282828BF
:100309006C2828101028286C6C2828281010103800
:100319007C4808101020247C000000000000000028
:1005BC000108082028093C6666666666663C3C664F
:1005CC0066666666663C3C6666666666663C3C6667
:0E05DC0066666666663C3C6666666666663CFB
:0604DA008C3A8D3BAB07DC
:1004E000C2A1E4FDC2A27E007480A805088006CEE9
:1004F000A2E713CE13D8F8FFEBF582EF558224FF65
:1005000092A0D2A20DBD08DCE4FDC2A27E007480E0
:10051000A805088006CEA2E713CE13D8F8FFE53A67
:100520005EFEE53B5F4E24FF92A0D2A20DBD08DA2D
:0105300022A8
:10042000C2A1E4FAE4FDFC7F091204DA0ABA05F479
:10043000D2A1C2A1E4FAE508FD7C007F0A1204DA29
:100440000ABA05F2D2A1C2A1E4FA7D077C007F0BB3
:100450001204DA0ABA05F3D2A1C2A1E4FA7D017C42
:10046000007F0C1204DA0ABA05F3D2A1C2A1E4FAA1
:0E047000E4FDFC7F0F1204DA0ABA05F4D2A1F3
:01047E00225B
:10058600E4F539C2A1E4FAEA75F008A4240925398C
:10059600F8E6FD7C00E53904FF1204DA0ABA05E73D
:1005A600D2A17F0F7E001205EB0539E539C3940809
:0205B60040D132
:0105B8002220
:1005EB00EF1FAC0670011E4C600B007D027CC7DC5C
:0505FB00FEDDFC80EBB9
:0106000022D7
:100617005389F0438901758A66758CFCC28DD28C2B
:05062700D2AFD2A922B0
:02053100A90718
:10053300C2A5C2A3D2A5E4FB7E007401A803088070
:1005430005C333CE33CED8F9FFE9F582EF558224C4
:10055300FF92A4D2A3C2A30BBB08DDE4FB7E00740D
:1005630001A803088005C333CE33CED8F9FFEDF5D8
:1005730082EF558224FF92A4D2A3C2A30BBB08DD52
:02058300C2A50F
:010585002253
:02047F00A907CB
:10048100E4FDC2A5C2A3D2A5FBC2A37E007401A84C
:1004910003088005C333CE33CED8F9FFE9F582EFE7
:1004A100558224FF92A4D2A30BBB08DDE4FBD2A3A7
:1004B100C2A330A40DA8037401088002C333D8FC81
:1004C10042050BBB08E8C2A5C2A4EDC4540F75F0E8
:0804D1000AA4FFED540F2FFFF8
:0104D9002200
:03000000020329CF
:0C032900787FE4F6D8FD75813B0203707C
:10060100EB9FF5F0EA9E42F0E99D42F0EC6480C870
:0606110064809845F02210
:1003350002000EE493A3F8E493A34003F68001F2D0
:1003450008DFF48029E493A3F85407240CC8C333C9
:10035500C4540F4420C8834004F456800146F6DF98
:10036500E4800B01020408102040809005B9E47E6A
:10037500019360BCA3FF543F30E509541FFEE4938D
:10038500A360010ECF54C025E060A840B8E493A354
:10039500FAE493A3F8E493A3C8C582C8CAC583CA7F
:1003A500F0A3C8C582C8CAC583CADFE9DEE780BE37
:0105EA000010
:00000001FF
